:100000000C9463000C948B000C948B000C94F50101
:100010000C94F5010C94F5010C948B000C948B005E
:100020000C948B000C948B000C948B000C948B0024
:100030000C948B000C948B000C948B000C948B0014
:100040000C94AB010C948B000C948B000C948B00E3
:100050000C948B000C948B000C948B000C948B00F4
:100060000C948B000C948B000000000023002600F1
:10007000290000000000240027002A0000000000E2
:10008000250028002B0004040404040404040202D4
:100090000202020203030303030301020408102007
:1000A0004080010204081020010204081020000012
:1000B0000008000201000003040700000000000027
:1000C00000006E045D0511241FBECFEFD8E0DEBF37
:1000D000CDBF12E0A0E0B1E0ECEAFBE002C0059089
:1000E0000D92A631B107D9F723E0A6E1B2E001C035
:1000F0001D92A535B207E1F710E0C2E6D0E004C0DA
:100100002197FE010E94C305C136D107C9F70E949D
:10011000B9020C94C9050C940000AF92BF92CF9223
:10012000DF92EF92FF920F931F93CF93DF936C01B7
:100130007B018B01040F151FEB015E01AE18BF0898
:10014000C017D10759F06991D601ED91FC9101904A
:10015000F081E02DC6010995892B79F7C501DF9162
:10016000CF911F910F91FF90EF90DF90CF90BF90B4
:10017000AF9008953FB7F89480915B0290915C0234
:10018000A0915D02B0915E0226B5A89B05C02F3FED
:1001900019F00196A11DB11D3FBFBA2FA92F982FAD
:1001A0008827BC01CD01620F711D811D911D42E0A8
:1001B000660F771F881F991F4A95D1F708952091E0
:1001C0006102309162022817390771F490915F0241
:1001D00080916002981741F0E0915F02F0E0EA5EE2
:1001E000FD4F808190E008958FEF9FEF089508956F
:1001F000EF92FF920F931F93CF93DF93DC015C96F6
:10020000ED90FC905D97E114F10479F481E090E0C9
:1002100013969C938E93129790E080E0DF91CF919C
:100220001F910F91FF90EF9008955196ED91FC91E1
:10023000529750968C915097982F90950FB75E9645
:100240002C915E97122F127021FD6095F8942081F9
:10025000112319F1282B2083E7012197F1F728E0DA
:10026000462F50E0308160FF1AC0382B3083E70101
:100270002197F1F7BA0175956795215089F71123F8
:1002800081F08081892380830FBF5C968D919C9142
:100290000197F1F781E090E0C1CF2923DCCF39232A
:1002A000E5CF9081892BEFCF2091610230916202DE
:1002B0002817390771F48091600220915F0290E065
:1002C000805C9F4F821B910960E470E00E94790579
:1002D000089590E080E008952091610230916202DB
:1002E00028173907B9F490915F028091600298173E
:1002F00089F0E0915F02F0E0EA5EFD4F808120919D
:100300005F0230E02F5F3F4F2F73332720935F0250
:1003100090E008958FEF9FEF089590E080E00895BA
:10032000FC0101900020E9F73197AF01481B590B00
:10033000BC0186E393E00C948D00CF93DF930E9481
:100340009001EC0182E191E00E9490018C0F9D1FD1
:10035000DF91CF9108951F920F920FB60F92112443
:100360002F933F938F939F93AF93BF9380915702A7
:1003700090915802A0915902B0915A0230915602C0
:1003800023E0230F2D3758F50196A11DB11D2093B1
:1003900056028093570290935802A0935902B0934B
:1003A0005A0280915B0290915C02A0915D02B09133
:1003B0005E020196A11DB11D80935B0290935C02C9
:1003C000A0935D02B0935E02BF91AF919F918F9118
:1003D0003F912F910F900FBE0F901F90189526E818
:1003E000230F0296A11DB11DD2CF1F920F920FB6FF
:1003F0000F9211242F933F934F935F936F937F93AB
:100400008F939F93AF93BF93EF93FF93E09161021C
:10041000F0916202309749F0A685B7858585968D63
:1004200091FF14C09C918923A1F4FF91EF91BF919A
:10043000AF919F918F917F916F915F914F913F917C
:100440002F910F900FBE0F901F9018959C918923AC
:1004500061F7A389B4899C918589809589238C93C0
:10046000868997890197F1F7608D718DA685B7858B
:10047000558538E020E0CB010197F1F7822F90E01D
:1004800095958795282F4C91452309F02068315088
:1004900091F7868D81FD20958091600290E0019614
:1004A0008F73992730915F02381799F0A0916002FD
:1004B000B0E0AA5EBD4F2C9380936002828D938D35
:1004C0000197F1F7A389B4898C919589892B8C9335
:1004D000ACCF868D8160868FF1CF90E0FC01E25534
:1004E000FF4F2491FC01E656FF4F3491FC01EA577F
:1004F000FF4FE491EE23C9F0222339F0233001F1BC
:10050000A8F4213019F1223029F1F0E0EE0FFF1F9D
:10051000E458FF4FA591B4918FB7F894EC91611115
:1005200026C030953E233C938FBF08952730A9F015
:100530002830C9F0243049F7809180008F7D03C0B6
:10054000809180008F7780938000DFCF84B58F7794
:1005500084BDDBCF84B58F7DFBCF8091B0008F77DA
:100560008093B000D2CF8091B0008F7DF9CF3E2B29
:10057000DACF789484B5826084BD84B5816084BD0F
:1005800085B5826085BD85B5816085BD80916E0031
:10059000816080936E001092810080918100826062
:1005A000809381008091810081608093810080919F
:1005B00080008160809380008091B100846080938E
:1005C000B1008091B00081608093B00080917A008A
:1005D000846080937A0080917A00826080937A00B0
:1005E00080917A00816080937A0080917A0080689F
:1005F00080937A001092C100109251031092500320
:1006000010924F0310924E0310924D0310924C0320
:100610008DE991E0909353038093520390914203AC
:10062000963108F047C02DEB30E030934D03209316
:100630004C032BE931E030934F0320934E032CE21F
:1006400031E030935103209350032091680084E0FF
:10065000983048F031E09E3008F430E081E001C08D
:10066000880F3A95EAF7822B809368002DE630E0F8
:10067000983050F02BE630E09E3030F02CE630E041
:10068000963110F030E020E030934A032093490384
:10069000292F30E0983008F07EC081E001C0880F3B
:1006A0009A95EAF780934B038091520390915303FC
:1006B0000197F1F78091500390915103892B49F1F3
:1006C000E0916102F091620283E0E633F80709F1FC
:1006D000309739F0A389B4899C91858980958923C5
:1006E0008C93809154038E7F809354031092600208
:1006F00010925F0286E393E090936202809361021E
:10070000E0914903F0914A03808190914B03892B3A
:1007100080831AB8389A3998409885E191E00E9410
:100720009D018EE391E00E949D0100E010E0FF2416
:10073000F39480913503811149C0319B26C0C0914B
:100740002B03D0912C03209751F40E94BA006093A0
:100750002D0370932E0380932F039093300389B160
:10076000811126C00E94BA00609331037093320356
:100770008093330390933403CD59DD4F1882F09268
:100780003503409A3199FECF40980115110589F241
:100790000E940000CECF9E3040F42850310981E005
:1007A00001C0880F2A95EAF77DCF2E503109F7CF87
:1007B000C73CD10534F79E012F5F3F4F30932C0388
:1007C00020932B03CD59DD4F8883DBCF80903103FD
:1007D00090903203A0903303B090340380912D03A6
:1007E00090912E03A0912F03B0913003881A990A9B
:1007F000AA0ABB0A84E591E00E949D018CE791E082
:100800000E949001C0902B03D0902C030D2C000C63
:10081000EE08FF084AE0C701B601F7FE0DC06DE221
:1008200086E393E00E94F80066277727CB016C19D6
:100830007D098E099F094AE00E94190582E191E035
:100840000E94900188E991E00E949D0180EC91E076
:100850000E949D018FEC91E00E94900103E612E05E
:10086000D0E0C0E020912B0330912C03C8018356C7
:10087000924082179307C4F4F801F1908F016F2D15
:1008800086E393E00E94F8002196CD32D10554F31F
:10089000F0E2FF12E7CF82E191E00E94900184ED47
:1008A00091E00E949001DCCF82ED91E00E949D01D9
:1008B00088E991E00E949D0189ED91E00E949001FC
:1008C0004AE0C501B4010E94190580EE91E00E9442
:1008D0009D018EEE91E00E949D01FFCF0F931F932B
:1008E000CF93DF93109239031092380388EE93E090
:1008F000A0E0B0E080933A0390933B03A0933C03C5
:10090000B0933D0384E091E09093370380933603E6
:1009100010924D0310924C0310924F0310924E030D
:1009200010925103109250031092530310925203ED
:10093000609154036E7F6D7F609354036695617080
:1009400081E068278AE00E946D0244EA50E0FA01E3
:10095000649180E990E0FC012491222399F030E039
:10096000220F331FF901EE58FF4FA591B491F90101
:10097000E458FF4F259134912FB7F8943C91632BA5
:100980006C932FBFFA01449140934603FC0184917C
:10099000E82FF0E0EE0FFF1FE458FF4F8591949190
:1009A000909348038093470303EA10E0F8012491F1
:1009B000CFE8D0E0FE0184918823C9F090E0880F51
:1009C000991FFC01EE58FF4FA591B491FC01E4582A
:1009D000FF4F459154913FB7F8949C91822F809599
:1009E00098239C93FA019081892380833FBF809153
:1009F000540381FD04C061E089E00E946D0289E03A
:100A000080934203F801049100934303FE01C491D3
:100A1000EC2FF0E0EE0FFF1FE859FF4F8591949106
:100A20009093450380934403DF91CF911F910F91E1
:100A300008958F929F92AF92BF920F931F93CF937F
:100A4000DF93CDB7DEB7A1970FB6F894DEBF0FBE28
:100A5000CDBF19A2423008F44AE08E010F5D1F4F4E
:100A6000842E912CB12CA12CA50194010E948D05FE
:100A7000E62FB901CA01EA30F4F4E05DD801EE9343
:100A80008D01232B242B252B79F790E080E0109704
:100A900019F0CD010E949001A1960FB6F894DEBF27
:100AA0000FBECDBFDF91CF911F910F91BF90AF903F
:100AB0009F908F900895E95CE1CF84E091E090935E
:100AC00037038093360380916102909162028653CE
:100AD000934071F4E0914903F0914A039081809131
:100AE0004B038095892380831092620210926102E9
:100AF000089597FB072E16F4009407D077FD09D0D0
:100B00000E94AF0507FC05D03EF4909581959F4F5C
:100B10000895709561957F4F0895A1E21A2EAA1B42
:100B2000BB1BFD010DC0AA1FBB1FEE1FFF1FA2179D
:100B3000B307E407F50720F0A21BB30BE40BF50B9A
:100B4000661F771F881F991F1A9469F76095709523
:100B5000809590959B01AC01BD01CF010895AA1B22
:100B6000BB1B51E107C0AA1FBB1FA617B70710F098
:100B7000A61BB70B881F991F5A95A9F780959095CA
:100B8000BC01CD010895EE0FFF1F0590F491E02DFB
:100B9000099410E0C2E6D0E004C0FE010E94C30543
:0C0BA0002196C336D107C9F7F894FFCFA7
:100BAC0000000000F8008D008D01F70054016C016D
:100BBC00DF000D0A002D2D2D204D554C54492D5381
:100BCC004C41564520504152414C454C20504F52BF
:100BDC005420414C4943495349202D2D2D00536934
:100BEC006E79616C2062656B6C656E69796F722EC3
:100BFC002E2E0A003D3D3D3D3D3D3D3D3D3D3D3DA7
:100C0C003D205645524920414C494E4449203D3DDA
:100C1C003D3D3D3D3D3D3D3D3D3D3D00416B7461A8
:100C2C0072696C616E20546F706C616D204B6172D7
:100C3C00616B7465723A20002D2D2D2D2D2D2D2DCF
:100C4C002D2D2D2D2D2D2D2D2D2D2D2D2D2D2D2DC8
:100C5C002D2D2D2D2D2D2D2D2D2D2D2D2D2D2D00E5
:100C6C005B47454C454E2043554D4C455D3A002D58
:100C7C003E2022002020202000537572653A20006F
:100C8C00206D696B726F73616E6979652E003D3DE5
:100C9C003D3D3D3D3D3D3D3D3D3D3D3D3D3D3D3D78
:100CAC003D3D3D3D3D3D3D3D3D3D3D3D3D3D3D3D68
:060CBC003D3D3D3D3D0001
:00000001FF
