:020000040000FA
:10000000B20177296400111E022823009A0003140C
:100010007429B216B21EB212B2191228B2154F20AC
:10002000031839280830A3006320A20DA30B14285D
:10003000B21E462071206B20B21A39203E202208C1
:1000400003107429B216B21EB21232192C28FE39CE
:10005000B300321503107429321A3428A600321660
:100060004F20031839282608562003183928B21EB5
:1000700074294620712032113212B21138088500DD
:10008000360880388400340880044E2838088500FB
:1000900036088400340980058417800508003E2056
:1000A000712046206B203308B2190138A2000830B5
:1000B000A300A20D03183E20031C462071206B20D4
:1000C000A30B59283E20712038088500360884008B
:1000D00034080005FF3E39088500370884003509DB
:1000E0004B2839088500370884003508442804085F
:1000F000A60038088500360884008030B305083033
:10010000A70003100318B30A9520A60CA70B82289A
:100110000000AB1A330C95207521031495202F088D
:10012000A3002E08E820031474298413AB1FA4280D
:10013000000834042B1F34068000841700083404A0
:10014000031C34068000AF2800083404031C340666
:100150002B1B34068000841734098005AF282B0838
:100160001F39003EA1002A08043E0318A10A00001E
:10017000F528B31329080319B3170530A800273051
:10018000A3001030CF200330A300E830CF20A3011C
:100190006430CF20A3010A30CF202408D628A20043
:1001A0002508A1002408A00043212008A000A803DE
:1001B0000319B31329080319E028280203180800BB
:1001C0002008031DB313B31B0800303E6F29A301A1
:1001D000A200FF30A207031CA307031C74290330ED
:1001E000A100E330F520E928A101F43EA000A10917
:1001F000FE30031CFE28A0070318FB28A00764009C
:10020000A10FFB2800002018052920180729080045
:10021000013EA7000A30A200A3014321A70B0D292C
:1002200024080800A035A10DFF3E0318122920085C
:100230007429A136A00CFF3E03181929200874293F
:10024000A101A301A20001302829A200063028291B
:10025000A80023082102031D2F29220820020430B0
:1002600003180130031902302805031DFF307429DB
:100270000038031DFF300405031DFF3074290404FA
:10028000031DFF307429A501A4011030A600210D23
:10029000A40DA50D2208A4022308A53B0318552987
:1002A0002208A4072308A53D0310A00DA10DA60B4D
:1002B0004729200874291030A800A101A001A70C2B
:1002C000A60C031C67292208A0072308A13DA10C46
:1002D000A00CA50CA40CA80B5F2924087429840089
:1002E00031088A00300882002000640008002300E2
:1002F00033309B009C0120309E0090309D002100F7
:100300007030990023008C018D0122009E019D0117
:100310002400FF308D00FF308C0021009D019E01E4
:1003200095138C01D8308D00230048309F002000A9
:100330000130CB00D40164004B08013C8131031D26
:10034000DD2911305407BC00BD010130BD3D3C0822
:10035000FF3CBC003D08031C013EFF3CBD000130DA
:100360003C07BA0000303D3DBB003B08CD003A08D9
:10037000CE007E3080310220FF30803102200630F6
:10038000803102200C308031022000308031022088
:100390000030803102205408803102204D08803125
:1003A00002204E0880310220EF3080310220CB0144
:1003B0000130A300F4308031E82064308031E72040
:1003C0000D30B6000030B8002030B4005430AA0020
:1003D000AB01AE01AF014C30803178204330803129
:1003E0007820443080317820443080317820443087
:1003F0008031782064308031E7200D30B600003045
:10040000B8002030B4005430AA00AB01AE01AF01F7
:100410004C30803178204330803178204430803136
:100420007820443080317820443080317820643026
:100430008031E7200D30B6000030B8002030B40025
:100440005430AA00AB01AE01AF014C3080317820AE
:100450004330803178204430803178204230803100
:1004600078204F308031782019308031E7200D30EE
:10047000B6000030B8002030B4005430AA00AB0100
:10048000AE01AF014C30803178204330803178208C
:100490004430803178204230803178204C308031B7
:1004A0007820203080317820363080317820FA3042
:1004B0008031E7200D30B6000030B8000130B400C4
:1004C0000D30B7000030B9000230B500D0308031B7
:1004D00024200730803124201030803122200D303C
:1004E000B6000030B8002030B4005430AA00AB0190
:1004F000AE01AF014C30803178204330803178201C
:100500004430803178204330803178204830803149
:10051000782019308031E720640082310D1B912A48
:10052000FB338631EA26640082310D1B992A823121
:100530009D2A64308031E720F4330D30B60000305E
:10054000B8002030B4005430AA00AB01AE01AF01B6
:100550004C308031782043308031782044308031F5
:100560007820433080317820423080317820193033
:100570008031E7200D30B6000030B8002030B400E4
:100580005430AA00AB01AE01AF014C30803178206D
:1005900043308031782044308031782057308031AA
:1005A00078205230803178202030803178203130EE
:1005B000803178202C30803178203730803178209D
:1005C0002D3080317820640082310D1BE82AFB3306
:1005D00019308031E7206008E6000130E700640050
:1005E00082310D1BF52A8431842C640082318D19EF
:1005F000FD2A0130EA008331062B640083310D1A95
:10060000052B0230EA008331062BE93364006A08C7
:10061000023C8331031D0E2B83311D2B64001730E8
:1006200066028331031C192BE6018331362B83319B
:100630001C2BE60A8331362BD23364006608003C5B
:100640008331031D272B1730E6008331362B6400DE
:100650000230660283310318322BE6018331362BD8
:100660008331352BE6038331362BB93364006708B9
:10067000013C8331031D422B0730D5006608E000A2
:100680008331702B64006708023C8331031D4E2BBD
:100690000A30D5006608CF008331702B64006708EC
:1006A000033C8331031D5A2B0730D5006608DC005C
:1006B0008331702B64006708043C8331031D662B73
:1006C0000A30D5006608CA008331702B64006708C1
:1006D000053C8331031D702B0F30D5006608E80000
:1006E00064000330670283310318E62B0D30B60037
:1006F0000030B8002030B4005430AA00AB01AE0185
:10070000AF014C3080317820433080317820443044
:1007100080317820573080317820523080317820F5
:100720002030803178203130803178202C30803179
:1007300078200230A9005508A400A5017730B00048
:10074000B1018031B9202D30803178200230A900EC
:100750006608A400A5017730B000B1018031B9204E
:1007600064308031E7200D30B6000030B800203012
:10077000B4005430AA00AB01AE01AF014C3080315F
:1007800078204330803178204430803178205730D1
:1007900080317820523080317820203080317820AC
:1007A0003130803178202C30803178200230A9001F
:1007B0005508A400A5017730B000B1018031B920FF
:1007C0002D308031782064308031E72064000330A0
:1007D00067028431031C5C2C0D30B6000030B80079
:1007E0002030B4005430AA00AB01AE01AF014C3050
:1007F0008031782043308031782044308031782037
:10080000573080317820523080317820203080314C
:1008100078203230803178202C30803178200230BE
:10082000A9005508A400A5017730B000B1018031BE
:10083000B9202D30803178200230A9006608A4004C
:10084000A5017730B000B1018031B920643080312A
:10085000E7200D30B6000030B8002030B40054302E
:10086000AA00AB01AE01AF014C308031782043309B
:1008700080317820443080317820573080317820A2
:1008800052308031782020308031782032308031F1
:1008900078202C30803178200230A9005508A4003F
:1008A000A5017730B000B1018031B9202D30803101
:1008B000782064308031E72064006708013C84318F
:1008C000031D642C8231EF2A64006708023C8431E6
:1008D000031D6C2C8431BC2C64006708033C8431FC
:1008E000031D742C8531332D64006708043C84316A
:1008F000031D7C2C86311A2E64006708053C843168
:10090000031D842C86318F2E0230E7004F08E6004D
:100910000D30B6000030B8002030B4005430AA00CA
:10092000AB01AE01AF014C308031782043308031D3
:100930007820443080317820573080317820523010
:10094000803178202030803178203130803178201B
:100950002C30803178203130803178203030803137
:1009600078202D308031782019308031E7206400E4
:1009700084310D1BBC2CFB33640084310D1BC22C55
:100980008631572E640084318D19CA2C0130EA005B
:100990008431D32C640084310D1AD22C0230EA0049
:1009A0008431D32CE93364006A08023C8431031D8E
:1009B000DB2C8431E92C64003B3066028431031C5B
:1009C000E62CE6018331362B8431E92CE60A8331AB
:1009D000362B64006608003C8431031DF32C3B3049
:1009E000E6008331362B640002306602843103183E
:1009F000FE2CE6018331362B8531012DE603833150
:100A0000362B0330E7005C08E6000D30B6000030FE
:100A1000B8002030B4005430AA00AB01AE01AF01E1
:100A20004C30803178204330803178204430803120
:100A30007820573080317820523080317820203033
:100A4000803178203230803178202C30803178200D
:100A50003730803178202D30803178206400853126
:100A60000D1B332DFB33640085310D1B3B2D88316D
:100A7000B92082316F2A640085318D19432D0130F0
:100A8000EA0085314C2D640085310D1A4B2D023062
:100A9000EA0085314C2DE7334A08013C031DFF3045
:100AA000FF3ABC004A08033C031DFF30FF3ABE007A
:100AB0003C0884003E0881313F21BE00BF004A0847
:100AC000053C031DFF30FF3AC0003E083F04840090
:100AD000400881313F21C000C1004A08073C031D86
:100AE000FF30FF3AC20040084104840042088131CF
:100AF0003F21C200C3004A08083C031DFF30FF3AF3
:100B0000C400420843048400440881313F21C400EA
:100B1000C5004A080A3C031DFF30FF3AC6004408DE
:100B200045048400460881313F21C600C7004A08B9
:100B30000C3C031DFF30FF3AC80046084704840000
:100B4000480881313F21C800C900640048084904B1
:100B500085310319AF2D1F30D8008531B12D1E30DE
:100B6000D80064006A08023C8531031DB92D853127
:100B7000D32D01305802BC00BD010030BD3B6608DA
:100B8000A000A1013D08A3003C0881312521853149
:100B9000031DD02D0130E6008331362B8531D32D56
:100BA000E60A8331362B6400023066028531031871
:100BB000DF2D5808E6008331362B8531E22DE60320
:100BC0008331362B0430E7004A08E6000D30B600CA
:100BD0000030B8002030B4005430AA00AB01AE01A0
:100BE000AF014C3080317820433080317820443060
:100BF0008031782057308031782052308031782011
:100C00002030803178203230803178202C30803193
:100C100078203130803178203030803178202D308C
:100C20008031782019308031E720640086310D1B37
:100C30001A2EFB33640086310D1B202E8531012DC9
:100C4000640086318D19282E0130EA008631312E5C
:100C5000640086310D1A302E0230EA008631312EC2
:100C6000E93364006A08023C8631031D392E86315F
:100C7000482E64000C3066028631031C452E01307C
:100C8000E6008331362B8631482EE60A8331362B37
:100C900064000230660286310318542E0C30E600E0
:100CA0008331362B8631572EE6038331362B0530C0
:100CB000E7006808E6000D30B6000030B8002030CC
:100CC000B4005430AA00AB01AE01AF014C3080310A
:100CD000782043308031782044308031782057307C
:100CE0008031782052308031782020308031782057
:100CF0003230803178202C30803178203130803192
:100D000078203530803178202D30803178201930AE
:100D10008031E720640086310D1B8F2EFB33640089
:100D200086310D1B942E4E33640086318D199C2E16
:100D30000130EA008631A52E640086310D1AA42EFA
:100D40000230EA008631A52EEA3364006A08023CCC
:100D50008631031DAD2E8631BD2E640063306602E0
:100D60008631031CBA2EE6011E30E9008331362B92
:100D70008631BD2EE60A8331362B69081E3C031DE1
:100D8000FF30FF3ABC006608003C031DFF30FF3A0D
:100D9000BE003C0884003E0881313821BE00BF00FF
:100DA00064003E083F0486310319DC2E1430E9004C
:100DB0006330E6008331362B6400023066028631F0
:100DC0000318E72EE6018331362B8631EA2EE6033F
:100DD0008331362B0D30B6000030B8000130B4003E
:100DE0000D30B7000030B9000230B500D13080318D
:100DF000242000308031242080310B20E500803118
:100E00000B20CF0080310B20E00080310B20DD0073
:100E100080310B20DC0080310B20CA0080310B2098
:100E2000E80080310920E6006508A000A101043037
:100E300081311B21BC00BD010F30BC050030BD0558
:100E40003C08A6003D08A7000A30A200A30181319A
:100E50005B21BC002508BD000F306505BE00BF0149
:100E60003C083E07CC004C08E5004F08A000A1015B
:100E7000043081311B21BC00BD010F30BC050030A6
:100E8000BD053C08A6003D08A7000A30A200A3014A
:100E900081315B21BC002508BD000F304F05BE002D
:100EA000BF013C083E07CC004C08CF006008A00002
:100EB000A101043081311B21BC00BD010F30BC05F4
:100EC0000030BD053C08A6003D08A7000A30A2007E
:100ED000A30181315B21BC002508BD000F306005F6
:100EE000BE00BF013C083E07CC004C08E0005C0897
:100EF000A000A101043081311B21BC00BD010F30D5
:100F0000BC050030BD053C08A6003D08A7000A301E
:100F1000A200A30181315B21BC002508BD000F3078
:100F20005C05BE00BF013C083E07CC004C08DC005D
:100F30004A08A000A101043081311B21BC00BD0181
:100F40000F30BC050030BD053C08A6003D08A700D9
:100F50000A30A200A30181315B21BC002508BD003D
:100F60000F304A05BE00BF013C083E07CC004C08CC
:100F7000CA006808A000A101043081311B21BC0017
:100F8000BD010F30BC050030BD053C08A6003D0882
:100F9000A7000A30A200A30181315B21BC00250813
:100FA000BD000F306805BE00BF013C083E07CC0005
:100FB0004C08E80064004B084F028731031DE22F04
:100FC0008731E62F8A3101224F08CB000D30B60061
:100FD0000030B8002030B4005430AA00AB01AE019C
:100FE000AF014C308031782043308031782044305C
:100FF000803178205730803178205230803178200D
:101000002030803178203130803178202C30803190
:1010100078203130803178202D3080317820483070
:10102000803178206F3080317820753080317820A1
:101030007230803178203A30803178202030803111
:1010400078200230A9006008A400A5017730B00024
:10105000B1018031B9203A30803178200230A900C6
:101060004F08A400A5017730B000B1018031B9204C
:101070003A30803178200230A9006508A400A5012B
:101080007730B000B1018031B92019308031E720CC
:10109000D30A6400063053028831031CB828D301F8
:1010A0000D30B6000030B8002030B4005430AA0033
:1010B000AB01AE01AF014C3080317820433080313C
:1010C0007820443080317820573080317820523079
:1010D0008031782020308031782032308031782083
:1010E0002C30803178203130803178202D308031A3
:1010F000782044308031782061308031782074301D
:10110000803178206530803178203A308031782005
:101110002030803178200230A9005C08A400A501AD
:101120007730B000B1018031B9202E308031782085
:101130000230A9004A08A400A5017730B000B1012F
:101140008031B9202E3080317820323080317820C3
:101150003030803178200230A9006808A400A50151
:101160007730B000B1018031B92019308031E720EB
:1011700008006808A000A1010430A200A301813189
:101180004321DE00003003180130DF005F08013C1E
:10119000031DFF30FF3ABC004A08023C031DFF302C
:1011A000FF3ABE003C0884003E0881313821BE0071
:1011B000BF005C08A0001C3081312021C0003E0827
:1011C0003F048400400881313821C000C100640020
:1011D0004008410488310319F1281C30DC008931B2
:1011E0001C295F08003C031DFF30FF3ABC004A0881
:1011F000023C031DFF30FF3ABE003C0884003E085D
:1012000081313821BE00BF005C08A0001C30813154
:101210002021C0003E083F0484004008813138216D
:10122000C000C100640040084104893103191C2931
:101230001D30DC0089311C296508A000A1010130A6
:1012400081310821BC00BD013C08A0003D08A1007F
:10125000043081311421BC002108BD006508A000C4
:10126000A101003081310821BE00BF013C083E07CA
:10127000E6006608E5004F08A000A10101308131B9
:101280000821BC00BD013C08A0003D08A1000430BD
:1012900081311421BC002108BD004F08A000A1012C
:1012A000003081310821BE00BF013C083E07E60046
:1012B0006608CF006008A000A1010130813108213B
:1012C000BC00BD013C08A0003D08A10004308131F4
:1012D0001421BC002108BD006008A000A10100305D
:1012E00081310821BE00BF013C083E07E6006608C8
:1012F000E0005C08A000A101013081310821BC00A0
:10130000BD013C08A0003D08A1000430813114213A
:10131000BC002108BD005C08A000A10100308131A3
:101320000821BE00BF013C083E07E6006608DC005D
:101330004A08A000A101013081310821BC00BD0193
:101340003C08A0003D08A100043081311421BC00FC
:101350002108BD004A08A000A10100308131082108
:10136000BE00BF013C083E07E6006608CA006808E8
:10137000A000A101013081310821BC00BD013C0861
:10138000A0003D08A100043081311421BC002108D7
:10139000BD006808A000A101003081310821BE0015
:1013A000BF013C083E07E6006608E8000D30B600C5
:1013B0000030B8000130B4000D30B7000030B90083
:1013C0000230B500D130803124200030803124201B
:1013D0006508803124204F08803124206008803146
:1013E00024205D08803124205C08803124204A08B4
:1013F000803124206808803122200A308031E720A3
:1014000008003330E1008A31052A6108D4008A31AE
:1014100093220330A300E8308031E8206008E30025
:101420006008A000A1010A30A200A301813143217C
:101430002408E6006608E20066086002E600660826
:10144000E1004F08D2004F08A000A1010A30A2001D
:10145000A301813143212408E6006608D100660813
:101460004F02E6006608D00064006108003C8A3143
:10147000031D402A3530E1008A31422A8A31422A4E
:101480008A31422A6108D4008A3193220230A300B3
:10149000BC308031E82064006208003C8A31031DC2
:1014A000572A3830E2008A31592A8A31592A8A313A
:1014B000592A6208D4008A3193220230A300BC303A
:1014C0008031E82064005008003C8A31031D6E2AF8
:1014D0003530D0008A31702A8A31702A8A31702AD8
:1014E0005008D4008A3193220230A300BC308031EE
:1014F000E82064005108003C8A31031D852A3830F9
:10150000D1008A31872A8A31872A8A31872A51086D
:10151000D4008A3193220230A300BC308031E8200D
:101520003830D400080016305407BC00BD0101302B
:10153000BD3D3C08FF3CBC003D08031C013EFF3C98
:10154000BD0001303C07BA0000303D3DBB003B0808
:10155000CD003A08CE007E3080310220FF3080314D
:1015600002200630803102200F308031022000300E
:101570008031022002308031022054088031022064
:101580004D08803102204E0880310220EF3080313A
:08159000022008006300FE3395
:020000040001F9
:02000E0004C824
:02001000FCDC16
:00000001FF
