:100000000C9463000C948B000C948B000C945E0396
:100010000C945E030C945E030C948B000C948B0088
:100020000C948B000C948B000C948B000C948B0024
:100030000C948B000C948B000C948B000C948B0014
:100040000C9414030C948B000C94E2020C94BC02EC
:100050000C948B000C948B000C948B000C948B00F4
:100060000C948B000C948B000000000024002700EF
:100070002A0000000008000201000003040700003D
:1000800000000000000000000000230026002900FE
:1000900000000000250028002B00040404040404D0
:1000A0000404020202020202030303030303010227
:1000B00004081020408001020408102001020408F6
:1000C00010202204260811241FBECFEFD8E0DEBF87
:1000D000CDBF12E0A0E0B1E0E6EBF5E102C0059093
:1000E0000D92AA3BB107D9F725E0AAEBB2E001C017
:1000F0001D92A936B207E1F710E0C2E6D0E004C0D5
:100100002197FE010E94C80AC136D107C9F70E9493
:10011000CD040C94CE0A0C940000AF92BF92CF9203
:10012000DF92EF92FF920F931F93CF93DF936C01B7
:100130007B018B01040F151FEB015E01AE18BF0898
:10014000C017D10759F06991D601ED91FC9101904A
:10015000F081E02DC6010995892B79F7C501DF9162
:10016000CF911F910F91FF90EF90DF90CF90BF90B4
:10017000AF900895FC01538D448D252F30E0842FDE
:1001800090E0821B930B541710F0CF9608950197BF
:100190000895FC01918D828D981761F0A28DAE0FAC
:1001A000BF2FB11D5D968C91928D9F5F9F73928F33
:1001B00090E008958FEF9FEF0895FC01918D828D5F
:1001C000981731F0828DE80FF11D858D90E008952C
:1001D0008FEF9FEF0895FC01918D228D892F90E084
:1001E000805C9F4F821B91098F73992708958DEA38
:1001F00094E00E94EB0021E0892B09F420E0822F9B
:10020000089580E090E0892B29F00E94F700811189
:100210000C9400000895FC01A48DA80FB92FB11D06
:10022000A35ABF4F2C91848D90E001968F7399272C
:10023000848FA689B7892C93A089B1898C9183700A
:1002400080648C93938D848D981306C00288F38903
:10025000E02D80818F7D80830895EF92FF920F9330
:100260001F93CF93DF93EC0181E0888F9B8D8C8D62
:1002700098131AC0E889F989808185FF15C09FB756
:10028000F894EE89FF896083E889F9898081837019
:10029000806480839FBF81E090E0DF91CF911F91C8
:1002A0000F91FF90EF900895F62E0B8D10E00F5FE9
:1002B0001F4F0F731127E02E8C8D8E110CC00FB6BF
:1002C00007FCFACFE889F989808185FFF5CFCE0157
:1002D0000E940B01F1CFEB8DEC0FFD2FF11DE35AC6
:1002E000FF4FF0829FB7F8940B8FEA89FB898081DA
:1002F0008062CFCFCF93DF93EC01888D8823B9F054
:10030000AA89BB89E889F9898C9185FD03C0808120
:1003100086FD0DC00FB607FCF7CF8C9185FFF2CF9D
:10032000808185FFEDCFCE010E940B01E9CFDF91E7
:10033000CF910895CF93DF9390E0FC01E255FF4FFA
:10034000249186569F4FFC0184918823D1F090E040
:10035000880F991FFC01E859FF4FA591B491FC014A
:10036000E057FF4FC591D49161110EC09FB7F8942B
:100370008C91E22FE0958E238C932881E223E883F1
:100380009FBFDF91CF9108958FB7F894EC91E22B46
:10039000EC938FBFF6CF3FB7F8948091FF02909116
:1003A0000003A0910103B091020326B5A89B05C0EC
:1003B0002F3F19F00196A11DB11D3FBFBA2FA92FE4
:1003C000982F8827BC01CD01620F711D811D911DE1
:1003D00042E0660F771F881F991F4A95D1F708954D
:1003E00020910503309106032817390771F4909185
:1003F000030380910403981741F0E0910303F0E0B8
:10040000E654FD4F808190E008958FEF9FEF0895AF
:100410000895EF92FF920F931F93CF93DF93DC0128
:100420005C96ED90FC905D97E114F10479F481E025
:1004300090E013969C938E93129790E080E0DF916A
:10044000CF911F910F91FF90EF9008955196ED91EC
:10045000FC91529750968C915097982F90950FB78A
:100460005E962C915E97122F127021FD6095F89484
:100470002081112319F1282B2083E7012197F1F71F
:1004800028E0462F50E0308160FF1AC0382B3083BF
:10049000E7012197F1F7BA0175956795215089F722
:1004A000112381F08081892380830FBF5C968D9119
:1004B0009C910197F1F781E090E0C1CF2923DCCF37
:1004C0003923E5CF9081892BEFCF2091050330911F
:1004D00006032817390771F4809104032091030360
:1004E00090E0805C9F4F821B910960E470E00E9465
:1004F0007E0A089590E080E00895209105033091F0
:10050000060328173907B9F4909103038091040377
:10051000981789F0E0910303F0E0E654FD4F8081E5
:100520002091030330E02F5F3F4F2F733327209339
:10053000030390E008958FEF9FEF089590E080E02F
:100540000895FC0101900020E9F73197AF01481BA5
:10055000590BBC018AE495E00C948D00CF93DF9396
:100560000E94A102EC0184E291E00E94A1028C0FA2
:100570009D1FDF91CF9108951F920F920FB60F929A
:1005800011242F933F934F935F936F937F938F9398
:100590009F93AF93BF93EF93FF938DEA94E00E94F4
:1005A0000B01FF91EF91BF91AF919F918F917F913F
:1005B0006F915F914F913F912F910F900FBE0F90D0
:1005C0001F9018951F920F920FB60F9211242F9320
:1005D0008F939F93EF93FF93E091BD04F091BE043E
:1005E0008081E091C304F091C40482FD1BC090811E
:1005F0008091C6048F5F8F732091C704821741F0EA
:10060000E091C604F0E0E355FB4F958F8093C6045C
:10061000FF91EF919F918F912F910F900FBE0F90AF
:100620001F9018958081F4CF1F920F920FB60F92F2
:1006300011242F933F938F939F93AF93BF938091F8
:10064000FB029091FC02A091FD02B091FE0230915C
:10065000FA0223E0230F2D3758F50196A11DB11D95
:100660002093FA028093FB029093FC02A093FD0278
:10067000B093FE028091FF0290910003A0910103CC
:10068000B09102030196A11DB11D8093FF029093CA
:100690000003A0930103B0930203BF91AF919F9118
:1006A0008F913F912F910F900FBE0F901F90189533
:1006B00026E8230F0296A11DB11DD2CF1F920F92E3
:1006C0000FB60F9211242F933F934F935F936F9325
:1006D0007F938F939F93AF93BF93EF93FF93E0919B
:1006E0000503F0910603309749F0A685B785858507
:1006F000968D91FF14C09C918923A1F4FF91EF91F5
:10070000BF91AF919F918F917F916F915F914F9129
:100710003F912F910F900FBE0F901F9018959C91B5
:10072000892361F7A389B4899C9185898095892360
:100730008C93868997890197F1F7608D718DA685D5
:10074000B785558538E020E0CB010197F1F7822F7E
:1007500090E095958795282F4C91452309F02068C6
:10076000315091F7868D81FD20958091040390E0B2
:1007700001968F73992730910303381799F0A09150
:100780000403B0E0A654BD4F2C9380930403828DE4
:10079000938D0197F1F7A389B4898C919589892B61
:1007A0008C93ACCF868D8160868FF1CF90E0FC0179
:1007B000EE58FF4F2491FC01E255FF4F3491FC01AC
:1007C000E656FF4FE491EE23C9F0222339F023309F
:1007D00001F1A8F4213019F1223029F1F0E0EE0FF7
:1007E000FF1FE057FF4FA591B4918FB7F894EC919C
:1007F000611126C030953E233C938FBF089527306A
:10080000A9F02830C9F0243049F7809180008F7D0D
:1008100003C0809180008F7780938000DFCF84B504
:100820008F7784BDDBCF84B58F7DFBCF8091B00007
:100830008F778093B000D2CF8091B0008F7DF9CFB9
:100840003E2BDACF1092B0041092AF0488EE93E002
:10085000A0E0B0E08093B1049093B204A093B304FD
:10086000B093B40424E031E03093AE042093AD049F
:1008700025EC30E03093BA042093B90424EC30E046
:100880003093BC042093BB0420EC30E03093BE04D2
:100890002093BD0421EC30E03093C0042093BF04CA
:1008A00022EC30E03093C2042093C10426EC30E007
:1008B0003093C4042093C3041092C6041092C7045A
:1008C0001092C8041092C90410924D0510924C0564
:1008D00080934E0590934F05A0935005B09351051A
:1008E00086E191E090934B0580934A051092610553
:1008F00010926005109263051092620510926505D2
:100900001092640510926705109266056091680563
:100910006E7F6D7F609368056695617081E06827E2
:100920008AE00E94D60361E08AE00E949A01E8EB27
:10093000F0E0E491E0935A05E4EAF0E0E491F0E0BD
:10094000EE0FFF1FE057FF4F8591949190935C0548
:1009500080935B0560E089E00E949A0180916805C0
:1009600081FD04C061E089E00E94D60389E08093A4
:100970005605E7EBF0E0E491E0935705E3EAF0E099
:10098000E491F0E0EE0FFF1FEA57FF4F859194913D
:1009900090935905809358050895789484B58260A2
:1009A00084BD84B5816084BD85B5826085BD85B513
:1009B000816085BD80916E00816080936E00109291
:1009C000810080918100826080938100809181000C
:1009D000816080938100809180008160809380009D
:1009E0008091B10084608093B1008091B0008160FB
:1009F0008093B00080917A00846080937A00809127
:100A00007A00826080937A0080917A00816080937E
:100A10007A0080917A00806880937A001092C100F9
:100A2000109265051092640510926305109262059C
:100A300010926105109260058DE991E09093670531
:100A40008093660590915605963108F047C02DEBCE
:100A500030E030936105209360052BE931E030935D
:100A60006305209362052CE231E030936505209305
:100A700064052091680084E0983048F031E09E30B1
:100A800008F430E081E001C0880F3A95EAF7822B44
:100A9000809368002DE630E0983050F02BE630E08F
:100AA0009E3030F02CE630E0963110F030E020E05F
:100AB00030935E0520935D05292F30E0983008F0D3
:100AC00062C181E001C0880F9A95EAF780935F05C3
:100AD00080916605909167050197F1F78091640513
:100AE00090916505892B49F1E0910503F09106038A
:100AF00085E0EA34F80709F1309739F0A389B48921
:100B00009C918589809589238C93809168058E7F3F
:100B10008093680510920403109203038AE495E021
:100B20009093060380930503E0915D05F0915E05C7
:100B3000808190915F05892B808360E081E00E9435
:100B40009A011AB8389A3998409887E291E00E9441
:100B5000AE0285E591E00E94AE0282E0E82E90E1CF
:100B6000D92E26E0C22E00E010E0FF24F3948091FD
:100B7000AC0481115AC0319B58C0C091AA04D091D5
:100B8000AB04209751F40E94CB016093A6047093AC
:100B9000A7048093A8049093A90489B1811100C18E
:100BA0000E94CB016093A2047093A3048093A404D9
:100BB0009093A504C652DC4F1882E091BD04F091D9
:100BC000BE04E082E091B904F091BA041082E09191
:100BD000BB04F091BC04D0821092C504E091C10422
:100BE000F091C204C082E091BF04F091C004808102
:100BF00080618083E091BF04F091C00480818860AF
:100C00008083E091BF04F091C0048081806880837C
:100C1000E091BF04F091C00480818F7D8083F092C9
:100C2000AC04409A3199FECF40988091AC0488235F
:100C300009F4B7C18DEA94E00E94EB00181619067A
:100C40000CF0AFC18DEA94E00E94C900B82E8091EB
:100C5000D90381110CC00E94CB016093D50370931E
:100C6000D6038093D7039093D803F092D903C09111
:100C7000CF03D091D003EAE0BE1287C10E94CB011E
:100C80006093D1037093D2038093D3039093D403E2
:100C9000C95FDC4F18828090A2049090A304A090BA
:100CA000A404B090A5040091A6041091A70420917B
:100CB000A8043091A904801A910AA20AB30A0091EB
:100CC000D5031091D6032091D7033091D8036B013F
:100CD0007C01C01AD10AE20AF30A8CE691E00E9474
:100CE000AE0284E991E00E94A1024090AA045090D3
:100CF000AB04052C000C660877084AE0C301B2017A
:100D000077FE0BC08DE20E94DD0766277727CB01B7
:100D100064197509860997094AE00E94E20784E28E
:100D200091E00E94A10280EB91E00E94AE0288ED6A
:100D300091E00E94AE0287EF91E00E94A1020AEDCD
:100D400013E0D0E0C0E02091AA043091AB04C801C8
:100D50008A5D93408217930794F5F80171908F0193
:100D6000872D0E94DD072196CD32D10564F3F0E294
:100D70007F12E9CF84E291E00E94A1028CEF91E022
:100D80000E94A102DECF9E3040F42850310981E05C
:100D900001C0880F2A95EAF799CE2E503109F7CF76
:100DA000C73CD1050CF03DCF9E012F5F3F4F3093E4
:100DB000AB042093AA04C652DC4F888332CF8AEF5B
:100DC00091E00E94AE0281E092E00E94A1024AE01E
:100DD000C501B4010E94E20788E092E00E94AE02E1
:100DE00080EB91E00E94AE0286E192E00E94AE02AA
:100DF00087EF91E00E94A10207E013E0D0E0C0E09D
:100E00002091CF033091D003C801875093408217BF
:100E10009307B4F4F80171908F01872D0E94DD07CC
:100E20002196CD32D10564F3F0E27F12E9CF84E25E
:100E300091E00E94A1028CEF91E00E94A102DECF1E
:100E40008AEF91E00E94AE0281E092E00E94A1024E
:100E50004AE0C701B6010E94E20788E092E00E94E2
:100E6000AE0280EB91E00E94AE0288E792E08C1423
:100E70009D04AE04BF0420F5C701B6010E945509C8
:100E80006B017C01C501B4010E9455099B01AC01B5
:100E9000C701B6010E94B4086B017C018BE392E0AC
:100EA0000E94A102A7019601C701B6010E94790A1A
:100EB000882369F089E592E00E94A10285E692E02C
:100EC0000E94AE0282E992E00E94AE02FFCF2FEFB5
:100ED0003FEF4FE75FE7C701B6010E94790A811132
:100EE0000DC02FEF3FEF4FE75FE7C701B6010E944C
:100EF000AF0818161CF48DE592E0DECF2FEF3FEF20
:100F00004FE75FE4C701B6010E94070A18161CF4F8
:100F100081E692E0D1CF2FEF3FEF4FE75FECC701C3
:100F2000B6010E94AF0887FDF3CF2DEC3CEC4CE4FA
:100F30005DE3C701B6010E9443084B015C010E94BA
:100F400026096B017C010E9455099B01AC01C5017A
:100F5000B4010E9442084B015C014AE0C701B6019E
:100F60000E94E2078EE20E94DD0720E030E040E2CE
:100F700051E4C501B4010E940C0A0E94260990E0C8
:100F800080E04AE00E94E20799CFC73CD1054CF4CB
:100F9000CE0101969093D0038093CF03C95FDC4FBD
:100FA000B8820115110509F4E2CD0E94F7008823EB
:100FB00009F4DDCD0E940000DACD682F8AE495E0C7
:100FC0000C9409028F929F92AF92BF920F931F933E
:100FD000CF93DF93CDB7DEB7A1970FB6F894DEBFFE
:100FE0000FBECDBF19A2423008F44AE08E010F5D5A
:100FF0001F4F842E912CB12CA12CA50194010E948D
:10100000920AE62FB901CA01EA30F4F4E05DD80192
:10101000EE938D01232B242B252B79F790E080E094
:10102000109719F0CD010E94A102A1960FB6F89475
:10103000DEBF0FBECDBFDF91CF911F910F91BF904B
:10104000AF909F908F900895E95CE1CF86E191E0A9
:1010500090934B0580934A05809105039091060378
:101060008A54954071F4E0915D05F0915E059081A0
:1010700080915F05809589238083109206031092EA
:10108000050308955058BB27AA270E945A080C94BC
:10109000CD090E94BF0938F00E94C60920F039F43A
:1010A0009F3F19F426F40C94BC090EF4E095E7FB7D
:1010B0000C94B609E92F0E94DE0958F3BA176207AB
:1010C00073078407950720F079F4A6F50C94000ABD
:1010D0000EF4E0950B2EBA2FA02D0B01B901900153
:1010E0000C01CA01A0011124FF27591B99F0593F97
:1010F00050F4503E68F11A16F040A22F232F342FDF
:101100004427585FF3CF469537952795A795F0402C
:101110005395C9F77EF41F16BA0B620B730B840B41
:10112000BAF09150A1F0FF0FBB1F661F771F881FF9
:10113000C2F70EC0BA0F621F731F841F48F4879551
:1011400077956795B795F7959E3F08F0B0CF939543
:10115000880F08F09927EE0F9795879508950E94BC
:10116000920908F481E008950E94C8080C94CD0902
:101170000E94C60958F00E94BF0940F029F45F3F61
:1011800029F00C94B60951110C94010A0C94BC0975
:101190000E94DE0968F39923B1F3552391F3951B5F
:1011A000550BBB27AA2762177307840738F09F5F88
:1011B0005F4F220F331F441FAA1FA9F335D00E2EF5
:1011C0003AF0E0E832D091505040E695001CCAF762
:1011D0002BD0FE2F29D0660F771F881FBB1F261725
:1011E00037074807AB07B0E809F0BB0B802DBF01FC
:1011F000FF2793585F4F3AF09E3F510578F00C94CB
:10120000B6090C94010A5F3FE4F3983ED4F3869547
:1012100077956795B795F7959F5FC9F7880F911DEB
:101220009695879597F90895E1E0660F771F881FD7
:10123000BB1F621773078407BA0720F0621B730B8A
:10124000840BBA0BEE1F88F7E09508950E94E6091B
:1012500088F09F5798F0B92F9927B751B0F0E1F077
:10126000660F771F881F991F1AF0BA95C9F714C027
:10127000B13091F00E94000AB1E008950C94000A88
:10128000672F782F8827B85F39F0B93FCCF3869560
:1012900077956795B395D9F73EF4909580957095BD
:1012A00061957F4F8F4F9F4F0895E89409C097FB3A
:1012B0003EF490958095709561957F4F8F4F9F4F2D
:1012C0009923A9F0F92F96E9BB279395F695879571
:1012D00077956795B795F111F8CFFAF4BB0F11F434
:1012E00060FF1BC06F5F7F4F8F4F9F4F16C08823DB
:1012F00011F096E911C0772321F09EE8872F762F11
:1013000005C0662371F096E8862F70E060E02AF051
:101310009A95660F771F881FDAF7880F969587953D
:1013200097F90895990F0008550FAA0BE0E8FEEF12
:1013300016161706E807F907C0F012161306E40799
:10134000F50798F0621B730B840B950B39F40A2692
:1013500061F0232B242B252B21F408950A2609F470
:10136000A140A6958FEF811D811D089597F99F6774
:1013700080E870E060E008959FEF80EC089500241D
:101380000A941616170618060906089500240A94EA
:1013900012161306140605060895092E0394000C70
:1013A00011F4882352F0BB0F40F4BF2B11F460FFFF
:1013B00004C06F5F7F4F8F4F9F4F089557FD905828
:1013C000440F551F59F05F3F71F04795880F97FB09
:1013D000991F61F09F3F79F08795089512161306C3
:1013E0001406551FF2CF4695F1DF08C016161706F2
:1013F0001806991FF1CF8695710561050894089527
:10140000E894BB2766277727CB0197F908950E94B8
:10141000920908F48FEF08950E941F0A0C94CD09D9
:101420000E94BF0938F00E94C60920F0952311F0F0
:101430000C94B6090C94BC0911240C94010A0E9466
:10144000DE0970F3959FC1F3950F50E0551F629F21
:10145000F001729FBB27F00DB11D639FAA27F00D0D
:10146000B11DAA1F649F6627B00DA11D661F829F34
:101470002227B00DA11D621F739FB00DA11D621F19
:10148000839FA00D611D221F749F3327A00D611D36
:10149000231F849F600D211D822F762F6A2F112418
:1014A0009F5750409AF0F1F088234AF0EE0FFF1F4B
:1014B000BB1F661F771F881F91505040A9F79E3FA2
:1014C000510580F00C94B6090C94010A5F3FE4F3D7
:1014D000983ED4F3869577956795B795F795E795F8
:1014E0009F5FC1F7FE2B880F911D9695879597F901
:1014F00008950E949209880B990B089597FB072E77
:1015000016F4009407D077FD09D00E94B40A07FCB6
:1015100005D03EF4909581959F4F08957095619503
:101520007F4F0895A1E21A2EAA1BBB1BFD010DC01F
:10153000AA1FBB1FEE1FFF1FA217B307E407F50783
:1015400020F0A21BB30BE40BF50B661F771F881F5F
:10155000991F1A9469F760957095809590959B01F5
:10156000AC01BD01CF010895AA1BBB1B51E107C00F
:10157000AA1FBB1FA617B70710F0A61BB70B881F23
:10158000991F5A95A9F780959095BC01CD010895B2
:10159000EE0FFF1F0590F491E02D099410E0C2E6D4
:1015A000D0E004C0FE010E94C80A2196C336D107CC
:0615B000C9F7F894FFCF1B
:1015B600000000002D018D00BA007A01EB00C90081
:1015C600DD000000000009028D009E02080265028F
:1015D6007D02F0010D0A002D2D2D204D494B524F55
:1015E600424F54494B2048414245524C45534D4584
:1015F6002042454E43484D41524B20544553544991
:10160600202D2D2D00566572696C65722062656B02
:101616006C656E69796F722E2E2E0A003D3D3D3D3A
:101626003D3D3D3D3D3D3D3D3D20594152495320C7
:101636004249545449203D3D3D3D3D3D3D3D3D3DA6
:101646003D3D3D00416B746172696C616E20546F63
:10165600706C616D204B6172616B7465723A20002B
:101666002D2D2D2D2D2D2D2D2D2D2D2D2D2D2D2DA4
:101676002D2D2D2D2D2D2D2D2D2D2D2D2D2D2D2D94
:101686002D2D2D2D2D2D2D005B315D2050415241EC
:101696004C454C204841544C412047454C454E2032
:1016A60043554D4C453A002D3E2022002020202057
:1016B60000537572653A2000206D696B726F736115
:1016C6006E6979652E005B325D205345524920488C
:1016D60041544C412028313135323030292047459C
:1016E6004C454E2043554D4C453A004B415A414ED0
:1016F600414E3A20504152414C454C2056455249A4
:10170600594F4C5521202820006E616E00696E6687
:10171600006F766600206B617420646168612068E2
:10172600697A6C69212029004B415A414E414E3A53
:1017360020534552492048414245524C45534D4558
:1017460021003D3D3D3D3D3D3D3D3D3D3D3D3D3D1C
:101756003D3D3D3D3D3D3D3D3D3D3D3D3D3D3D3DB3
:0A1766003D3D3D3D3D3D3D3D3D0054
:00000001FF
