:100000000C9436000C945E000C945E000C945E0020
:100010000C945E000C945E000C945E000C945E00E8
:100020000C945E000C945E000C945E000C945E00D8
:100030000C945E000C945E000C945E000C945E00C8
:100040000C94E8030C945E000C94B6030C9490039B
:100050000C945E000C945E000C945E000C945E00A8
:100060000C945E000C945E003204E20711241FBE63
:10007000CFEFD8E0DEBFCDBF23E0A0EFB2E001C0FC
:100080001D92A63CB207E1F712E0A0E0B1E0E0EE7D
:10009000F4E102C005900D92A03FB107D9F710E03E
:1000A000C5E3D0E004C02197FE010E946B08C43371
:1000B000D107C9F70E946A040C94630A0C940000EB
:1000C000AF92BF92CF92DF92EF92FF920F931F9366
:1000D000CF93DF936C017B018B01040F151FEB01A4
:1000E0005E01AE18BF08C017D10759F06991D6015B
:1000F000ED91FC910190F081E02DC6010995892BCD
:1001000079F7C501DF91CF911F910F91FF90EF908B
:10011000DF90CF90BF90AF900895FC01538D448D38
:10012000252F30E0842F90E0821B930B541710F0A2
:10013000CF96089501970895FC01918D828D9817AF
:1001400061F0A28DAE0FBF2FB11D5D968C91928D87
:100150009F5F9F73928F90E008958FEF9FEF0895B8
:10016000FC01918D828D981731F0828DE80FF11D81
:10017000858D90E008958FEF9FEF0895FC01918D9C
:10018000228D892F90E0805C9F4F821B91098F7395
:100190009927089589E193E00E94BE0021E0892B10
:1001A00009F420E0822F089580E090E0892B29F067
:1001B0000E94CA0081110C9400000895FC01A48DD6
:1001C000A80FB92FB11DA35ABF4F2C91848D90E079
:1001D00001968F739927848FA689B7892C93A0895C
:1001E000B1898C91837080648C93938D848D9813E6
:1001F00006C00288F389E02D80818F7D8083089579
:10020000EF92FF920F931F93CF93DF93EC0181E066
:10021000888F9B8D8C8D98131AC0E889F98980810D
:1002200085FF15C09FB7F894EE89FF896083E88940
:10023000F98980818370806480839FBF81E090E032
:10024000DF91CF911F910F91FF90EF900895F62EBF
:100250000B8D10E00F5F1F4F0F731127E02E8C8D59
:100260008E110CC00FB607FCFACFE889F98980819E
:1002700085FFF5CFCE010E94DE00F1CFEB8DEC0FB4
:10028000FD2FF11DE35AFF4FF0829FB7F8940B8FBB
:10029000EA89FB8980818062CFCFCF93DF93EC0125
:1002A000888D8823B9F0AA89BB89E889F9898C915E
:1002B00085FD03C0808186FD0DC00FB607FCF7CF1A
:1002C0008C9185FFF2CF808185FFEDCFCE010E941A
:1002D000DE00E9CFDF91CF9108953FB7F894809188
:1002E000F5029091F602A091F702B091F80226B5BE
:1002F000A89B05C02F3F19F00196A11DB11D3FBF5E
:10030000BA2FA92F982F8827BC01CD01620F711D2C
:10031000811D911D42E0660F771F881F991F4A9526
:10032000D1F70895FC0101900020E9F73197AF0162
:10033000481B590BBC0189E193E00C9460008F923B
:100340009F92AF92BF920F931F93CF93DF93CDB73E
:10035000DEB7A1970FB6F894DEBF0FBECDBF19A2CE
:10036000423008F44AE08E010F5D1F4F842E912C1D
:10037000B12CA12CA50194010E943508E62FB901EA
:10038000CA01EA30F4F4E05DD801EE938D01232B2D
:10039000242B252B79F790E080E0109719F0CD0100
:1003A0000E949201A1960FB6F894DEBF0FBECDBF9A
:1003B000DF91CF911F910F91BF90AF909F908F9041
:1003C0000895E95CE1CFCF92DF92EF92FF92CF9355
:1003D000DF936B017C016DE289E193E00E940001F3
:1003E000EC0166277727CB016C197D098E099F09DF
:1003F0004AE00E949F018C0F9D1FDF91CF91FF90DB
:10040000EF90DF90CF900895CF93DF9397FF0CC0CC
:100410000E94E301EC0180E391E00E9492018C0FC5
:100420009D1FDF91CF9108954AE00E949F01F2CF76
:10043000CF93DF930E949201EC0180E391E00E9450
:1004400092018C0F9D1FDF91CF9108950C94920122
:10045000CF93DF93BC01990F880B990B97FF0CC0CA
:100460000E94E301EC0180E391E00E9492018C0F75
:100470009D1FDF91CF9108954AE00E949F01F2CF26
:10048000CF93DF93FC01448155816081718189E1C3
:1004900093E00E946000EC0180E391E00E949201F1
:1004A0008C0F9D1FDF91CF9108950F931F93CF93D2
:1004B000DF93EC0188819981009759F02A813B8173
:1004C0002617370730F081E0DF91CF911F910F9110
:1004D00008958B016F5F7F4F0E949609009759F036
:1004E000998388831B830A832C813D81232B59F7B1
:1004F000FC011082E8CF80E0E7CFCF93DF93EC01DF
:1005000088819981009711F00E940D091982188243
:100510001D821C821B821A82DF91CF910895EF9277
:10052000FF920F931F93CF93DF93EC0186179707EA
:1005300081F0FB01008111810115110539F0E48082
:10054000F580B7010E94550281110BC0CE010E94B7
:100550007D02CE01DF91CF911F910F91FF90EF901F
:100560000895FD82EC82B801888199810E945C0A1D
:10057000F0CFEF92FF920F931F93CF93DF93EC0195
:100580007B01198218821B821A821D821C82FB0148
:1005900001900020E9F731978F01061B170BB80176
:1005A0000E945502811109C0CE01DF91CF911F91A8
:1005B0000F91FF90EF900C947D021D830C83B70187
:1005C00088819981DF91CF911F910F91FF90EF90DA
:1005D0000C945C0AFC0180819181009711F00C94CD
:1005E0000D090895EF92FF920F931F93CF93DF931E
:1005F000CDB7DEB7AA970FB6F894DEBF0FBECDBF5A
:1006000063E371E08E010F5F1F4FC8010E94B902C2
:1006100067E371E0CE0107960E94B9026BE371E0D7
:10062000CE010D960E94B9026FE371E0CE014396B0
:100630000E94B90263E471E0CE0149960E94B902BA
:1006400067E471E0CE014F960E94B9026BE471E05D
:10065000CE0185960E94B9022091110330911203B8
:1006600021503109C90143E0880F991F4A95E1F7EC
:10067000A901481B590BCA01E0911503F09116031B
:1006800060910F03709110034E0F5F1F461B570BB5
:10069000509302034093010314161506C4F13093DE
:1006A00012032093110307968E0F9F1F861B970B33
:1006B00090930203809301038091010390910203C0
:1006C000019726E0289FB001299F700D1124600F2B
:1006D000711F86EB93E00E948F027E015BE2E50EC4
:1006E000F11C86E0E81AF108C7010E94EA020E1523
:1006F0001F05B9F7AA960FB6F894DEBF0FBECDBF9F
:10070000DF91CF911F910F91FF90EF90089510927C
:10071000FD021092FE021092FF0210920003CCCF55
:100720001F920F920FB60F9211242F933F934F9366
:100730005F936F937F938F939F93AF93BF93EF9349
:10074000FF9389E193E00E94DE00FF91EF91BF915A
:10075000AF919F918F917F916F915F914F913F9159
:100760002F910F900FBE0F901F9018951F920F9210
:100770000FB60F9211242F938F939F93EF93FF93B4
:10078000E0912903F0912A038081E0912F03F091F9
:10079000300382FD1BC09081809132038F5F8F7385
:1007A00020913303821741F0E0913203F0E0E75EDD
:1007B000FC4F958F80933203FF91EF919F918F9122
:1007C0002F910F900FBE0F901F9018958081F4CF3E
:1007D0001F920F920FB60F9211242F933F938F9376
:1007E0009F93AF93BF938091F1029091F202A091F9
:1007F000F302B091F4023091F00223E0230F2D3781
:1008000058F50196A11DB11D2093F0028093F102CD
:100810009093F202A093F302B093F4028091F50258
:100820009091F602A091F702B091F8020196A11DF5
:10083000B11D8093F5029093F602A093F702B09356
:10084000F802BF91AF919F918F913F912F910F909F
:100850000FBE0F901F90189526E8230F0296A11D3A
:10086000B11DD2CFE9E1F3E01382128288EE93E06A
:10087000A0E0B0E084839583A683B78382E291E011
:100880009183808385EC90E09587848784EC90E069
:100890009787868780EC90E0918B808B81EC90E04D
:1008A000938B828B82EC90E0958B848B86EC90E02E
:1008B000978B868B118E128E138E148E62E371E0ED
:1008C0008CEB93E00E94B90262E371E086EB93E067
:1008D0000C94B902CF93DF93CDB7DEB7C056D109E0
:1008E0000FB6F894DEBF0FBECDBF789484B582609A
:1008F00084BD84B5816084BD85B5826085BD85B5C4
:10090000816085BD80916E00816080936E00109241
:1009100081008091810082608093810080918100BC
:10092000816080938100809180008160809380004D
:100930008091B10084608093B1008091B0008160AB
:100940008093B00080917A00846080937A008091D7
:100950007A00826080937A0080917A00816080932F
:100960007A0080917A00806880937A001092C100AA
:10097000E0912903F0912A0382E08083E09125032E
:10098000F09126031082E0912703F09128038FEC69
:10099000808310923103E0912D03F0912E0386E0C5
:1009A0008083E0912B03F0912C0380818061808310
:1009B000E0912B03F0912C03808188608083E0918B
:1009C0002B03F0912C03808180688083E0912B03BE
:1009D000F0912C0380818F7D8083CE0101967C0174
:1009E00022242394312C86EE97E090931803809371
:1009F000170385E690E0909316038093150383E038
:100A000090E090931403809313038FE491E00E948D
:100A1000260280911303909114030E9428028FE014
:100A200090E09093120380931103809117039091AB
:100A300018039C0123703327232B09F09EC11092C9
:100A4000100310920F0361E671E0C7010E94B90222
:100A500065E671E0CE0107960E94B90269E671E091
:100A6000CE010D960E94B9026DE671E0CE0143966B
:100A70000E94B90261E771E0CE0149960E94B90275
:100A800065E771E0CE014F960E94B90269E771E017
:100A9000CE0185960E94B9026DE771E0CE018B967A
:100AA0000E94B90261E871E0CE01C1960E94B902CC
:100AB00065E871E0CE01C7960E94B90269E871E06D
:100AC000CE01CD960E94B9026DE871E0CE018D5B3A
:100AD0009F4F0E94B90288E1E6E0F1E0DE01A75BEA
:100AE000BF4F01900D928A95E1F780911503909187
:100AF0001603092E000CAA0BBB0B8093FD029093EA
:100B0000FE02A093FF02B093000381E991E00E94EE
:100B100026026091FD027091FE028091FF02909189
:100B200000030E94040280911503909116038097A0
:100B30000CF02FC1E1E0F0E0F0931403E093130315
:100B4000B7018CEB93E00E948F0280911303909188
:100B50001403019726E0289FB001299F700D1124EE
:100B60006E0D7F1D8CEB93E00E948F028091FD0241
:100B70009091FE0290930603809305038E01075B1C
:100B80001F4F06501109C8010E94EA02E016F10643
:100B9000C1F70E94F20282E090E090930E038093EE
:100BA0000D0383E090E090930C0380930B0383E2AA
:100BB00090E090930A038093090385E090E090937E
:100BC0000803809307038091030390910403019726
:100BD00081F40E94F20282ED91E00E94260280914F
:100BE0000303909104030E942802109204031092C0
:100BF00003038AEE91E00E942602809117039091F0
:100C000018030E9428028FE491E00E94260280913E
:100C10001303909114030E9428028CEF91E00E942C
:100C2000260280911503909116030E94280280915C
:100C3000110390911203892B09F0BBC18EE092E061
:100C40000E94260280E292E00E9426028091170311
:100C50009091180301970E9428028EE292E00E9470
:100C6000260280910F03909110030E94280280E4D5
:100C700092E00E9426028CEB93E00E94400282E503
:100C800092E00E94260280910503909106030E9443
:100C9000280284E692E00E9426028091010390914E
:100CA00002030E94280286E792E00E94260286EB59
:100CB00093E00E94400288E892E00E942602809120
:100CC0000D0390910E030E9428028AE992E00E948F
:100CD000260280910703909108030E9428028CEA63
:100CE00092E00E94260280910B0390910C030E94D7
:100CF00028028EEB92E00E942602809109039091D7
:100D00000A030E94280280ED92E00E94180282E30A
:100D100091E00E9418020E946D012B013C0188EEB7
:100D2000882E83E0982EA12CB12C0E946D016419AD
:100D3000750986099709683E734081059105A8F3F6
:100D400091E0891A9108A108B108E8EE4E0EE3E09F
:100D50005E1E611C711C81149104A104B10429F769
:100D600080E090E0892B09F43ECE0E94CA008823DF
:100D700009F439CE0E94000036CE24E030E0B901FB
:100D80000E942108281B390B3093100320930F0376
:100D90005ACEE0911303F09114033197EE0FFF1F29
:100DA00089E490E08C0F9D1FE80FF91F80819181ED
:100DB000092E000CAA0BBB0B4091FD025091FE02C4
:100DC0006091FF027091000384179507A607B7078B
:100DD0000CF0BBCED12CC12C5601E0911303F09145
:100DE00014033197EE0FFF1F89E490E08C0F9D1FD5
:100DF000E80FF91F80819181092E000CAA0BBB0B13
:100E00004091FD025091FE026091FF02709100033B
:100E100084179507A607B7070CF097CEFE01E75B8E
:100E2000FF4F4F0110E000E08091130390911403F5
:100E30008017910794F280910F0390911003892BF2
:100E400009F0A7C00130110509F0A3C02D968EADA1
:100E50009FAD2D970196092E000CAA0BBB0B80931A
:100E6000F9029093FA02A093FB02B093FC02309235
:100E70000403209203038091FD029091FE02A09151
:100E8000FF02B09100034091F9025091FA02609183
:100E9000FB027091FC02841B950BA60BB70B809391
:100EA000FD029093FE02A093FF02B09300038AEA32
:100EB00091E00E9426026091F9027091FA028091FD
:100EC000FB029091FC020E9404026091FD0270916D
:100ED000FE028091FF02909100030E94040282EBC7
:100EE00091E00E941802FFEFCF1ADF0A0F5F1F4F39
:100EF000C80101970C977CF4F40182819381092E3B
:100F0000000CAA0BBB0B8093F9029093FA02A093FA
:100F1000FB02B093FC024090FD025090FE026090F4
:100F2000FF0270900003F2E08F0E911C8091F90295
:100F30009091FA02A091FB02B091FC0284159505F4
:100F4000A605B70524F1012E000C220B330B0093EC
:100F5000F9021093FA022093FB023093FC0222E084
:100F6000A20EB11CB0921403A092130386E08C9DD4
:100F7000B0018D9D700D11246E0D7F1D8CEB93E0E3
:100F80000E948F02509206034092050325CF56011E
:100F90004BCFF40180819181092E000CAA0BBB0B71
:100FA0008093F9029093FA02A093FB02B093FC02A3
:100FB00062CF8EE092E00E94260280911103909110
:100FC000120349CE86EB93E00E94EA028CEB93E099
:100FD0000C94EA022F923F924F925F926F927F920F
:100FE0008F929F92AF92BF92CF92DF92EF92FF9239
:100FF0000F931F93CF93DF93CDB7DEB7CA1BDB0BE5
:101000000FB6F894DEBF0FBECDBF09942A88398889
:1010100048885F846E847D848C849B84AA84B98490
:10102000C884DF80EE80FD800C811B81AA81B9819C
:10103000CE0FD11D0FB6F894DEBF0FBECDBFED01B0
:10104000089597FB072E16F4009407D077FD09D07A
:101050000E94570807FC05D03EF4909581959F4F5C
:101060000895709561957F4F0895A1E21A2EAA1BED
:10107000BB1BFD010DC0AA1FBB1FEE1FFF1FA21748
:10108000B307E407F50720F0A21BB30BE40BF50B45
:10109000661F771F881F991F1A9469F760957095CE
:1010A000809590959B01AC01BD01CF010895AA1BCD
:1010B000BB1B51E107C0AA1FBB1FA617B70710F043
:1010C000A61BB70B881F991F5A95A9F78095909575
:1010D000BC01CD010895EE0FFF1F0590F491E02DA6
:1010E00009940F931F93CF93DF938230910510F4EF
:1010F00082E090E0E091C403F091C50330E020E08D
:10110000B0E0A0E0309799F42115310509F44AC008
:10111000281B390B24303105D8F58A819B81611554
:10112000710589F1FB0193838283FE0111C0408127
:1011300051810281138148175907E0F04817590778
:1011400099F4109761F012960C93129713961C93D2
:101150003296CF01DF91CF911F910F9108950093A7
:10116000C4031093C503F4CF2115310551F0421784
:10117000530738F0A901DB019A01BD01DF01F80135
:10118000C1CFEF01F9CF9093C5038093C403CDCFB6
:10119000FE01E20FF31F81939193225031093983AD
:1011A0002883D7CF2091C2033091C303232B41F46E
:1011B00020910201309103013093C3032093C203B5
:1011C00020910001309101012115310541F42DB725
:1011D0003EB74091040150910501241B350BE0916D
:1011E000C203F091C303E217F307A0F42E1B3F0BD9
:1011F0002817390778F0AC014E5F5F4F2417350789
:1012000048F04E0F5F1F5093C3034093C203819376
:1012100091939FCFF0E0E0E09CCFCF93DF930097D6
:10122000E9F0FC01329713821282A091C403B091BD
:10123000C503ED0130E020E01097A1F42081318159
:10124000820F931F2091C2033091C30328173907DF
:1012500009F061C0F093C303E093C203DF91CF9123
:101260000895EA01CE17DF07E8F54A815B819E0108
:1012700041155105B1F7E901FB83EA834991599181
:10128000C40FD51FEC17FD0761F480819181029690
:10129000840F951FE90199838883828193819B83C1
:1012A0008A83F0E0E0E012968D919C91139700976D
:1012B000B9F52D913C911197CD010296820F931FA4
:1012C0002091C2033091C3032817390739F63097AC
:1012D00051F51092C5031092C403B093C303A093B9
:1012E000C203BCCFD383C28340815181840F951F39
:1012F000C817D90761F44E5F5F4F88819981480F05
:10130000591F518340838A819B8193838283211556
:10131000310509F0B0CFF093C503E093C4039ECF2D
:10132000FD01DC01C0CF13821282D7CFB0E0A0E074
:10133000ECE9F9E00C94EC078C01009751F4CB0137
:101340000E9471088C01C801CDB7DEB7E0E10C94B2
:101350000808FC01E60FF71F9C0122503109E21733
:10136000F30708F49DC0D901CD91DC911197C61700
:10137000D70798F0C530D10530F3CE010497861712
:10138000970708F3C61BD70B2297C193D1936D9390
:101390007C93CF010E940D09D6CF5B01AC1ABD0A28
:1013A0004C018C0E9D1EA091C403B091C503512C1D
:1013B000412CF12CE12C109731F58091C2039091D2
:1013C000C3038815990509F05CC04616570608F056
:1013D00058C08091000190910101009741F48DB7B0
:1013E0009EB74091040150910501841B950BE817AD
:1013F000F90708F055C0F093C303E093C203F90165
:1014000071836083A0CF8D919C91119712966C90FF
:10141000129713967C901397A815B90559F56C018E
:1014200042E0C40ED11CCA14DB0420F1AC014A19FD
:101430005B09DA011296159780F0628273825183FC
:101440004083D9016D937C93E114F10471F0D701CD
:101450001396FC93EE93129776CF22968C0F9D1FD6
:10146000F90191838083F301EFCFF093C503E093FB
:10147000C40369CF4816590608F42C017D01D30135
:101480009ACFCB010E9471087C01009749F0AE0110
:10149000B8010E94530AC8010E940D09870153CF69
:1014A00010E000E050CFFB01DC0102C001900D9282
:1014B00041505040D8F70895FB01DC0101900D9296
:1014C0000020E1F7089510E0C5E3D0E004C0FE017C
:1014D0000E946B082196C633D107C9F7F894FFCF55
:1014E0000000C60380001F001C001F001E001F001C
:1014F0001E001F001F001E001F001E001F00000016
:101500000000000160008D004D01BE009C00B00095
:101510000D0A004D6F6E00547565005765640054E8
:10152000687500467269005361740053756E00203F
:101530004D4F4E544820202020202020203A2020AB
:10154000004A616E00466562004D61720041707232
:10155000004D6179004A756E004A756C00417567EF
:1015600000536570004F6374004E6F7600446563EE
:101570000020444159434F4E54524F4C20202020CC
:101580002020202020203A20200074656D70322019
:101590002000646179206F6620746865206D6F6E2D
:1015A0007468206973207375627472616374656412
:1015B0002E0020666C6167206B6F6E74726F6C20FA
:1015C0002020202020203A20200020594541522070
:1015D00020202020202020203A2020002044415993
:1015E000202020202020202020203A2020002057CA
:1015F00045454B2020202020202020203A2020007C
:1016000035326E64207765656B206F662000204C54
:101610004541502059454152202020203A202000A9
:10162000204D4F4E5448204E414D452020203A2019
:10163000200020444159204F46204D4F4E54482011
:101640003A20200020444159204F46205745454B21
:1016500020203A20200020444159204E414D452071
:10166000202020203A20200020484F5552202020C2
:101670002020202020203A20200020484F55522BA7
:10168000474D542B333A30303A202000204D494EFC
:10169000555445202020202020203A20200020538F
:1016A00045434F4E44202020202020203A20200077
:1016B0003D3D3D3D3D3D3D3D3D3D3D3D3D3D3D3D5A
:1016C0003D3D3D3D3D3D3D3D3D3D3D3D3D3D0000C4
:107E0000112484B714BE81FFF0D085E080938100F7
:107E100082E08093C00088E18093C10086E0809377
:107E2000C20080E18093C4008EE0C9D0259A86E02C
:107E300020E33CEF91E0309385002093840096BBD3
:107E4000B09BFECF1D9AA8958150A9F7CC24DD24C4
:107E500088248394B5E0AB2EA1E19A2EF3E0BF2EE7
:107E6000A2D0813461F49FD0082FAFD0023811F036
:107E7000013811F484E001C083E08DD089C08234E0
:107E800011F484E103C0853419F485E0A6D080C0E4
:107E9000853579F488D0E82EFF2485D0082F10E0AE
:107EA000102F00270E291F29000F111F8ED06801E7
:107EB0006FC0863521F484E090D080E0DECF843638
:107EC00009F040C070D06FD0082F6DD080E0C81688
:107ED00080E7D80618F4F601B7BEE895C0E0D1E017
:107EE00062D089930C17E1F7F0E0CF16F0E7DF06D8
:107EF00018F0F601B7BEE89568D007B600FCFDCFD4
:107F0000A601A0E0B1E02C9130E011968C91119780
:107F100090E0982F8827822B932B1296FA010C0160
:107F200087BEE89511244E5F5F4FF1E0A038BF0790
:107F300051F7F601A7BEE89507B600FCFDCF97BE46
:107F4000E89526C08437B1F42ED02DD0F82E2BD052
:107F50003CD0F601EF2C8F010F5F1F4F84911BD097
:107F6000EA94F801C1F70894C11CD11CFA94CF0C13
:107F7000D11C0EC0853739F428D08EE10CD085E9AC
:107F80000AD08FE07ACF813511F488E018D01DD067
:107F900080E101D065CF982F8091C00085FFFCCF94
:107FA0009093C60008958091C00087FFFCCF809118
:107FB000C00084FD01C0A8958091C6000895E0E648
:107FC000F0E098E1908380830895EDDF803219F02E
:107FD00088E0F5DFFFCF84E1DECF1F93182FE3DFCA
:107FE0001150E9F7F2DF1F91089580E0E8DFEE27F6
:047FF000FF270994CA
:027FFE00040479
:0400000300007E007B
:00000001FF
