:020000040000FA
:04000000B2014529DB
:08000800080023009D181D12E1
:100010001D1620002C08A0002D08A100A201A3019C
:100020006400911A222803010310A23BA33B03188A
:100030001028A03BA13B031C08002030A200033085
:10004000A3001028230019082000031442290408E3
:100050006400111E282823009A0003144229040872
:10006000A7008D138D120D1321008D138D120D130A
:10007000F0308C0520002708B2185C283A30A10027
:10008000FC30D7203330A60071201030A10068303A
:10009000D72071206430D62071202230A600712034
:1000A00028305B200C305B2001305B2006305B2069
:1000B000B21427085C283214A600321C6A288D125C
:1000C000033C031C6F286F200730A100D030D720DD
:1000D000031408003214FE3C031942298D16A60EA3
:1000E000321C32108D17F0308C0526080F398C0425
:1000F00079288D13A60E7C28321871286430D620FA
:1001000003140800B31329080319B3170530A80016
:100110002730A300103098200330A300E830982047
:10012000A30164309820A3010A30982024089F2856
:10013000A2002508A1002408A00011212008A00089
:10014000A8030319B31329080319A92828020318BF
:1001500008002008031DB313B31B0800303E3D29DF
:100160002300151413082300910A0319920A422947
:100170008901230093000430950055309600AA3081
:10018000960095149518C2281511910A0319920A20
:100190004229A301A200FF30A207031CA307031CEE
:1001A00042290330A100E730D720CB28A101A000CD
:1001B0000000023064000310A03B0301A13B0318C0
:1001C000DA280800A136A00CFF3E0318E228200818
:1001D0004229A2000130F628A2000630F628A1012B
:1001E000A301A2000430F628A2000530A8002308CD
:1001F0002102031DFD2822082002043003180130CB
:10020000031902302805031DFF3042290038031D61
:10021000FF300405031DFF3042290404031DFF3095
:100220004229A501A4011030A600210DA40DA50DA1
:100230002208A4022308A53B031823292208A407A7
:100240002308A53D0310A00DA10DA60B152920081C
:1002500042291030A800A101A001A70CA60C031C84
:1002600035292208A0072308A13DA10CA00CA50C4C
:10027000A40CA80B2D2924084229840031088A00E7
:1002800030088200200064000800230040309B00FA
:1002900024309E0090309D002100F0309900230012
:1002A0008C018D0122009E019D012400FF308D00F4
:1002B000FF308C0021009D019E01951330308C0091
:1002C00002308D002300D030910092012000803157
:1002D000B0202100A20064002208FF3C81312000F0
:1002E000031D74298F318627F4018430E90003301F
:1002F000EA0025009E012000F9309B0025000C300B
:100300009300200006309C008931C721F7012100AD
:10031000A3016400813120008C1A90298D311425AD
:100320002300CE309100920120008031B0202100C6
:10033000A20064002208003C81312000031DA62990
:100340009030F500D030F6008131AA299430F500C4
:10035000D430F6002300CF3091009201200080318C
:10036000B020F7008F3114277B0823009B0020006A
:100370007A0823009C0048309F00FE302000803126
:100380003020013080313020210091160B178B175F
:100390008B1705328B1B08002000883170288131B3
:1003A000CA21F3018131CA21FB018131CA21FA013D
:1003B0008131CA21FE30803130200130803130203F
:1003C0008131CA210A308031C9208131CA21FE30F1
:1003D00080313020C030803130202A3080313020D0
:1003E0002A30803130202A30803130202A3080314C
:1003F0003020203080313020523080313020453064
:100400008031302041308031302044308031302004
:100410005930803130202030803130202A308031F6
:1004200030202A30803130202A30803130202A306C
:10043000803130202030803130208131CA218C3110
:100440001B248131CA210C138131CA218C178131BF
:10045000CA214C308031282043308031282044305C
:1004600080312820203080312820523080312820CF
:100470008131CA21F4018131CA218631FB2E8131BB
:10048000CA217308013C031DFF30FF3AED003B0811
:100490004C3C031DFF30FF3AEF006D0884006F08ED
:1004A00081310621EF00F0003C08533C031DFF3072
:1004B000FF3AF1006F087004840071088131062151
:1004C000F100F200640071087204823103196B2A92
:1004D0008F31B427F3018131CA217308013C031D18
:1004E000FF30FF3AED003B08453C031DFF30FF3A6B
:1004F000EF006D0884006F0881310621EF00F000E5
:100500003C08523C031DFF30FF3AF1006F087004B5
:100510008400710881310621F100F2006400710845
:10052000720482310319972A8B317D23F3018131C3
:10053000CA217308013C031DFF30FF3AED003B0860
:10054000533C031DFF30FF3AEF006D0884006F0835
:1005500081310621EF00F0003C08433C031DFF30D1
:10056000FF3AF1006F0870048400710881310621A0
:10057000F100F20064007108720482310319C32A89
:100580008A31D622F3018131CA217308013C031D4F
:10059000FF30FF3AED003B08453C031DFF30FF3ABA
:1005A000EF006D0884006F0881310621EF00F00034
:1005B0003C08573C031DFF30FF3AF1006F08700400
:1005C0008400710881310621F100F2006400710895
:1005D000720482310319EF2A8931F221F30181314A
:1005E000CA217308013C031DFF30FF3AED003B08B0
:1005F000443C031DFF30FF3AEF006D0884006F0894
:1006000081310621EF00F0003C08433C031DFF3020
:10061000FF3AF1006F0870048400710881310621EF
:10062000F100F200640071087204833103191F2B7A
:10063000FE3080313020083080313020F3018131AC
:10064000CA217308013C031DFF30FF3AED003B084F
:10065000443C031DFF30FF3AEF006D0884006F0833
:1006600081310621EF00F0003C084F3C031DFF30B4
:10067000FF3AF1006F08700484007108813106218F
:10068000F100F200640071087204833103194F2BEA
:10069000FE30803130200C3080313020F301813148
:1006A000CA217308013C031DFF30FF3AED003B08EF
:1006B000443C031DFF30FF3AEF006D0884006F08D3
:1006C00081310621EF00F0003C08443C031DFF305F
:1006D000FF3AF1006F08700484007108813106212F
:1006E000F100F20064007108720483310319822B57
:1006F000FE3080313020013080313020F301643011
:100700008031D6208131CA217308013C031DFF309E
:10071000FF3AED003B08533C031DFF30FF3AEF006A
:100720006D0884006F0881310621EF00F0003C085D
:10073000523C031DFF30FF3AF1006F087004840043
:10074000710881310621F100F20064007108720421
:1007500083310319B22BFE30803130201C308031C0
:100760003020F3018131CA217308013C031DFF30A1
:10077000FF3AED003B08533C031DFF30FF3AEF000A
:100780006D0884006F0881310621EF00F0003C08FD
:100790004C3C031DFF30FF3AF1006F0870048400E9
:1007A000710881310621F100F200640071087204C1
:1007B00083310319E22BFE30803130201830803134
:1007C0003020F3018131CA217308013C031DFF3041
:1007D000FF3AED003B08433C031DFF30FF3AEF00BA
:1007E0006D0884006F0881310621EF00F0003C089D
:1007F000483C031DFF30FF3AF1006F08700484008D
:10080000710881310621F100F20064007108720460
:1008100084310319122CFE30803130200C308031AD
:100820003020F3018131CA217308013C031DFF30E0
:10083000FF3AED003B08433C031DFF30FF3AEF0059
:100840006D0884006F0881310621EF00F0003C083C
:10085000553C031DFF30FF3AF1006F08700484001F
:10086000710881310621F100F20064007108720400
:1008700084310319422CFE30803130200E3080311B
:100880003020F3018131CA217308013C031DFF3080
:10089000FF3AED003B08433C031DFF30FF3AEF00F9
:1008A0006D0884006F0881310621EF00F0003C08DC
:1008B000423C031DFF30FF3AF1006F0870048400D2
:1008C000710881310621F100F200640071087204A0
:1008D00084310319722CFE30803130200F3080318A
:1008E0003020F3018131CA217308013C031DFF3020
:1008F000FF3AED003B08433C031DFF30FF3AEF0099
:100900006D0884006F0881310621EF00F0003C087B
:10091000523C031DFF30FF3AF1006F087004840061
:10092000710881310621F100F2006400710872043F
:1009300084310319A22CFE308031302014308031F4
:100940003020F3018131CA217308013C031DFF30BF
:10095000FF3AED003B08433C031DFF30FF3AEF0038
:100960006D0884006F0881310621EF00F0003C081B
:100970004C3C031DFF30FF3AF1006F087004840007
:10098000710881310621F100F200640071087204DF
:1009900084310319D22CFE30803130201030803168
:1009A0003020F3018131CA217308013C031DFF305F
:1009B000FF3AED003B08483C031DFF30FF3AEF00D3
:1009C0006D0884006F0881310621EF00F0003C08BB
:1009D0004F3C031DFF30FF3AF1006F0870048400A4
:1009E000710881310621F100F2006400710872047F
:1009F00085310319052DFE308031302002308031E1
:100A00003020F30102308031C9208131CA217308BE
:100A1000013C031DFF30FF3AED003B08523C031D33
:100A2000FF30FF3AEF006D0884006F088131062126
:100A3000EF00F0003C08433C031DFF30FF3AF1009B
:100A40006F0870048400710881310621F100F20002
:100A500064007108720485310319332D8731C92769
:100A600089315021F3018131CA217308013C031DF2
:100A7000FF30FF3AED003B08423C031DFF30FF3AD8
:100A8000EF006D0884006F0881310621EF00F0004F
:100A90003C084F3C031DFF30FF3AF1006F08700423
:100AA0008400710881310621F100F20064007108B0
:100AB0007204853103196B2D8131CA212100013067
:100AC000A00020008131CA218931A9218131CA21A8
:100AD000F3018131CA218131CA217308013C031D10
:100AE000FF30FF3AED003B08423C031DFF30FF3A68
:100AF000EF006D0884006F0881310621EF00F000DF
:100B00003C08433C031DFF30FF3AF1006F087004BE
:100B10008400710881310621F100F200640071083F
:100B2000720485310319B32D8131CA216908EB00A4
:100B30006A08EC008131CA21E901EA018131CA2148
:100B400021000130A00020008131CA218931A92172
:100B50008131CA216B08E9006C08EA008131CA21A1
:100B6000F3018131CA218131CA217308013C031D7F
:100B7000FF30FF3AED003B08423C031DFF30FF3AD7
:100B8000EF006D0884006F0881310621EF00F0004E
:100B90003C084C3C031DFF30FF3AF1006F08700425
:100BA0008400710881310621F100F20064007108AF
:100BB000720485310319E22D2100A0012000893142
:100BC000A921F3018131CA217308013C031DFF30C3
:100BD000FF3AED003B084E3C031DFF30FF3AEF00AB
:100BE0006D0884006F0881310621EF00F0003C0899
:100BF000433C031DFF30FF3AF1006F08700484008E
:100C0000710881310621F100F2006400710872045C
:100C100086310319192E8131CA218831342081315E
:100C2000CA2101308031C9208131CA21F3018131CB
:100C3000CA218131CA217308013C031DFF30FF3AEC
:100C4000ED003B08573C031DFF30FF3AEF006D08F5
:100C500084006F0881310621EF00F0003C08523C0F
:100C6000031DFF30FF3AF1006F0870048400710823
:100C700081310621F100F2006400710872048631AE
:100C800003194C2E8131CA210130FB008131CA2168
:100C90008731C9278131CA218131CA217308013CBA
:100CA000031DFF30FF3AED007B08013C031DFF30C0
:100CB000FF3AEF006D0884006F0881310621EF00D4
:100CC000F00064006F08700486310319BD2E813175
:100CD000CA218831FF208131CA2164002A307A027A
:100CE0008631031C7D2EFE3080313020210021080A
:100CF0002000803130208631BD2E8131CA217C0810
:100D00002100A00020007C087A07ED00EE01EE0D26
:100D1000210020082000A000A1016E08A3006D089A
:100D20008031E9208631031DB02E8131CA2128305F
:100D30008031D6208131CA21210020083A3E84002A
:100D400000308501853D00082000ED006D088031F0
:100D500030208131CA212100A00A2000031DD33395
:100D60008131CA2128308031D6208131CA21F30156
:100D70008131CA21FB018131CA218131CA21F401AB
:100D80008131CA21873148278131CA21640021007D
:100D90002208013C86312000031DE12EF801F301F9
:100DA0000C178C174C30803128204330803128209C
:100DB0004430803128202030803128204830803154
:100DC00028208131CA2164007808013C8631031D46
:100DD000FB2E0C138C17F8014C3080312820433047
:100DE0008031282044308031282020308031282054
:100DF0005230803128208131CA217308003C031D04
:100E0000FF30FF3AED007408013C031DFF30FF3A4C
:100E1000EF006D0884006F0881310621EF00F000BB
:100E200064006F08700487310319282F0C178C1386
:100E3000F4014C3080312820433080312820443068
:100E400080312820203080312820503080312820E7
:100E50008131CA217308013C031DFF30FF3AED00C8
:100E60007408013C031DFF30FF3AEF006D08840059
:100E70006F0881310621EF00F00064006F087004F4
:100E800087310319452F82313F2A8131CA21B3337B
:100E90008131CA212100FF308C0020008131CA211C
:100EA00000308D1A0130FF008131CA2100300D1B46
:100EB00001302100A00020008131CA218D12813132
:100EC000CA210D178131CA210A308031D6208131E3
:100ED000CA218D178131CA21EB01EC018131CA2170
:100EE0002100A20120008131CA21640087318C19C0
:100EF0007E2F2100A201200087319A2F8131CA2143
:100F0000EB0A0319EC0A8131CA216B08A0006C08B6
:100F1000A1000330A300E8308031EC208731031DAD
:100F2000972F21000130A200200087319A2F8131B4
:100F3000CA21D9338131CA218D138131CA210A30A6
:100F40008031D6208131CA218D178131CA210A30E2
:100F50008031D6208131CA218D138131CA210A30D6
:100F60008031D6208131CA217F188D167F1C8D12C9
:100F70008131CA212100200C200003180D17031C09
:100F80000D138131CA2121008C0120008131CA2139
:100F900009008131CA2130303E02F9008131CA2175
:100FA000640041082D3C8731031DDF2F8131CA21A8
:100FB00030304002FD008131CA218831052881315D
:100FC000CA2130304002FF008131CA213030410255
:100FD0002100A10020008131CA217F08A600A701BD
:100FE0000A30A200A30181312921ED002508EE007D
:100FF0006D0821002107A20020008131CA212100B3
:1010000022082000FD008131CA218131CA2121003E
:1010100020082000FA008131CA210230FA02813111
:10102000CA21640041082D3C8831031D23288131E9
:10103000CA210730FA028131CA210830FC0081310F
:10104000CA2188312D288131CA210830FA02813124
:10105000CA210930FC008131CA218131CA21013005
:10106000FB008131CA2109008131CA2130303E02A2
:10107000F9008131CA217908A600A7010830A20031
:10108000A30181312921ED002508EE0040306D07D4
:101090002100A20020008131CA21FE3080313020A1
:1010A000210022082000803130204008803130208B
:1010B000410880313020420880313020430880319F
:1010C00030204408803130204508803130204608E7
:1010D000803130204708803130208131CA21090019
:1010E0008B130C138C130530AC00AD01803105203F
:1010F0008831031CEB284C3C031DF833803105205C
:101100008831031CEB28433C031DF033803105205C
:101110008831031CEB28443C031DE8338031052053
:101120008831031CEB28BB0021000230A000200006
:101130006400333021002002883120000318E928A0
:101140000530AC00AD01803105208831031CE92851
:10115000ED00EE01210020083A3E840000308501B8
:10116000853D20006D088000210020083A3E840063
:1011700000308501853D00082000ED006D080D3C24
:10118000031DFF30FF3AED00210020083A3E8400A5
:1011900000308501853D00082000EF006F080A3C03
:1011A000031DFF30FF3AEF006D0884006F088131A6
:1011B0000D21EF00F00064006F08700488310319FE
:1011C000E4282100A00320002100A00A2000031D24
:1011D000AF330130F3000130F40023001908200080
:1011E000FF008B170130FA000130F8000800813150
:1011F000CA2164308031D6208131CA210800813172
:10120000CA2164007908013C8931031D102980300E
:101210007D07ED00EE01EE0D6D032100A100200021
:101220008131CA2164007908023C8931031D2129DA
:10123000C0307D07ED00EE01EE0D6D032100A10031
:1012400020008131CA2164007908033C8931031DE3
:10125000322975087D07ED00EE01EE0D6D032100CA
:10126000A10020008131CA2164007908043C893141
:10127000031D432976087D07ED00EE01EE0D6D0399
:101280002100A10020008131CA21FE3080313020B0
:10129000210021082000803130208131CA2108003E
:1012A0008831FF2021003F308C0020008831F7205A
:1012B0008D160D178831F7208D178831F7200C080F
:1012C000FF008D138831F7208D178831F7200C0827
:1012D0002100A00020008D130F30FF050F302100EA
:1012E000A0052000FF0E210020082000FF074C3041
:1012F000803128204330803128204430803128201C
:101300002030803128204330803128200230A9004D
:101310007D08A400A5012730B000B10180318220F2
:101320002030803128207F088031282020308031F3
:10133000282001308031C920210030308C0020006D
:101340000D138D138D121E308031C9208131CA21B9
:1013500009008131CA21640021002008013C893143
:101360002000031DB5298931C7298131CA213030B8
:101370003E02F9008131CA217908A600A701643034
:10138000A200A30181312921E9002508EA00813169
:10139000CA21003069180130250009181316091CEC
:1013A000131220008131CA210030E91801302500D4
:1013B00009189316091C931220008131CA2169086B
:1013C000A0006A08A10002308031E42025009100CD
:1013D00020008131CA2125000C309300200081318A
:1013E000CA2109008131CA2130303E02F900813121
:1013F000CA2164003F082D3C8A31031D132A813124
:10140000CA217908A600A7010830A200A3018131F2
:1014100029212100A20020008131CA21FF01813150
:10142000CA218A313F2A8131CA2130303F0221004E
:10143000A10020008131CA217908A600A7010A3045
:10144000A200A30181312921ED002508EE00210031
:1014500021082000ED070318EE0A6D08A6006E08AB
:10146000A7000830A200A301813129212100A20098
:1014700020008131CA210130FF008131CA21813130
:10148000CA216400B930210022028A3120000318E9
:10149000D32A8131CA212100220823009100920120
:1014A000063020007F07ED00EE01EE0D6D083A3E9C
:1014B000840000306E3D85000008ED006D0880312D
:1014C000B92007307F07ED00EE01EE0D6D083A3EC2
:1014D000840000306E3D85000008ED006D0880310D
:1014E000B92008307F07ED00EE01EE0D6D083A3EA1
:1014F000840000306E3D85000008ED006D088031ED
:10150000B92009307F07ED00EE01EE0D6D083A3E7F
:10151000840000306E3D85000008ED006D088031CC
:10152000B9200A307F07ED00EE01EE0D6D083A3E5E
:10153000840000306E3D85000008ED006D088031AC
:10154000B9200B307F07ED00EE01EE0D6D083A3E3D
:10155000840000306E3D85000008ED006D0880318C
:10156000B9200C307F07ED00EE01EE0D6D083A3E1C
:10157000840000306E3D85000008ED006D0880316C
:10158000B9200D307F07ED00EE01EE0D6D083A3EFB
:10159000840000306E3D85000008ED006D0880314C
:1015A000B9208131CA218131CA2109008131CA2182
:1015B00030303E02FB008131CA21640041082D3CDD
:1015C0008A31031DF92A8131CA217B08A600A701AF
:1015D0000830A200A301813129212100A2002000AE
:1015E0008131CA2130304002FA008131CA218B3169
:1015F0002A2B8131CA2130303F022100A100200076
:101600008131CA217B08A600A7010A30A200A301EC
:1016100081312921ED002508EE002100210820005C
:10162000ED070318EE0A6D08A6006E08A700083043
:10163000A200A301813129212100A20020008131D3
:10164000CA210130FF008131CA2130304102FA0045
:101650008131CA218131CA217A08A600A701083048
:10166000A200A30181312921ED002508EE004030C0
:101670006D07FA008131CA21210022082300910060
:10168000920120008031B020C0008031B020C10024
:101690008031B020C2008031B020C3008031B02042
:1016A000C4008031B020C5008031B020C600803138
:1016B000B020C7008131CA21FE30803130207A0845
:1016C0008031302040088031302041088031302086
:1016D0004208803130204308803130204408803176
:1016E00030204508803130204608803130204708BE
:1016F000803130208131CA2109008131CA21FF01A6
:10170000640018307F028C310318182C8131CA21F3
:101710007F08A600A7010830A200A301813129217A
:101720002100A20020008131CA21210022082300CB
:101730009100920120008031B020C0008031B020A3
:10174000C1008031B020C2008031B020C3008031A0
:10175000B020C4008031B020C5008031B020C60068
:101760008031B020C7008131CA21FE308031302065
:1017700040308031302040088031302041088031B5
:101780003020420880313020430880313020440826
:1017900080313020450880313020460880313020AB
:1017A0004708803130208131CA21FE30803130201D
:1017B00080308031302045308031302050308031D1
:1017C00030205230803130204F30803130204D3049
:1017D000803130202030803130200230A9007F0855
:1017E000A400A5012F30B000B101803182202E303D
:1017F00080313020433080313020483080313020FB
:1018000041308031302052308031302020308031E2
:1018100030200030803130208131CA210330A300D4
:10182000E8308031CA208131CA21FF0A031D6833A4
:101830008131CA2109008131CA2164007708003C46
:101840008C31031D442CFE308031302080308031BB
:101850003020323080313020343080313020303010
:10186000803130203030803130204E308031302097
:10187000383080313020313080313020203080319C
:1018800030202030803130208131CA216400770837
:10189000013C8C31031D6D2CFE30803130208030B6
:1018A0008031302039308031302036308031302066
:1018B0003030803130203030803130204E30803137
:1018C00030203830803130203130803130202030AD
:1018D000803130202030803130208131CA216400B5
:1018E0007708023C8C31031D962CFE30803130206D
:1018F00080308031302031308031302039308031BB
:101900003020323080313020303080313020303063
:10191000803130204E3080313020383080313020DE
:101920003130803130202030803130208131CA2167
:1019300064007708033C8C31031DBF2CFE308031DE
:1019400030208030803130203330803130203830CA
:1019500080313020343080313020303080313020C0
:101960003030803130204E3080313020383080317E
:1019700030203130803130202030803130208131B2
:10198000CA2164007708043C8C31031DE82CFE302A
:10199000803130208030803130203530803130202F
:1019A0003730803130203630803130203030803157
:1019B00030203030803130204E308031302038308F
:1019C0008031302031308031302020308031302063
:1019D0008131CA2164007708053C8D31031D112D2A
:1019E000FE30803130208030803130203130803105
:1019F000302031308031302035308031302032306D
:101A00008031302030308031302030308031302013
:101A10004E308031302038308031302031308031CC
:101A200030208131CA2108008131CA2164008D3102
:101A30008C1A1D2D8131CA21F9338131CA216400EC
:101A400021002308003C8D312000031D9D2D813194
:101A5000CA218C311B248131CA2103010C1EFF30A5
:101A6000ED007708A00005308031EF20EF006D0811
:101A700084006F0881310621EF00F00064006F08D8
:101A800070048D3103194D2D8131CA21F70A81313E
:101A9000CA218F310A278131CA218131CA2103012C
:101AA0000C1EFF30ED007708053C031DFF30FF3AA8
:101AB000EF006D0884006F0881310621EF00F0000F
:101AC00064006F0870048D3103196F2D8131CA21B4
:101AD000F7018131CA218F310A278131CA21813131
:101AE000CA2103018C1EFF30ED0021002308003CB9
:101AF000031DFF30FF3A2000EF006D0884006F08DF
:101B000081310621EF00F00064006F0870048D3110
:101B100003199B2D8131CA2121000130A30020002F
:101B20008131CA212100A20120008131CA218F31D7
:101B30000A278131CA218131CA218131CA21640039
:101B400021002308003C8D312000031DA82D753392
:101B50008131CA21640021002308013C8E3120001C
:101B6000031D842E8131CA21640021002208003C1B
:101B70008D312000031DE02DFE308031302080307B
:101B8000803130203130803130203630803130208B
:101B90007830803130203430803130202030803136
:101BA00030204C3080313020433080313020443080
:101BB0008031302020308031302020308031302082
:101BC0008131CA21640021002208013C8E312000AD
:101BD000031D0E2EFE3080313020803080313020C9
:101BE0004F308031302054308031302048308031C7
:101BF000302045308031302052308031302020304C
:101C0000803130204C3080313020433080313020E2
:101C10004430803130202030803130208131CA2161
:101C200003010C1EFF30ED0021002208003C031DC3
:101C3000FF30FF3A2000EF006D0884006F0881310B
:101C40000621EF00F00064006F0870048E31031964
:101C5000352E8131CA2121000130A20020008131BE
:101C6000CA218F310A278131CA218131CA2103015A
:101C70000C1EFF30ED0021002208013C031DFF3047
:101C8000FF3A2000EF006D0884006F0881310621C3
:101C9000EF00F00064006F0870048E3103195B2EB2
:101CA0008131CA212100A20120008131CA218F3156
:101CB0000A278131CA218131CA2103018C1EFF30DC
:101CC000ED0021002308013C031DFF30FF3A2000F6
:101CD000EF006D0884006F0881310621EF00F000ED
:101CE00064006F0870048E310319822E8131CA217D
:101CF00021000230A30020008131CA218F310A2740
:101D00008131CA218131CA218131CA216400210077
:101D10002308013C8E312000031D8F2E19338131A1
:101D2000CA21640021002308023C8E312000031DDB
:101D3000FB2E8131CA21FE3080313020803080314D
:101D400030204530803130204E30803130205430CA
:101D50008031302045308031302052308031302089
:101D60002030803130204330803130204830803185
:101D700030202030803130204230803130205530CA
:101D80008031302054308031302054308031302048
:101D90004F30803130204E30803130202030803143
:101DA00030208131CA2164008E310C1AD92E8F3136
:101DB0004F2F8131CA2103018C1EFF30ED0021001D
:101DC0002308023C031DFF30FF3A2000EF006D089E
:101DD00084006F0881310621EF00F00064006F0875
:101DE00070048E310319F92E2100A30120008F31D8
:101DF0000A278131CA218131CA21640021002308C8
:101E0000023C8F312000031D062F89338131CA2106
:101E10008D311D2D8131CA210130A300F430803174
:101E2000CA208131CA2108008131CA217708A60061
:101E3000A7010230A200A30181312921ED0025086C
:101E4000EE00D0306D072100A20020008131CA21B0
:101E50002100220AA10020008131CA21210022088C
:101E600023009100920120008031B020FB008131DD
:101E7000CA21210021082300910092012000803115
:101E8000B020FA008131CA212300CF3091009201A5
:101E9000200077088031B9208131CA2109008131C1
:101EA000CA212300CE309100920121002208200097
:101EB0008031B9208131CA218F3114278131CA2163
:101EC00064308031C9208131CA21FE308031302018
:101ED0008030803130205030803130204F308031A0
:101EE0003020573080313020453080313020523022
:101EF000803130204F3080313020463080313020EA
:101F00004630803130208131CA21FD338131CA21F0
:101F10002300D03091009201043020008031B9209C
:101F20000D308031B92040308031B920033080310C
:101F3000B920A0308031B92001308031B920CF30B4
:101F40008031B92000308031B9208A308031B92009
:101F500000308031B92044308031B92000308031E8
:101F6000B9208131CA2109008131CA2130303E02B5
:101F7000ED00EE010030EE3BA001A1016E08A300D0
:101F80006D088031F4208F31031DD22F2300CE3015
:101F900091009201003020008031B9209030F5008E
:101FA000D030F6008131CA2130303E02ED00EE0122
:101FB0000030EE3B0130A000A1016E08A3006D08C7
:101FC0008031F4208F31031DF12F2300CE3091009A
:101FD0009201013020008031B9209430F500D430D6
:101FE000F6008131CA2101308031C9208131CA21F6
:0A1FF00009008131CA216300FE33AD
:020000040001F9
:02000E0004C824
:02001000FCDC16
:00000001FF
