:100000000C9463000C948B000C948B000C948A0568
:100010000C948A050C948A050C948B000C948B002C
:100020000C948B000C948B000C948B000C948B0024
:100030000C948B000C948B000C948B000C948B0014
:100040000C9440050C948B000C940E050C94E80461
:100050000C948B000C948B000C948B000C948B00F4
:100060000C948B000C948B0000000008000201002F
:100070000003040700000000000000000000000072
:1000800023002600290000000000240027002A0089
:1000900000000000250028002B00040404040404D0
:1000A0000404020202020202030303030303010227
:1000B00004081020408001020408102001020408F6
:1000C00010204E06FB0B11241FBECFEFD8E0DEBF81
:1000D000CDBF24E0A0EFB2E001C01D92A131B20774
:1000E000E1F712E0A0E0B1E0EEECFDE102C0059026
:1000F0000D92A03FB107D9F710E0C2E6D0E004C0EE
:100100002197FE010E94D90CC136D107C9F70E9480
:1001100048070C94DA0E0C940000DB0114964D9104
:100120005C9115976D917C91DC01ED91FC910280C1
:10013000F381E02D0994AF92BF92CF92DF92EF92BC
:10014000FF920F931F93CF93DF936C017B018B0181
:10015000040F151FEB015E01AE18BF08C017D107D1
:1001600059F06991D601ED91FC910190F081E02D5B
:10017000C6010995892B79F7C501DF91CF911F91B0
:100180000F91FF90EF90DF90CF90BF90AF900895C8
:10019000FC01538D448D252F30E0842F90E0821B8D
:1001A000930B541710F0CF96089501970895FC0112
:1001B000918D828D981761F0A28DAE0FBF2FB11D6A
:1001C0005D968C91928D9F5F9F73928F90E00895C2
:1001D0008FEF9FEF0895FC01918D828D981731F07C
:1001E000828DE80FF11D858D90E008958FEF9FEFD0
:1001F0000895FC01918D228D892F90E0805C9F4FA6
:10020000821B91098F73992708958FE393E00E94D1
:10021000F90021E0892B09F420E0822F089580E085
:1002200090E0892B29F00E94050181110C940000B7
:100230000895FC01A48DA80FB92FB11DA35ABF4F7B
:100240002C91848D90E001968F739927848FA689D5
:10025000B7892C93A089B1898C91837080648C9329
:10026000938D848D981306C00288F389E02D8081D8
:100270008F7D80830895EF92FF920F931F93CF930A
:10028000DF93EC0181E0888F9B8D8C8D98131AC0D1
:10029000E889F989808185FF15C09FB7F894EE89B8
:1002A000FF896083E889F989808183708064808315
:1002B0009FBF81E090E0DF91CF911F910F91FF9060
:1002C000EF900895F62E0B8D10E00F5F1F4F0F7308
:1002D0001127E02E8C8D8E110CC00FB607FCFACFC3
:1002E000E889F989808185FFF5CFCE010E94190147
:1002F000F1CFEB8DEC0FFD2FF11DE35AFF4FF08294
:100300009FB7F8940B8FEA89FB8980818062CFCFF9
:10031000CF93DF93EC01888D8823B9F0AA89BB893C
:10032000E889F9898C9185FD03C0808186FD0DC027
:100330000FB607FCF7CF8C9185FFF2CF808185FF48
:10034000EDCFCE010E941901E9CFDF91CF91089541
:100350003FB7F8948091350390913603A09137030D
:10036000B091380326B5A89B05C02F3F19F0019620
:10037000A11DB11D3FBFBA2FA92F982F8827BC01FF
:10038000CD01620F711D811D911D42E0660F771F27
:10039000881F991F4A95D1F708958F929F92AF9227
:1003A000BF92CF92DF92EF92FF924B015C010E94CD
:1003B000A8016B017C010E94A8016C197D098E09BE
:1003C0009F09683E734081059105A8F321E0821AD8
:1003D0009108A108B10888EEC80E83E0D81EE11C80
:1003E000F11C81149104A104B10429F7FF90EF904E
:1003F000DF90CF90BF90AF909F908F900895209105
:100400003B0330913C032817390771F4909139036D
:1004100080913A03981741F0E0913903F0E0E05100
:10042000FD4F808190E008958FEF9FEF089508952C
:10043000EF92FF920F931F93CF93DF93DC015C96B3
:10044000ED90FC905D97E114F10479F481E090E087
:1004500013969C938E93129790E080E0DF91CF915A
:100460001F910F91FF90EF9008955196ED91FC919F
:10047000529750968C915097982F90950FB75E9603
:100480002C915E97122F127021FD6095F8942081B7
:10049000112319F1282B2083E7012197F1F728E098
:1004A000462F50E0308160FF1AC0382B3083E701BF
:1004B0002197F1F7BA0175956795215089F71123B6
:1004C00081F08081892380830FBF5C968D919C9100
:1004D0000197F1F781E090E0C1CF2923DCCF3923E8
:1004E000E5CF9081892BEFCF20913B0330913C03E6
:1004F0002817390771F480913A032091390390E06D
:10050000805C9F4F821B910960E470E00E948F0C19
:10051000089590E080E0089520913B0330913C03E2
:1005200028173907B9F49091390380913A03981745
:1005300089F0E0913903F0E0E051FD4F8081209196
:10054000390330E02F5F3F4F2F7333272093390358
:1005500090E008958FEF9FEF089590E080E0089578
:10056000FB0101900020E9F73197AF01461B570BC3
:10057000DC01ED91FC910280F381E02D0994CF9391
:10058000DF936CED73E08FE393E00E948D00EC014C
:100590006AE271E08FE393E00E94B0028C0F9D1F2E
:1005A000DF91CF9108958F929F92AF92BF920F9358
:1005B0001F93CF93DF93CDB7DEB7A1970FB6F89413
:1005C000DEBF0FBECDBF19A2423008F44AE08E0153
:1005D0000F5D1F4F842E912CB12CA12CA5019401ED
:1005E0000E94A30CE62FB901CA01EA3004F5E05DD0
:1005F000D801EE938D01232B242B252B79F790E046
:1006000080E0109729F0BD018EEE93E00E94B002C9
:10061000A1960FB6F894DEBF0FBECDBFDF91CF918C
:100620001F910F91BF90AF909F908F900895E95CBC
:10063000DFCF0F931F93CF93DF93EC0188819981D4
:10064000009759F02A813B812617370730F081E067
:10065000DF91CF911F910F9108958B016F5F7F4FB5
:100660000E94040E009759F0998388831B830A83A4
:100670002C813D81232B59F7FC011082E8CF80E0CB
:10068000E7CFEF92FF920F931F93CF93DF93611504
:10069000710541F480E0DF91CF911F910F91FF90A0
:1006A000EF90089541155105B1F07B01EC010C81EB
:1006B0001D81040F151FB8010E941903882351F3EF
:1006C000288139818C819D81B701820F931F0E94FF
:1006D000D30E1D830C8381E0DECFCF93DF93EC013B
:1006E00088819981009711F00E947B0D19821882F0
:1006F0001D821C821B821A82DF91CF910895CF93B5
:10070000DF93EC0145E050E06DE271E00E944103AF
:10071000811103C0CE010E946D03CE01DF91CF9104
:100720000895CF93DF93EC014091E6035091E703E6
:100730006091E2037091E3030E944103811103C0C1
:10074000CE010E946D03CE01DF91CF910895EF920B
:10075000FF920F931F93CF93DF93CDB7DEB7289708
:100760000FB6F894DEBF0FBECDBF7C01CB014AE0CF
:100770008E010F5F1F4FB8010E94230CF8010190FA
:100780000020E9F73197AF01401B510BB801C701B9
:100790000E944103811103C0C7010E946D03C7017C
:1007A00028960FB6F894DEBF0FBECDBFDF91CF9174
:1007B0001F910F91FF90EF900895EF92FF920F938A
:1007C0001F93CF93DF93EC017B018A01BA010E9452
:1007D000190381110BC0CE010E946D03CE01DF9180
:1007E000CF911F910F91FF90EF9008951D830C837F
:1007F000B701888199810E94D30EF0CF23E0883E13
:10080000920761F0FC01608171816115710549F009
:100810004481558188EE93E00E94DD0388EE93E0E9
:10082000089588EE93E00E946D03F8CFFB010190DC
:100830000020E9F73197AF01461B570B0C94DD03FD
:10084000FC01118210821382128215821482FB0134
:1008500001900020E9F73197AF01461B570B0C942C
:10086000DD03FC0180819181009711F00C947B0DD8
:100870000895CF93DF9300D0CDB7DEB768EE73E075
:100880008EEE93E00E948D008EEE93E00E94740243
:10089000892B99F40E94BF0264E670E080E090E04A
:1008A0000E94CD016CE271E08CED93E00E94160491
:1008B0000F900F90DF91CF91089565E070E080E098
:1008C00090E00E94CD018EEE93E00E948C0289831D
:1008D0001A8241E050E0BE016F5F7F4F8CED93E0E4
:1008E0000E9441038091E0039091E103892B61F222
:1008F00063E371E08091DC039091DD030E94CA0EF6
:10090000892B11F6C7CF0F931F93CF93DF9300D09E
:10091000CDB7DEB76CE271E08CED93E00E94160477
:100920008EEE93E00E947402892B41F165E070E045
:1009300080E090E00E94CD018EEE93E00E948C0258
:1009400089831A8241E050E0BE016F5F7F4F8CEDDA
:1009500093E00E9441038091E0039091E103892B91
:10096000F9F20091DC031091DD0363E371E0C8014B
:100970000E94CA0E892B89F40E94BF020E94BF0206
:1009800064E670E080E090E00E94CD010F900F904F
:10099000DF91CF911F910F91089569E371E0C80134
:1009A0000E94CA0E892B09F0BBCF6CED73E08FE378
:1009B00093E00E948D006FE371E08FE393E00E946B
:1009C000B0026AE271E08FE393E00E94B002D6CFFA
:1009D0001F920F920FB60F9211242F933F934F93B4
:1009E0005F936F937F938F939F93AF93BF93EF9397
:1009F000FF938FE393E00E941901FF91EF91BF9164
:100A0000AF919F918F917F916F915F914F913F91A6
:100A10002F910F900FBE0F901F9018951F920F925D
:100A20000FB60F9211242F938F939F93EF93FF9301
:100A3000E0914F03F09150038081E0915503F091D4
:100A4000560382FD1BC09081809158038F5F8F7386
:100A500020915903821741F0E0915803F0E0E15CE6
:100A6000FC4F958F80935803FF91EF919F918F9149
:100A70002F910F900FBE0F901F9018958081F4CF8B
:100A80001F920F920FB60F9211242F933F938F93C3
:100A90009F93AF93BF938091310390913203A091C4
:100AA0003303B09134033091300323E0230F2D370B
:100AB00058F50196A11DB11D209330038093310399
:100AC00090933203A0933303B093340380913503A2
:100AD00090913603A0913703B09138030196A11D80
:100AE000B11D8093350390933603A0933703B093E1
:100AF0003803BF91AF919F918F913F912F910F90AC
:100B00000FBE0F901F90189526E8230F0296A11D87
:100B1000B11DD2CF1F920F920FB60F9211242F93B7
:100B20003F934F935F936F937F938F939F93AF9375
:100B3000BF93EF93FF93E0913B03F0913C03309719
:100B400049F0A685B7858585968D91FF14C09C9147
:100B50008923A1F4FF91EF91BF91AF919F918F9164
:100B60007F916F915F914F913F912F910F900FBEA9
:100B70000F901F9018959C91892361F7A389B489E0
:100B80009C918589809589238C9386899789019783
:100B9000F1F7608D718DA685B785558538E020E029
:100BA000CB010197F1F7822F90E095958795282F3B
:100BB0004C91452309F02068315091F7868D81FDD5
:100BC000209580913A0390E001968F739927309198
:100BD0003903381799F0A0913A03B0E0A051BD4F06
:100BE0002C9380933A03828D938D0197F1F7A3891B
:100BF000B4898C919589892B8C93ACCF868D81603B
:100C0000868FF1CF90E0FC01E859FF4F2491FC0161
:100C1000E255FF4F3491FC01E656FF4FE491EE237D
:100C2000C9F0222339F0233001F1A8F4213019F161
:100C3000223029F1F0E0EE0FFF1FE057FF4FA591A2
:100C4000B4918FB7F894EC91611126C030953E2392
:100C50003C938FBF08952730A9F02830C9F0243085
:100C600049F7809180008F7D03C0809180008F774D
:100C700080938000DFCF84B58F7784BDDBCF84B5D0
:100C80008F7DFBCF8091B0008F778093B000D2CF63
:100C90008091B0008F7DF9CF3E2BDACF0F931F9359
:100CA000CF93DF93109242031092410388EE93E0BA
:100CB000A0E0B0E08093430390934403A0934503E6
:100CC000B09346032AE031E03093400320933F0382
:100CD00025EC30E030934C0320934B0324EC30E0C0
:100CE00030934E0320934D0320EC30E030935003BB
:100CF00020934F0321EC30E03093520320935103B3
:100D000022EC30E0309354032093530326EC30E080
:100D100030935603209355031092580310925903B1
:100D200010925A0310925B031092F1031092F00399
:100D30008093F2039093F303A093F403B093F5032D
:100D40008CE191E09093EF038093EE031092050401
:100D500010920404109207041092060410920904E1
:100D60001092080410920B0410920A0460910C0473
:100D70006E7F6D7F60930C046695617081E06827DB
:100D80008BE00E94020649EB50E0FA01649185EA8B
:100D900090E0FC012491222399F030E0220F331FD0
:100DA000F901EA57FF4FA591B491F901E057FF4FC0
:100DB000259134912FB7F8943C91632B6C932FBFFE
:100DC000FA0144914093FE03FC018491E82FF0E086
:100DD000EE0FFF1FE057FF4F859194919093000411
:100DE0008093FF0308EB10E0F8012491C4EAD0E0FF
:100DF000FE0184918823C9F090E0880F991FFC01BF
:100E0000EA57FF4FA591B491FC01E057FF4F459180
:100E100054913FB7F8949C91822F809598239C938E
:100E2000FA019081892380833FBF80910C0481FD6A
:100E300004C061E08AE00E9402068AE08093FA031F
:100E4000F80104910093FB03FE01C491EC2FF0E044
:100E5000EE0FFF1FE458FF4F859194919093FD038F
:100E60008093FC036DE471E088EE93E00E9420041F
:100E70006CE271E082EE93E00E9420046CE271E08B
:100E80008CED93E0DF91CF911F910F910C94200492
:100E9000CF93DF9300D000D000D0CDB7DEB77894E9
:100EA00084B5826084BD84B5816084BD85B582606F
:100EB00085BD85B5816085BD80916E008160809320
:100EC0006E00109281008091810082608093810089
:100ED0008091810081608093810080918000816099
:100EE000809380008091B10084608093B1008091F4
:100EF000B00081608093B00080917A00846080931C
:100F00007A0080917A00826080937A0080917A00E2
:100F1000816080937A0080917A00806880937A0063
:100F20001092C10010920904109208041092070454
:100F30001092060410920504109204048DE991E0C9
:100F400090930B0480930A049091FA03963108F071
:100F500047C02DEB30E030930504209304042BE9C7
:100F600031E030930704209306042CE231E0309303
:100F70000904209308042091680084E0983048F028
:100F800031E09E3008F430E081E001C0880F3A95EE
:100F9000EAF7822B809368002DE630E0983050F01D
:100FA0002BE630E09E3030F02CE630E0963110F049
:100FB00030E020E03093020420930104292F30E038
:100FC000983008F00BC481E001C0880F9A95EAF7C9
:100FD0008093030480910A0490910B040197F1F728
:100FE0008091080490910904892B49F1E0913B0319
:100FF000F0913C0383E0EE3EF80709F1309739F0B9
:10100000A389B4899C918589809589238C9380914B
:101010000C048E7F80930C0410923A0310923903D3
:101020008EEE93E090933C0380933B03E0910104A8
:10103000F0910204808190910304892B808364E6FF
:1010400070E080E090E00E94CD01E0914F03F091CC
:10105000500382E08083E0914B03F0914C031082B7
:10106000E0914D03F0914E038FEC80831092570373
:10107000E0915303F091540386E08083E0915103A3
:10108000F0915203808180618083E0915103F0915F
:101090005203808188608083E0915103F091520374
:1010A000808180688083E0915103F09152038081B8
:1010B0008F7D808368E571E08FE393E00E94B0024A
:1010C0006AE271E08FE393E00E94B00280E0E82ED4
:1010D00080E0F82E80913D0390913E03019771F4DA
:1010E00065E771E088EE93E00E9416040E943904DF
:1010F00064E670E080E090E00E94CD0180913D03C5
:1011000090913E030297F1F46BE771E082EE93E079
:101110000E9416046DE471E0CE0101960E94200445
:10112000CE0101960E9491030E947F0362E070E06D
:101130000E94A7030E94FE03CE0101960E94310483
:101140000E94390480913D0390913E030397F1F48E
:1011500063E871E082EE93E00E9416046BE871E0B0
:10116000CE0101960E942004CE0101960E949103B7
:101170000E947F0363E070E00E94A7030E94FE03C9
:10118000CE0101960E9431040E94390480913D03F2
:1011900090913E030497F1F466E971E082EE93E0EA
:1011A0000E9416046FE971E0CE0101960E942004AE
:1011B000CE0101960E9491030E947F0364E070E0DB
:1011C0000E94A7030E94FE03CE0101960E943104F3
:1011D0000E94390480913D0390913E03059721F5CB
:1011E0006AEA71E082EE93E00E94160463EB71E01C
:1011F000CE0101960E942004CE0101960E94910327
:101200000E947F0365E070E00E94A7030E94FE0336
:10121000CE0101960E9431040E94390466E970E013
:1012200080E090E00E94CD0180913D0390913E03CB
:10123000069741F465E771E088EE93E00E9416049A
:101240000E94390480913D0390913E030797F9F481
:101250006EEB71E088EE93E00E94160468EE73E096
:101260008EEE93E00E948D0064EB8EEE93E00E9480
:1012700018026AEC71E08EEE93E00E94B0020E94C8
:10128000830468EC70E080E090E00E94CD018091E2
:101290003D0390913E03089791F56DEC71E088EE67
:1012A00093E00E94160468EE73E08EEE93E00E94D5
:1012B0008D0040E161E470E080E090E00E94D302A4
:1012C0000E9483046CED71E088EE93E00E941604A6
:1012D00068EE73E08EEE93E00E948D004AE061E4D8
:1012E00070E080E090E00E94D3020E9483046BEEE5
:1012F00071E088EE93E00E9416040E943904809108
:101300003D0390913E030997C1F46AEF71E082EECC
:1013100093E00E9416046DE471E0CE0101960E94F4
:101320002004CE0101960E9491030E94FE03CE018B
:1013300001960E9431040E94390480913D039091EE
:101340003E030A9741F466E072E088EE93E00E9463
:1013500016040E94390480913D0390913E030B973F
:10136000C1F46CE072E082EE93E00E9416046DE43A
:1013700071E0CE0101960E942004CE0101960E94E8
:1013800091030E94FE03CE0101960E9431040E9447
:10139000390480913D0390913E030C9771F468E10C
:1013A00072E088EE93E00E9416040E94390464E61D
:1013B00070E080E090E00E94CD0180913D0390912B
:1013C0003E030D9741F466E072E088EE93E00E94E0
:1013D00016040E94390480913D0390913E030E97BC
:1013E000C1F46EE172E082EE93E00E9416046DE4B7
:1013F00071E0CE0101960E942004CE0101960E9468
:1014000091030E94FE03CE0101960E9431040E94C6
:10141000390480913D0390913E030F9741F46CE2B3
:1014200072E088EE93E00E9416040E9439048091D5
:101430003D0390913E03409741F46CE272E088EEE8
:1014400093E00E9416040E94390480913D0390911C
:101450003E03419741F46CE272E088EE93E00E9413
:1014600016040E94390480913D0390913E034297F7
:1014700041F462E372E088EE93E00E9416040E9459
:10148000390480913D0390913E03439741F462E318
:1014900072E088EE93E00E9416040E943904809165
:1014A0003D0390913E03449741F462E372E088EE7D
:1014B00093E00E9416040E94390480913D039091AC
:1014C0003E034597C1F468E372E082EE93E00E9428
:1014D00016046DE471E0CE0101960E942004CE0155
:1014E00001960E9491030E94FE03CE0101960E9484
:1014F00031040E94390480913D0390913E03469748
:1015000041F462E372E088EE93E00E9416040E94C8
:10151000390480913D0390913E034797C1F466E4FE
:1015200072E082EE93E00E9416046DE471E0CE0159
:1015300001960E942004CE0101960E9491030E9410
:10154000FE03CE0101960E9431040E94390480916D
:101550003D0390913E03489741F467E572E088EEC1
:1015600093E00E9416040E94390480913D039091FB
:101570003E034997C1F46DE572E082EE93E00E946C
:1015800016046DE471E0CE0101960E942004CE01A4
:1015900001960E9491030E94FE03CE0101960E94D3
:1015A00031040E94390480913D0390913E034A9793
:1015B00041F46EE672E088EE93E00E9416040E9409
:1015C000390480913D0390913E034B97C1F466E747
:1015D00072E082EE93E00E9416046DE471E0CE01A9
:1015E00001960E942004CE0101960E9491030E9460
:1015F000FE03CE0101960E9431040E9439048091BD
:101600003D0390913E034C9741F467E872E088EE09
:1016100093E00E9416040E94390480913D0390914A
:101620003E034D97C1F46FE872E082EE93E00E94B2
:1016300016046DE471E0CE0101960E942004CE01F3
:1016400001960E9491030E94FE03CE0101960E9422
:1016500031040E94390480913D0390913E034E97DE
:1016600041F460EA72E088EE93E00E9416040E9462
:10167000390480913D0390913E034F9741F468EA0D
:1016800072E088EE93E00E9416040E943904809173
:101690003D0390913E038097F9F465EB72E088EE8C
:1016A00093E00E94160468EE73E08EEE93E00E94D1
:1016B0008D0064EB8EEE93E00E9418026AEC71E0FC
:1016C0008EEE93E00E94B0020E94830468EC70E00A
:1016D00080E090E00E94CD0180913D0390913E0317
:1016E0008197F1F461EC72E082EE93E00E941604BF
:1016F0006DE471E0CE0101960E942004CE010196B6
:101700000E9491030E94FE03CE0101960E943104C3
:101710000E94390464E670E080E090E00E94CD0110
:1017200080913D0390913E03829771F462ED72E0E7
:1017300088EE93E00E9416040E94390464E670E08B
:1017400080E090E00E94CD0180913D0390913E03A6
:10175000C39724F010923E0310923D0300913D0385
:1017600010913E030F5F1F4F10933E0300933D0304
:10177000033311050CF16EED72E082EE93E00E94EE
:1017800016046DE471E0CE0101960E942004CE01A2
:1017900001960E9491030E947F03B8010E94A70353
:1017A0000E94FE03CE0101960E9431040E9439047A
:1017B00010923E0310923D036FE070E080E090E0F5
:1017C0000E94CD01E114F10409F484CC0E940501CA
:1017D000882309F47FCC0E9400007CCC9E3040F42A
:1017E0002850310981E001C0880F2A95EAF7F0CB33
:1017F0002E503109F7CF8CED93E00E94310482EE38
:1018000093E00E94310488EE93E00E9431048CE161
:1018100091E09093EF038093EE0380913B039091CE
:101820003C038E5E934071F4E0910104F091020458
:1018300090818091030480958923808310923C03DA
:1018400010923B030895BB274A3031F4992322F4C8
:10185000BDE2909581959F4F0C942F0CBB27FB0107
:101860005527AA27880F991FAA1FA41710F0A41B99
:1018700083955051B9F7A05DAA3308F0A95DA193F3
:10188000009779F7B111B1931192CB010C94480CE8
:10189000DC01FC01672F71917723E1F7329704C0D7
:1018A0007C916D9370836291AE17BF07C8F3089562
:1018B0002F923F924F925F926F927F928F929F9260
:1018C000AF92BF92CF92DF92EF92FF920F931F934E
:1018D000CF93DF93CDB7DEB7CA1BDB0B0FB6F894FF
:1018E000DEBF0FBECDBF09942A88398848885F843F
:1018F0006E847D848C849B84AA84B984C884DF80B0
:10190000EE80FD800C811B81AA81B981CE0FD11D93
:101910000FB6F894DEBF0FBECDBFED01089597FB63
:10192000072E16F4009407D077FD09D00E94C50C4D
:1019300007FC05D03EF4909581959F4F08957095D2
:1019400061957F4F0895A1E21A2EAA1BBB1BFD01D2
:101950000DC0AA1FBB1FEE1FFF1FA217B307E4078E
:10196000F50720F0A21BB30BE40BF50B661F771FE6
:10197000881F991F1A9469F76095709580959095C6
:101980009B01AC01BD01CF010895AA1BBB1B51E116
:1019900007C0AA1FBB1FA617B70710F0A61BB70BDF
:1019A000881F991F5A95A9F780959095BC01CD0184
:1019B0000895EE0FFF1F0590F491E02D09940F9309
:1019C0001F93CF93DF938230910510F482E090E073
:1019D000E0910F04F091100430E020E0B0E0A0E0CE
:1019E000309799F42115310509F44AC0281B390BA9
:1019F00024303105D8F58A819B816115710589F103
:101A0000FB0193838283FE0111C0408151810281D9
:101A1000138148175907E0F04817590799F41097B0
:101A200061F012960C93129713961C933296CF0185
:101A3000DF91CF911F910F91089500930F041093A0
:101A40001004F4CF2115310551F04217530738F037
:101A5000A901DB019A01BD01DF01F801C1CFEF014E
:101A6000F9CF9093100480930F04CDCFFE01E20FC5
:101A7000F31F819391932250310939832883D7CF63
:101A800020910D0430910E04232B41F4209102018A
:101A90003091030130930E0420930D042091000136
:101AA000309101012115310541F42DB73EB7409128
:101AB000040150910501241B350BE0910D04F091B8
:101AC0000E04E217F307A0F42E1B3F0B281739076B
:101AD00078F0AC014E5F5F4F2417350748F04E0F8A
:101AE0005F1F50930E0440930D04819391939FCFF9
:101AF000F0E0E0E09CCFCF93DF930097E9F0FC01AA
:101B0000329713821282A0910F04B0911004ED015C
:101B100030E020E01097A1F420813181820F931FE3
:101B200020910D0430910E042817390709F061C087
:101B3000F0930E04E0930D04DF91CF910895EA0134
:101B4000CE17DF07E8F54A815B819E0141155105FB
:101B5000B1F7E901FB83EA8349915991C40FD51F7D
:101B6000EC17FD0761F4808191810296840F951F27
:101B7000E90199838883828193819B838A83F0E042
:101B8000E0E012968D919C9113970097B9F52D91F5
:101B90003C911197CD010296820F931F20910D0465
:101BA00030910E042817390739F6309751F5109205
:101BB000100410920F04B0930E04A0930D04BCCF38
:101BC000D383C28340815181840F951FC817D907E1
:101BD00061F44E5F5F4F88819981480F591F51838F
:101BE00040838A819B81938382832115310509F08B
:101BF000B0CFF0931004E0930F049ECFFD01DC0101
:101C0000C0CF13821282D7CFB0E0A0E0EAE0FEE0BE
:101C10000C945A0C8C01009751F4CB010E94DF0CFC
:101C20008C01C801CDB7DEB7E0E10C94760CFC0165
:101C3000E60FF71F9C0122503109E217F30708F461
:101C40009DC0D901CD91DC911197C617D70798F0A7
:101C5000C530D10530F3CE0104978617970708F3F6
:101C6000C61BD70B2297C193D1936D937C93CF0161
:101C70000E947B0DD6CF5B01AC1ABD0A4C018C0EC5
:101C80009D1EA0910F04B0911004512C412CF12CF9
:101C9000E12C109731F580910D0490910E04881578
:101CA000990509F05CC04616570608F058C08091A7
:101CB000000190910101009741F48DB79EB74091CA
:101CC000040150910501841B950BE817F90708F0F2
:101CD00055C0F0930E04E0930D04F9017183608305
:101CE000A0CF8D919C91119712966C90129713969C
:101CF0007C901397A815B90559F56C0142E0C40E04
:101D0000D11CCA14DB0420F1AC014A195B09DA01C9
:101D10001296159780F06282738251834083D901B5
:101D20006D937C93E114F10471F0D7011396FC9349
:101D3000EE93129776CF22968C0F9D1FF901918317
:101D40008083F301EFCFF0931004E0930F0469CF89
:101D50004816590608F42C017D01D3019ACFCB0116
:101D60000E94DF0C7C01009749F0AE01B8010E948F
:101D7000C10EC8010E947B0D870153CF10E000E027
:101D800050CFFB01DC0102C001900D924150504048
:101D9000D8F70895FB01DC018D91019080190110A5
:101DA000D9F3990B0895FB01DC0101900D920020FD
:101DB000E1F7089510E0C2E6D0E004C0FE010E9401
:0E1DC000D90C2196C336D107C9F7F894FFCF8E
:101DCE00000011048000000000003B019B00C800D1
:101DDE008801F900D700EB000000000018029B00FC
:101DEE00AD02170274028C02FF010D0A00203D3D68
:101DFE003E20004C43442052004C434420500020CF
:101E0E00484154414C4920534F4E5543004C434496
:101E1E00575220312C312D0041726475696E6F203E
:101E2E00456173796D6F62696C6520416E696D6194
:101E3E0073796F6E004C4344444400312E53415429
:101E4E00495200322E5341544952004C434457528A
:101E5E0020322C312D00332E205341544952004C48
:101E6E004344575220332C312D00342E20534154ED
:101E7E004952004C4344575220342C312D004C43D0
:101E8E0044575220342C312D4100494B004C4344D1
:101E9E00575220322C312D48455820004C43445780
:101EAE005220322C382D44454320004C4344575287
:101EBE0020322C31342D284129004355522E554EB7
:101ECE004445522020004C43444355004355522E66
:101EDE0048494444454E20004C4344434800435532
:101EEE0052205348494654204C3C3D004C434443F9
:101EFE004C004C43444352004355522053484946EC
:101F0E005420523D3E00435552534F5220484F4DA0
:101F1E00452020202020004C4344484F004241439E
:101F2E004B4C4947485420202531302020004C434B
:101F3E0044424C2031004241434B4C4947485420C7
:101F4E00202539302020004C4344424C2039004299
:101F5E0041434B4C49474854202025343020200023
:101F6E004C4344424C2034004C4344534320312CC8
:101F7E003138302D004C4344575220332C312D41F3
:101F8E00005245414420312043484152414354457B
:101F9E0052004C4344524320312C31342D005354C3
:101FAE004152545550202020202020202020000077
:00000001FF
