:100000000C9462000C948A000C948A000C948A0070
:100010000C948A000C948A000C948A000C940F07AC
:100020000C948A000C948A000C948A000C948A0028
:100030000C948A000C948A000C948A000C948A0018
:100040000C94C5060C948A000C9493060C946D06CF
:100050000C948A000C948A000C948A000C948A00F8
:100060000C94EC070C948A0000000000230026008A
:10007000290000000008000201000003040700003E
:1000800000000000000000000000250028002B00F8
:1000900000000000240027002A00040404040404D3
:1000A0000404020202020202030303030303010227
:1000B00004081020408001020408102001020408F6
:1000C00010200B0911241FBECFEFD8E0DEBFCDBF3B
:1000D00012E0A0E0B1E0E2E6FCE202C005900D9281
:1000E000A232B107D9F724E0A2E2B2E001C01D922A
:1000F000A838B207E1F710E0C2E6D0E004C02197CB
:10010000FE010E941A16C136D107C9F70E9465097F
:100110000C942F160C94000008950895982F2091A8
:10012000EB0281E0213208F043C08091EA028111A4
:10013000FCCF8091E30232E03093EA029093E9022F
:100140009FEF9093C1021092C0022093BF02A3ECD4
:10015000B2E0EFE9F2E090E0291331C010929E0284
:1001600090919E02880F892B80939E028091E802D5
:10017000813049F51092E80280919E028093BB0085
:100180008091BC0083FDF8CF85EC8093BC0080910A
:10019000EA028230E1F38091C1028F3FB1F0809199
:1001A000C1028032A1F08091C102803391F084E0DD
:1001B0001092EC021092EB021092C20208953D914F
:1001C00031939F5FC9CF85EEE0CF80E0F1CF82E031
:1001D000EFCF83E0EDCFCF936093760470937704F5
:1001E0008093780490937904C0917F0420E034E2F6
:1001F00044E759E40E943A1520917A04222311F130
:10020000C061C0937F0420E03AEB4BE558E40E94C4
:100210006F1320E030E040E850E40E943A1520E0FF
:1002200030E040E058E30E943A150E945914809152
:100230007D04807C7F73782B70937D0460937E04B3
:10024000CF910895CF7EC0937F0420E03AEB4BE539
:1002500058E40E946E13DDCF8091ED029091EE0282
:10026000891B990B0895CF93DF9390E0FC01E25531
:10027000FF4F249186569F4FFC0184918823C1F043
:1002800090E0880F991FFC01E057FF4FC591D49172
:10029000FC01EA57FF4FA591B4919FB7F89488816C
:1002A000E22FE0958E2388838C91E823EC939FBF07
:1002B000DF91CF910895AF92BF92CF92DF92EF92EC
:1002C000FF920F931F93CF93DF936C017B018B0100
:1002D000040F151FEB015E01AE18BF08C017D10750
:1002E00059F06991D601ED91FC910190F081E02DDA
:1002F000C6010995892B79F7C501DF91CF911F912F
:100300000F91FF90EF90DF90CF90BF90AF90089546
:10031000FC01538D448D252F30E0842F90E0821B0B
:10032000930B541710F0CF96089501970895FC0190
:10033000918D828D981761F0A28DAE0FBF2FB11DE8
:100340005D968C91928D9F5F9F73928F90E0089540
:100350008FEF9FEF0895FC01918D828D981731F0FA
:10036000828DE80FF11D858D90E008958FEF9FEF4E
:100370000895FC01918D228D892F90E0805C9F4F24
:10038000821B91098F73992708958FEE92E00E9446
:10039000B90121E0892B09F420E0822F089580E043
:1003A00090E0892B29F00E94C50181110C94000076
:1003B0000895FC01A48DA80FB92FB11DA35ABF4FFA
:1003C0002C91848D90E001968F739927848FA68954
:1003D000B7892C93A089B1898C91837080648C93A8
:1003E000938D848D981306C00288F389E02D808157
:1003F0008F7D80830895EF92FF920F931F93CF9389
:10040000DF93EC0181E0888F9B8D8C8D98131AC04F
:10041000E889F989808185FF15C09FB7F894EE8936
:10042000FF896083E889F989808183708064808393
:100430009FBF81E090E0DF91CF911F910F91FF90DE
:10044000EF900895F62E0B8D10E00F5F1F4F0F7386
:100450001127E02E8C8D8E110CC00FB607FCFACF41
:10046000E889F989808185FFF5CFCE010E94D90105
:10047000F1CFEB8DEC0FFD2FF11DE35AFF4FF08212
:100480009FB7F8940B8FEA89FB8980818062CFCF78
:10049000CF93DF93EC01888D8823B9F0AA89BB89BB
:1004A000E889F9898C9185FD03C0808186FD0DC0A6
:1004B0000FB607FCF7CF8C9185FFF2CF808185FFC7
:1004C000EDCFCE010E94D901E9CFDF91CF91089500
:1004D000833081F028F4813099F08230A9F00895BA
:1004E0008730A9F08830C9F08430B1F48091800061
:1004F0008F7D03C0809180008F7780938000089566
:1005000084B58F7784BD089584B58F7DFBCF8091AE
:10051000B0008F778093B00008958091B0008F7DF8
:10052000F9CF1F93CF93DF93282F30E0F901EE58D6
:10053000FF4F8491F901E255FF4FD491F901E6563E
:10054000FF4FC491CC23A9F0162F81110E9468029D
:10055000EC2FF0E0EE0FFF1FEA57FF4FA591B4918B
:100560008FB7F894EC91111108C0D095DE23DC937D
:100570008FBFDF91CF911F910895DE2BF8CF10929E
:10058000EE021092ED021092EC021092EB02109229
:10059000EA0281E08093E9021092E80261E082E1E0
:1005A0000E94910261E083E10E949102E9EBF0E098
:1005B00080818E7F808380818D7F808388E480939B
:1005C000B80085E48093BC008CE890E09093E7024B
:1005D0008093E6028DE890E09093E5028093E40238
:1005E00008953FB7F89480916A0290916B02A091B0
:1005F0006C02B0916D0226B5A89B05C02F3F19F083
:100600000196A11DB11D3FBFBA2FA92F982F882792
:10061000BC01CD01620F711D811D911D42E0660F6D
:10062000771F881F991F4A95D1F708958F929F923F
:10063000AF92BF92CF92DF92EF92FF924B015C019B
:100640000E94F1026B017C010E94F1026C197D098C
:100650008E099F09683E734081059105A8F321E04A
:10066000821A9108A108B10888EEC80E83E0D81E4E
:10067000E11CF11C81149104A104B10429F7FF903D
:10068000EF90DF90CF90BF90AF909F908F900895A4
:100690000895CF92DF92EF92FF92CF93DF93EC0118
:1006A000072E000C880B990B0E948A146B017C01A9
:1006B00020E030E040E45FE30E943A1520E030E0C3
:1006C00048E452E40E94E0130E945214C617D70770
:1006D000D4F020E030E040EA5FE3C701B6010E94B9
:1006E0003A1520E030E048E452E40E94E01320E0B4
:1006F00030E040E85FE30E946F130E94521421E053
:100700006C177D070CF420E0822F90E0DF91CF91F1
:10071000FF90EF90DF90CF9008958F929F92AF92CD
:10072000BF92CF92DF92EF92FF920F931F93CF93DE
:10073000DF93FC0120813181E0917A02F0917B020C
:1007400001E010E02E173F070CF045C0D901AA0FB9
:10075000BB1FE0917802F0917902EA0FFB1FA080A5
:10076000B1808901009510950170112720FD27C0E7
:100770002CE93FEFEA016B017C014901840E951ED3
:10078000B401C5010E94490321E030E0892BD1F476
:100790008C0E9D1EB401C5010E94490322E030E089
:1007A000892B81F4BE01680D791DC5010E944903A2
:1007B00023E030E0892B31F40FEF1FEF0CC024E66B
:1007C00030E0D8CFF601808191810196821793079E
:1007D00084F491838083C801DF91CF911F910F91A1
:1007E000FF90EF90DF90CF90BF90AF909F908F9051
:1007F000089511821082F701808191810196E9CFDD
:1008000085ED8093BC008091BC0084FDFCCF1092EC
:10081000EA02089520914202260F3327331F213226
:100820003105ECF42091EA02FC0190E080E02430F4
:1008300069F082E00895A09142022191AC014E5DE1
:100840005D4FA40FB52FB11D2C930196861798F319
:1008500080914202680F6093420280E0089581E037
:1008600008950895E091EE028091ED02E81730F4CA
:10087000F0E0E258FD4F808190E008958FEF9FEF08
:1008800008959091EE028091ED022FEF3FEF9817BF
:1008900048F4E92FF0E0E258FD4F208130E09F5FFF
:1008A0009093EE02C9010895CF92DF92EF92FF92EA
:1008B0000F931F93CF93DF937C01CB018A0120918B
:1008C000C202222389F0EB016B01C40ED51ECC15A8
:1008D000DD0569F06991D701ED91FC910190F081FE
:1008E000E02DC7010995F3CF642F0E940A04C801C7
:1008F000DF91CF911F910F91FF90EF90DF90CF90FC
:100900000895CF93DF931F92CDB7DEB7698320910F
:10091000C2022223F9F02091EB02203258F021E0AC
:1009200030E0FC013383228390E080E00F90DF9180
:10093000CF9108958091EC02E82FF0E0ED53FD4F48
:10094000998190838F5F8093EC028093EB0281E02A
:1009500090E0ECCF61E0CE0101960E940A04F7CF4F
:10096000682F8CE893E00C948104FC01248131E031
:100970003093C2022093E3021092EC021092EB0239
:100980008385862B90E00E94B00481E00C948E0059
:10099000CF93DF9381E08093C20280E68093E302ED
:1009A0001092EC021092EB02CDE7D4E069918CE852
:1009B00093E00E94810484E0C338D807B9F781E04E
:1009C0000E948E0064E670E080E090E0DF91CF91BD
:1009D0000C94160390E080E008950F931F93CF933B
:1009E000DF938091EA028111FCCF81E08093EA02DB
:1009F0008093E9029FEF9093C1021092C00294E0AD
:100A00009093BF0280939E0280919E02806C80939F
:100A10009E028091E8028130D9F51092E80280911F
:100A20009E028093BB008091BC0083FDF8CF85ECD3
:100A30008093BC008091EA028130E1F38091C00292
:100A400095E0853010F49091C002EFE9F2E0AEE756
:100A5000B2E080E089131EC01092EE028093ED0296
:100A6000882361F0C2E8D4E007E814E08CE893E062
:100A70000E94410489930C171D07C1F764E670E0DA
:100A800080E090E0DF91CF911F910F910C941603BD
:100A900085EECECF21912D938F5FDCCFCF92DF9269
:100AA000EF92FF92CF936B017C0180917F04806174
:100AB00080937F0426E636E646EE5EE3C7010E9499
:100AC0006F130E94EB000E94C8040E94C8040E9499
:100AD000ED04C0918504C295CF7080917F048F7E14
:100AE00080937F0426E636E646EE5EE3C701B60154
:100AF0000E946E130E94EB000E94C8040E94C8046A
:100B00000E94ED048091850482958F7091E0C81752
:100B100008F090E090937A04C701B6010E94EB00C0
:100B2000CF91FF90EF90DF90CF900C94C8040F937B
:100B30001F93CF938C01C62F64600E94B5046C2F65
:100B40006B7FC8010E94B50483EC90E00197F1F738
:100B5000CF911F910F910895FF920F931F93CF9301
:100B6000DF938C01D62FC42F862F807FF82EF42A96
:100B70006F2DC8010E94B5046F2DC8010E94970512
:100B800080E1D89FB0011124C62B6C2FC8010E94B0
:100B9000B5046C2FC801DF91CF911F910F91FF9089
:100BA0000C949705CF93DF93CDB7DEB728970FB698
:100BB000F894DEBF0FBECDBF88E0E0E0F1E0DE01DB
:100BC000119601900D928A95E1F78091730481113D
:100BD0001AC08FEF90E0880F991F21E030E02C0FB2
:100BE0003D1F820F931FFC016081606840E08AE630
:100BF00094E028960FB6F894DEBF0FBECDBFDF910C
:100C0000CF910C94AC0581E0E5CF40E061E08AE64D
:100C100094E00E94AC058BE39FE10197F1F7089502
:100C200041E00E94AC0581E090E00895FB01019055
:100C30000020E9F73197AF01461B570BDC01ED911E
:100C4000FC910280F381E02D09948F929F92AF92E4
:100C5000BF920F931F93CF93DF93CDB7DEB7A197CA
:100C60000FB6F894DEBF0FBECDBF19A2423008F414
:100C70004AE08E010F5D1F4F842E912CB12CA12CC8
:100C8000A50194010E94B715E62FB901CA01EA3007
:100C900004F5E05DD801EE938D01232B242B252B49
:100CA00079F790E080E0109729F0BD018FEE92E097
:100CB0000E941606A1960FB6F894DEBF0FBECDBFF8
:100CC000DF91CF911F910F91BF90AF909F908F9028
:100CD0000895E95CDFCF0C9416061F920F920FB6B1
:100CE0000F9211242F933F934F935F936F937F93B2
:100CF0008F939F93AF93BF93EF93FF938FEE92E009
:100D00000E94D901FF91EF91BF91AF919F918F9177
:100D10007F916F915F914F913F912F910F900FBEF7
:100D20000F901F9018951F920F920FB60F921124DB
:100D30002F938F939F93EF93FF93E091FF02F09196
:100D400000038081E0910503F091060382FD1BC042
:100D50009081809108038F5F8F7320910903821720
:100D600041F0E0910803F0E0E151FD4F958F809351
:100D70000803FF91EF919F918F912F910F900FBEDC
:100D80000F901F9018958081F4CF1F920F920FB68D
:100D90000F9211242F933F938F939F93AF93BF9301
:100DA0008091660290916702A0916802B0916902F9
:100DB0003091650223E0230F2D3758F50196A11DD0
:100DC000B11D209365028093660290936702A09301
:100DD0006802B093690280916A0290916B02A091BF
:100DE0006C02B0916D020196A11DB11D80936A0243
:100DF00090936B02A0936C02B0936D02BF91AF9180
:100E00009F918F913F912F910F900FBE0F901F9048
:100E1000189526E8230F0296A11DB11DD2CF1F926F
:100E20000F920FB60F9211242F933F934F935F931E
:100E30006F937F938F939F93AF93BF93CF93DF93E2
:100E4000EF93FF932091990330E0F901EE58FF4FA3
:100E50008491F901E255FF4FD491F901E656FF4F15
:100E6000C491CC2379F081110E946802EC2FF0E04C
:100E7000EE0FFF1FE859FF4FA591B491EC91ED23C0
:100E800081E009F480E020919D0330919E032F5F63
:100E90003F4F30939E0320939D0390919C03953682
:100EA00018F096E09093980390919803943009F489
:100EB00066C0B8F49230F1F0933009F444C09091D8
:100EC0009B03992309F46BC081117CC080919A0324
:100ED000882309F463C080919A0361E00E94910223
:100EE0005EC0953009F457C0963049F791E0909371
:100EF00069044FC08111E3CF20919D0330919E037F
:100F00002436310528F410929E0310929D03D7CF0A
:100F10001092690410929C03E0919C0391E09E0F53
:100F200090939C03F0E020919D0330919E03EE0F7F
:100F3000FF1FE856FC4F3087278310929E031092C4
:100F40009D0393E019C0813009F0B9CFE0919C0373
:100F500091E09E0F90939C03F0E020919D033091CF
:100F60009E03EE0FFF1FE856FC4F30872783109239
:100F70009E0310929D0394E090939803A0CF882342
:100F800059F220919D0330919E032536310508F4D6
:100F900096CF95E0F1CF811192CFB5CF2D9AFF91E9
:100FA000EF91DF91CF91BF91AF919F918F917F9101
:100FB0006F915F914F913F912F910F900FBE0F90C6
:100FC0001F90189580919A03882321F080919A03AD
:100FD00060E084CF2D98E3CF1F920F920FB60F924F
:100FE00011242F933F934F935F936F937F938F932E
:100FF0009F93AF93BF93EF93FF938091B900887F46
:10100000803609F44AC0F0F5883209F4A7C018F513
:10101000803109F49BC0B8F4882309F4F9C0883002
:1010200009F494C0FF91EF91BF91AF919F918F917F
:101030007F916F915F914F913F912F910F900FBED4
:101040000F901F901895883109F488C0803251F7AD
:101050008093C10214C0803409F49DC040F48033F1
:10106000B9F38833F9F68093C10285ECB0C08035BE
:1010700009F485C0883509F496C0883499F60E9431
:101080000004D0CF883909F48CC038F5883729F0AE
:1010900050F4883611F0803729F683E08093EA0215
:1010A0001092640257C0883809F47BC0803919F067
:1010B000803809F0B7CF80916402803208F071C0A7
:1010C000E091640281E08E0F809364028091BB0006
:1010D000F0E0EC5BFD4F80833DC0803B39F0E0F4F5
:1010E000803A09F479C0883A09F09CCF84E0809373
:1010F000EA021092430210924202E091E602F0915D
:10110000E70209958091420281110FC081E080932E
:1011100042021092220209C0803C09F4A6CF883C0A
:1011200009F4A3CF883B09F07DCFE091430281E031
:101130008E0F80934302F0E0EE5DFD4F808180933F
:10114000BB00909143028091420229C080919E028F
:101150008093BB0085EC8093BC0064CF9091C0026B
:101160008091BF02981758F5E091C00281E08E0F80
:101170008093C002F0E0E156FD4F8081E9CFE0911D
:10118000C00281E08E0F8093C0028091BB00F0E02E
:10119000E156FD4F80839091C0028091BF02981765
:1011A000C8F285E8D8CFE091C00281E08E0F80932D
:1011B000C0028091BB00F0E0E156FD4F808380913A
:1011C000E90281115CCF81E08093E80284EA809398
:1011D000BC001092EA0226CF85EC8093BC001092EE
:1011E000EA0280916402803230F4E0916402F0E01F
:1011F000EC5BFD4F10826091640270E0E091E402CC
:10120000F091E50284E492E00995109264020ACF1D
:101210001092C10234CFEFEEF2E01382128288EE18
:1012200093E0A0E0B0E084839583A683B7832CE0AD
:1012300031E03183208325EC30E03587248724ECAE
:1012400030E03787268720EC30E0318B208B21EC93
:1012500030E0338B228B22EC30E0358B248B26EC74
:1012600030E0378B268B118E128E138E148EECE8A5
:10127000F3E01382128284839583A683B7838EE181
:1012800091E091838083E8E9F3E08BE0818313822E
:101290000E94BF02E6E7F4E01782108680EB8187A8
:1012A00080E182871386118AEAE6F4E013821282D3
:1012B00020E331E03183208397E29483808782E0CA
:1012C0008187128688E083870895CF93DF93CDB717
:1012D000DEB72C970FB6F894DEBF0FBECDBF789463
:1012E00084B5826084BD84B5816084BD85B582602B
:1012F00085BD85B5816085BD80916E0081608093DC
:101300006E00109281008091810082608093810044
:101310008091810081608093810080918000816054
:10132000809380008091B10084608093B1008091AF
:10133000B00081608093B00080917A0084608093D7
:101340007A0080917A00826080937A0080917A009E
:10135000816080937A0080917A00806880937A001F
:101360001092C1008BE00E943301F89412E01093B8
:10137000B0001093B10084E68093B3001092B200E5
:101380001093700078941093980310929C038091AE
:1013900099030E943301E091FF02F0910003108352
:1013A000E091FB02F091FC021082E091FD02F091CD
:1013B000FE028FEC808310920703E0910303F0910B
:1013C000040386E08083E0910103F09102038081B1
:1013D00080618083E0910103F09102038081886045
:1013E0008083E0910103F091020380818068808313
:1013F000E0910103F091020380818F7D80830E9440
:1014000005060E94BF0288E08093750460E08AE6CA
:1014100094E00E94B5046AE979E986EB92E40E94BF
:101420004E0568E371E08AE694E00E946B060E9434
:10143000D2056DE371E08AE694E00E946B0681E0DC
:101440008093C20280E68093E3021092EC02109235
:10145000EB0287E190E00E94B00480E290E00E94FD
:10146000B00480EB90E00E94B00480E190E00E9424
:10147000B00490E080E00E94B00481E00E948E0001
:1014800044244A94542C3201A0E22A2E312C8FE9B4
:1014900093E0909379028093780280919C0390E08E
:1014A00090937B0280937A028091690490E09093FC
:1014B0007D0280937C0280919803853009F0E8C713
:1014C0008091A1039091A203885891098D359105CF
:1014D00008F051C080919C03843009F58091A303EA
:1014E0009091A40380974797D0F48091A5039091A1
:1014F000A6030997099798F4109277021092760242
:10150000409272025092730260927402709275025D
:1015100083E090E090936F0280936E025AC38091B3
:101520009C03843440F18091A3039091A4038254DE
:1015300091098E9700F590E080E040E050E0BA011C
:10154000FC01EB55FC4F20813181295031092930B4
:10155000310588F4FC01E955FC4F20813181275188
:1015600031092231310510F12081318126503109B4
:101570002730310588F180919C038A3108F461C0DD
:1015800080919F039091A003843F914050F5109269
:101590007702109276024092720250927302609229
:1015A0007402709275028BE090E0B4CF440F551F27
:1015B000661F771F416004968038910509F63092C6
:1015C00077022092760240937202509373026093E6
:1015D0007402709375029CCF440F551F661F771FCE
:1015E000EACF8091A1039091A20385974B9748F58C
:1015F000E8E9F3E082E090E0C12CD12C76019C0177
:101600002F5F3F4F40919C034217130609F00CF4E3
:10161000F6C043855485475051094730510508F0BD
:10162000EDC025853685235131092F30310508F469
:10163000D7C0258536852A5031092930310508F46F
:10164000D8C080919C038A3108F43FC080919F03E9
:101650009091A0038032934008F499CF8091A10328
:101660009091A203C697869780F58091A3039091ED
:10167000A403C697869748F5E8E9F3E083E090E095
:10168000C12CD12C76019C012F5F3F4F40919C03D0
:101690004217130609F00CF4DAC0458556854C5004
:1016A00051094B30510508F0D1C0278530892552AA
:1016B00031092B31310508F4BBC0278530892C5006
:1016C00031092A30310508F4BCC080919C03823274
:1016D00038F18091A1039091A2030697079700F536
:1016E000E8E9F3E082E090E040E050E0BA01DC019C
:1016F000119620919C032A171B0609F00CF4D3C005
:10170000238534852E5131092731310508F4B6C0BF
:10171000238534852C5031092B30310508F4BDC0A8
:101720001C821B82E1E0F0E0FA83E98380919C0354
:101730008D3008F4E9C049E753E0BE016D5F7F4F8B
:10174000CE0101960E948D03892B09F0DDC049E787
:1017500053E0BE016D5F7F4FCE0101960E948D0365
:10176000019709F0D1C049E753E0BE016D5F7F4F9B
:10177000CE0101960E948D038C01892B09F0C4C013
:10178000812C912C540120919C0389819A812817E6
:10179000190609F00CF4A9C049E753E0BE016D5FDA
:1017A0007F4FCE0101960E948D037C0149E753E0F3
:1017B000BE016D5F7F4FCE0101960E948D03F1E067
:1017C000EF16F10409F088C0892B09F09DC0880C40
:1017D000991CAA1CBB1C689480F80F5F1F4FD3CFC5
:1017E000CC0CDD1CEE1CFF1C6894C0F802963496ED
:1017F00006CFCC0CDD1CEE1CFF1CF8CFC9010197F5
:101800009595879590937702809376020C972CF4A8
:10181000109277021092760214CFC0927202D09288
:101820007302E0927402F092750284E090E072CE4E
:10183000CC0CDD1CEE1CFF1C6894C0F8029634969C
:1018400022CFCC0CDD1CEE1CFF1CF8CFC901019788
:101850009595879590937702809376020C972CF458
:10186000109277021092760230CFC0927202D0921C
:101870007302E0927402F092750295CE440F551FE8
:10188000661F771F416025853685349623503109C0
:101890002530310538F402962ACF440F551F661FB4
:1018A000771FF1CFCD01019795958795909377029A
:1018B0008093760240972CF4109277021092760271
:1018C0002FCF40937202509373026093740270930F
:1018D00075028CE090E01ECEEF28B1F40197A1F4E0
:1018E000880C991CAA1CBB1C78CF1093770200931C
:1018F00076028092720290927302A0927402B09269
:10190000750281E090E006CE1C821B82A1E0B0E06F
:10191000BA83A98380917A0290917B0218161906E6
:101920000CF07EC0E0917802F091790282E090E0C4
:101930009A8389838281938189974E9708F070C03A
:1019400083E090E09A838983848195810B970A973D
:1019500008F066C04CEB51E0BE016D5F7F4FCE01D9
:1019600001960E948D038C01892B09F059C04CEB24
:1019700051E0BE016D5F7F4FCE0101960E948D0345
:10198000019709F04DC0812C912C540120917A02CD
:1019900030917B0289819A81821793070CF0E2C013
:1019A0004CEB51E0BE016D5F7F4FCE0101960E946E
:1019B0008D037C010330110539F14CEB51E0BE0180
:1019C0006D5F7F4FCE0101960E948D036C01033045
:1019D000110561F44CEB51E0BE016D5F7F4FCE010C
:1019E00001960E948D03C816D906D1F4E114F104C2
:1019F00009F4ABC0EA94EF2899F4CD2889F4880C57
:101A0000991CAA1CBB1CABC04CEB51E0BE016D5F26
:101A10007F4FCE0101960E948D03E816F90669F208
:101A2000E0917802F091790282819381C69786973E
:101A300078F5848195814B97459750F5DF0116968F
:101A40007F0126ECE20EF11C20E030E040E050E0A7
:101A500060E070E080E090E00D911C9111970950DA
:101A6000110908301105A0F412960D911C911397DD
:101A7000015111090D30110508F487C012960D911E
:101A80001C911397045011090530110508F4E8C0A2
:101A900080919C03893380F18281938189579109D8
:101AA0008335910548F584819581CA97899720F5FA
:101AB0009F012A5F3F4FC12CD12C760143E050E0BB
:101AC000D9016D917C9111976A5071096930710546
:101AD00098F412966D917C9113976651710961315A
:101AE000710508F4C1C012966D917C916650710920
:101AF0006730710508F4E7C080919C03823209F0D9
:101B0000E7C0828193810A97099708F0E1C0A0910C
:101B10009C03B0E0A150B048AA0FBB1FAE0FBF1F7F
:101B20008D919C910A97099708F0D2C01092770284
:101B30001092760240927202509273026092740286
:101B40007092750286E090E0E5CCCA94CD2809F049
:101B500067CF880C991CAA1CBB1C689480F80F5F87
:101B60001F4F14CF10937702009376028092720277
:101B700090927302A0927402B0927502E2E0F0E0DB
:101B8000F0936F02E0936E0224C001E00E94E4151E
:101B900021601496AE15BF0509F05ECF2093720246
:101BA00030937302409374025093750200E20E94D6
:101BB000FF15209370023093710285E090E09093BE
:101BC0006F0280936E0280E390E09093770280939F
:101BD00076028091720290917302A0917402B0918A
:101BE0007502823EF4E19F07FBEDAF07F1E6BF0708
:101BF00009F452C508F065C3823CE8EE9E07EAEEA0
:101C0000AE07E3E2BE0709F4BCC408F010C3823A91
:101C10002FE892072CEAA20728E0B20709F487C44C
:101C200008F0E1C284349649A84FB64009F449C58A
:101C300060E172E08FEE92E00E946B0660917202AA
:101C400070917302809174029091750240E10E943C
:101C5000250664E072E08FEE92E00E941606F6C35D
:101C600001E00E94E41595CFD701C601880F991FA6
:101C7000AA1FBB1F6C017D016894C0F84E5F5F4FC7
:101C80002C5F3F4F4B33510509F01ACF9F012A5863
:101C90003F4FD9012D913C912A503109293031050E
:101CA00008F02ACF2CE130E03093770220937602BF
:101CB000C0927202D0927302E0927402F0927502A6
:101CC0008AE090E027CCCC0CDD1CEE1CFF1CD6CFAC
:101CD00082819381895791098335910560F58091BF
:101CE0009C03813240F184819581CA97899718F5C8
:101CF0009F012A5F3F4FC12CD12C760143E050E079
:101D0000D9016D917C9111976A5071096930710503
:101D100090F412966D917C9113976651710961311F
:101D2000710580F112966D917C9166507109673052
:101D3000710508F454C0828193818C549109C59730
:101D400008F081C080919C03843009F04DC08481EB
:101D500095818097479708F047C0868197810997BA
:101D6000099708F041C010927702109276024092D3
:101D7000720250927302609274027092750287E050
:101D800090E0C8CBD701C601880F991FAA1FBB1FBF
:101D90006C017D016894C0F84E5F5F4F2C5F3F4F30
:101DA0004332510509F0ACCF9F012A5B3F4FD90167
:101DB0002D913C912A5031092930310508F0BBCFD3
:101DC00020E130E03093770220937602C0927202D5
:101DD000D0927302E0927402F0927502B3CECC0CF2
:101DE000DD1CEE1CFF1CD8CF80919C03843458F17D
:101DF0008481958189549109C39728F59F012A5FB1
:101E00003F4FBF016A577F4FC12CD12C7601D901BA
:101E10004D915C911197495051094930510598F401
:101E200012964D915C9113974651510941315105DC
:101E300008F4A2C012964D915C914650510947306A
:101E4000510508F4B6C080919C038634C0F18281AC
:101E500093810C970B9798F5848195810997099741
:101E600070F5868197818C974F9748F5808591858D
:101E700089974D9720F59F01265F3F4FC12CD12CAC
:101E8000760145E050E0D9016D917C9111976C503D
:101E900071096B30710598F412966D917C911397CE
:101EA0006E5171096731710508F488C012966D9101
:101EB0007C91695071096930710508F4ACC080915A
:101EC0009C03883508F4B6C08281938185589109B6
:101ED0008B35910508F0AEC08481958182549109BB
:101EE0008E9708F0A7C08F01045C1F4F8DE190E032
:101EF00030E020E040919C034450550B8417950737
:101F000014F5A80142505109DA014D915C914950F4
:101F100051094830510508F08DC0BC016F5F7F4FFB
:101F2000D8014D915C9111974750510947305105A7
:101F300008F476C04D915C914851510942315105E8
:101F400008F475C0CB01019795958795909377021A
:101F5000809376028A970CF46DC0C901330FAA0BE7
:101F6000BB0B8093720290937302A0937402B093A0
:101F7000750289E090E0CECAD701C601880F991F8B
:101F8000AA1FBB1F6C017D016894C0F82C5F3F4FF6
:101F90006217730709F03BCF3092770220927602E6
:101FA000C0927202D0927302E0927402F0927502B3
:101FB000E6CECC0CDD1CEE1CFF1CE8CFD701C60121
:101FC000880F991FAA1FBB1F6C017D016894C0F880
:101FD0004E5F5F4F2C5F3F4F4534510509F053CFA3
:101FE0009F0126573F4FD9012D913C912C5031092B
:101FF0002B30310508F063CF3092770220927602C1
:10200000C0927202D0927302E0927402F092750252
:1020100088E090E07FCACC0CDD1CEE1CFF1CD8CF02
:10202000220F331F216002960C5F1F4F63CF220FD8
:10203000331FF9CF80919C03803279F5828193819F
:102040000697069750F5848195810997099728F599
:102050009F012A5F3F4FBF01625C7F4FC12CD12C93
:102060007601D9014D915C91119746505109463046
:10207000510598F412964D915C911397495151096D
:102080004331510508F489C012964D915C91495035
:1020900051094930510508F4A1C080917A0290910C
:1020A0007B0298878F8306970CF4EDC1DF011296AF
:1020B000BE83AD8385ECC82E8DE9D82E8CE1E82E49
:1020C00081E8F82E03E010E0ED81FE8164817581E6
:1020D000A080B18090E080E00E94881469877A87B0
:1020E0008B879C87B50190E080E00E9488144B01AB
:1020F0005C012DEC3CEC4CE45FE30E943A159B0143
:10210000AC0169857A858B859C850E94DB13F0E0A4
:10211000E0E087FD16C02DEC3CEC4CE45FE3698504
:102120007A858B859C850E943A159B01AC01C5017F
:10213000B4010E94DB13E2E0F0E087FD02C0E1E0C1
:10214000F0E0A701960163E971E080E091E00E9470
:10215000A7156F01FF0FEE08FF08C626D726E82651
:10216000F9260F5F1F4F8D819E8102969E838D837E
:10217000AF81B885A017B10709F0A6CFC09272024F
:10218000D0927302E0927402F0927502309277025C
:1021900020927602EFEFFFEFF3CCD701C601880F54
:1021A000991FAA1FBB1F6C017D016894C0F82C5FAA
:1021B0003F4F6217730709F054CFEEE0F0E0F09361
:1021C0007702E0937602C0927202D0927302E0929C
:1021D0007402F09275028FE090E09CC9CC0CDD1C7B
:1021E000EE1CFF1CE4CF843E23E592072BEDA207F3
:1021F00021E1B20709F404C28E359349A345B341E6
:1022000009F016CD0E94050668E971E08AE694E0BF
:102210000E946B060E94D20562EA71E08AE694E0B1
:102220000E946B066DEC7CE485EB92E40DC18B366D
:10223000F9E09F07FCEFAF07F7E4BF0709F4F5C12A
:1022400020F58C34E5E09E07E1E4AE07E6E3BE0747
:1022500009F4ACC18A399144A945B54409F0E8CCE8
:102260000E94050666E072E08AE694E00E946B0632
:102270000E94D20562EA71E08AE694E00E946B0651
:1022800060E070E082EC92E4DFC08E3B2BEB9207C3
:1022900021E9A2072DE4B20709F41FC18E319C4B3E
:1022A000A64EB64509F0C4CC0E94050666E072E071
:1022B0008AE694E00E946B060E94D20562EA71E011
:1022C000A6C08430FBE59F07F3EEAF07F2ECBF0733
:1022D00009F481C108F052C08438EFE29E07E7E7B5
:1022E000AE07E1E8BE0709F4E3C020F5803C2AE729
:1022F000920728E3A20726E6B20709F4ABC18232AF
:102300009241A64CBA4609F093CC0E94050663EEB2
:1023100071E08AE694E00E946B060E94D20562EAB0
:1023200071E08AE694E00E946B066AE979E980EC44
:1023300092E48AC0843EFEE79F07F3EFAF07F4E91B
:10234000BF0709F46DC0843E974EA24DB54909F010
:102350006FCC0E9405066FE871E08AE694E00E9467
:102360006B060E94D20566E072E08AE694E00E9465
:102370006B066AE979E983EB92E466C0883CE1E8A0
:102380009E07EEE7AE07ECECBE0709F4E5C020F5CA
:1023900080322FE5920729E6A20727ECB20709F45D
:1023A000B1C088349442A94EBB4C09F041CC0E9484
:1023B000050660ED71E08AE694E00E946B060E94DB
:1023C000D20562EA71E08AE694E00E946B0663E35C
:1023D00073E38EEB92E438C08036FCEF9F07FCE499
:1023E000AF07F0EDBF0709F44AC18E3D9947AD41F3
:1023F000B64F09F01DCC0E94050664E571E08AE63F
:1024000094E00E946B060E94D20569E571E08AE6BD
:1024100094E00E946B0660E070E885EC92E414C0E2
:102420000E94050666E471E08AE694E00E946B066D
:102430000E94D2056BE471E08AE694E00E946B068C
:102440006AE979E986EB92E40E944E056AE070E061
:1024500080E090E00E94160367E072E08FEE92E069
:102460000E946B06609172027091730280917402F7
:102470009091750240E10E94250664E072E08FEEC3
:1024800092E00E94160682E08093980310929C03CB
:1024900080E090E0892B11F40C94470A0E94C5015A
:1024A000882311F40C94440A0E9400000C94440AFE
:1024B0000E9405066FE571E08AE694E00E946B06D3
:1024C0000E94D20566E072E08AE694E00E946B0604
:1024D00060E070E080ED92E4B7CF0E94050667E609
:1024E00071E08AE694E00E946B060E94D20566E0E5
:1024F00072E08AE694E00E946B066AE979E183ED76
:1025000092E4A2CF0E9405066EE671E08AE694E0AE
:102510000E946B060E94D20567E771E08AE694E0AC
:102520000E946B0666E676E684ED92E48DCF0E940B
:10253000050664E871E08AE694E00E946B060E945A
:10254000D20567E771E08AE694E00E946B066AE9CB
:1025500079E987ED92E478CF0E9405066EEA71E092
:102560008AE694E00E946B060E94D20562EA71E05E
:102570008AE694E00E946B0663E373E387EB92E4E0
:1025800063CF0E94050666EB71E08AE694E00E9444
:102590006B060E94D20562EA71E08AE694E00E942E
:1025A0006B0660E070E088EB92E44ECF0E94050677
:1025B0006EEB71E08AE694E00E946B060E94D20501
:1025C00066EC71E08AE694E00E946B0660E070E0E1
:1025D0008CEB92E439CF0E94050667ED71E08AE644
:1025E00094E00E946B060E94D20562EA71E08AE6DE
:1025F00094E00E946B0666E676E68FEB92E424CFC9
:102600000E94050666E072E08AE694E00E946B068E
:102610000E94D20562EA71E08AE694E00E946B06AD
:1026200060E070E08BEC92E40FCF0E9405066BEE49
:1026300071E08AE694E00E946B060E94D20562EA8D
:1026400071E08AE694E00E946B066DEC7CEC8EEC07
:1026500092E4FACE0E94050666E072E08AE694E013
:102660000E946B060E94D20562EA71E08AE694E05D
:102670000E946B0663E373E383ED92E4E5CE0E9470
:10268000050663EF71E08AE694E00E946B060E9403
:10269000D20562EA71E042CF0E9405066CEF71E05C
:1026A0008AE694E00E946B060E94D20562EA71E01D
:1026B0008AE694E00E946B0660E070E086ED92E4AA
:1026C000C3CE0E94050666E072E08AE694E00E94AE
:1026D0006B060E94D20562EA71E035CF5058BB27E5
:1026E000AA270E9486130C9400150E94F21438F059
:1026F0000E94F91420F039F49F3F19F426F40C9449
:10270000EF140EF4E095E7FB0C94E914E92F0E9416
:10271000111558F3BA17620773078407950720F05D
:1027200079F4A6F50C9433150EF4E0950B2EBA2F20
:10273000A02D0B01B90190010C01CA01A0011124C7
:10274000FF27591B99F0593F50F4503E68F11A1673
:10275000F040A22F232F342F4427585FF3CF469504
:1027600037952795A795F0405395C9F77EF41F1626
:10277000BA0B620B730B840BBAF09150A1F0FF0FF0
:10278000BB1F661F771F881FC2F70EC0BA0F621FDC
:10279000731F841F48F4879577956795B795F795CC
:1027A0009E3F08F0B0CF9395880F08F09927EE0F61
:1027B0009795879508950E94C51408F481E00895BF
:1027C0000E94F4130C9400150E94F91458F00E9412
:1027D000F21440F029F45F3F29F00C94E9145111F0
:1027E0000C9434150C94EF140E94111568F399237E
:1027F000B1F3552391F3951B550BBB27AA276217FD
:102800007307840738F09F5F5F4F220F331F441F09
:10281000AA1FA9F335D00E2E3AF0E0E832D091503D
:102820005040E695001CCAF72BD0FE2F29D0660F2A
:10283000771F881FBB1F261737074807AB07B0E86D
:1028400009F0BB0B802DBF01FF2793585F4F3AF073
:102850009E3F510578F00C94E9140C9434155F3FB9
:10286000E4F3983ED4F3869577956795B795F795F9
:102870009F5FC9F7880F911D9695879597F90895E1
:10288000E1E0660F771F881FBB1F6217730784077D
:10289000BA0720F0621B730B840BBA0BEE1F88F78C
:1028A000E09508950E9459146894B1110C94341560
:1028B00008950E94191588F09F5798F0B92F99270D
:1028C000B751B0F0E1F0660F771F881F991F1AF01B
:1028D000BA95C9F714C0B13091F00E943315B1E038
:1028E00008950C943315672F782F8827B85F39F037
:1028F000B93FCCF3869577956795B395D9F73EF4B4
:1029000090958095709561957F4F8F4F9F4F08955B
:10291000E89409C097FB3EF4909580957095619579
:102920007F4F8F4F9F4F9923A9F0F92F96E9BB272F
:102930009395F695879577956795B795F111F8CFAB
:10294000FAF4BB0F11F460FF1BC06F5F7F4F8F4F16
:102950009F4F16C0882311F096E911C0772321F00C
:102960009EE8872F762F05C0662371F096E8862FA4
:1029700070E060E02AF09A95660F771F881FDAF7FB
:10298000880F9695879597F90895990F0008550F28
:10299000AA0BE0E8FEEF16161706E807F907C0F0E5
:1029A00012161306E407F50798F0621B730B840BED
:1029B000950B39F40A2661F0232B242B252B21F4C7
:1029C00008950A2609F4A140A6958FEF811D811D67
:1029D000089597F99F6780E870E060E008959FEFA1
:1029E00080EC089500240A941616170618060906A6
:1029F000089500240A941216130614060506089575
:102A0000092E0394000C11F4882352F0BB0F40F4FC
:102A1000BF2B11F460FF04C06F5F7F4F8F4F9F4F3C
:102A2000089557FD9058440F551F59F05F3F71F0BE
:102A30004795880F97FB991F61F09F3F79F0879525
:102A40000895121613061406551FF2CF4695F1DFAE
:102A500008C0161617061806991FF1CF869571053E
:102A6000610508940895E894BB2766277727CB0172
:102A700097F908950E944D150C9400150E94F214C8
:102A800038F00E94F91420F0952311F00C94E91409
:102A90000C94EF1411240C9434150E94111570F34A
:102AA000959FC1F3950F50E0551F629FF001729FF3
:102AB000BB27F00DB11D639FAA27F00DB11DAA1F02
:102AC000649F6627B00DA11D661F829F2227B00D4F
:102AD000A11D621F739FB00DA11D621F839FA00DDA
:102AE000611D221F749F3327A00D611D231F849F2A
:102AF000600D211D822F762F6A2F11249F57504081
:102B00009AF0F1F088234AF0EE0FFF1FBB1F661FFB
:102B1000771F881F91505040A9F79E3F510580F0C4
:102B20000C94E9140C9434155F3FE4F3983ED4F30D
:102B3000869577956795B795F795E7959F5FC1F768
:102B4000FE2B880F911D9695879597F90895DB01C7
:102B50008F939F930E94D915BF91AF91A29F800D33
:102B6000911DA39F900DB29F900D11240895A1E295
:102B70001A2EAA1BBB1BFD010DC0AA1FBB1FEE1FF7
:102B8000FF1FA217B307E407F50720F0A21BB30B42
:102B9000E40BF50B661F771F881F991F1A9469F7BE
:102BA00060957095809590959B01AC01BD01CF011A
:102BB00008950E942016A59F900DB49F900DA49F8C
:102BC000800D911D11240895002E083090F0982F4B
:102BD000872F762F652F542F432F322F222708500F
:102BE000F4CF220F331F441F551F661F771F881F06
:102BF000991F0A95B2F7002D089597FD1094002EA5
:102C0000083098F00850232F342F452F562F672F68
:102C1000782F892F912DF4CF1594979587957795D7
:102C2000679557954795379527950A95AAF71124E3
:102C3000002D0895EE0FFF1F0590F491E02D0994EB
:102C4000A29FB001B39FC001A39F700D811D1124ED
:102C5000911DB29F700D811D1124911D0895F8944E
:022C6000FFCFA4
:102C6200000040001400540000000000FB015B0162
:102C720088014802B9019701AB01000000008104FC
:102C82005404EA0431042C0141043204000000001F
:102C920010065B01EA044803535246330039312ED1
:102CA20033204D487A00535752330039332E3320A4
:102CB2004D487A00535246320039382E37350031AA
:102CC2003034204D487A003130352E3535003130E0
:102CD2003720204D487A005253492072657465208E
:102CE200756E6F003130372E3830204D487A0038FB
:102CF200392E38204D487A0039302E3635204D5A3B
:102D0200200041746D6567612033323850004B6C8E
:102D1200617373696B006B4B617373696B00417212
:102D2200676F7669610039342E3030204D487A0061
:102D320042617965726E004F65737465727265697E
:102D42006368004B616E616C206B004B616E616C5D
:102D5200204B004B616E616C206B61005345454610
:102D6200554E4B000D0A00207374696C6C20616E25
:102D720020756E6B6E6F776E20627574746F6E2045
:022D820000004F
:00000001FF
