:020000040000FA
:10000000B2017429B216B21EB212B2190B28B2157F
:100010004420031832280830A3005820A20DA30B57
:100020000D28B21E3D2062205E20B21A32203720F9
:10003000220803106F29B216B21EB21232192528F7
:10004000FE39B300321503106F29321A2D28A6008D
:10005000321644200318322826084B200318322871
:10006000B21E6F293D20622032113212B2113608C1
:100070008400340884178004432836088400340937
:100080008005841780050800372062203D205E200F
:100090003308B2190138A2000830A300A20D0318DA
:1000A0003720031C3D2062205E20A30B4E28372002
:1000B00062203608840034080005FF3E37088400BB
:1000C000350940283708840035083A280408A60076
:1000D000360884008030B3050830A70003100318E9
:1000E000B30A8220A60CA70B6F280000AB1A330CB2
:1000F00082207221031482202F08A3002E08DB2007
:1001000003146F298413AB1F9128000834042B1F9C
:1001100034068000841700083404031C3406800071
:100120009C2800083404031C34062B1B3406800072
:100130008417340980059C282B081F39003EA10034
:100140002A08043E0318A10A0000E828B31329086E
:100150000319B3170530A8002730A3001030BC20C6
:100160000330A300E830BC20A3016430BC20A3010D
:100170000A30BC202408C328A2002508A1002408B6
:10018000A00038212008A000A8030319B3132908F0
:100190000319CD282802031808002008031DB313F3
:1001A000B31B0800303E6A298001840AFF3E031D0C
:1001B000D4286F29A301A200FF30A207031CA307C4
:1001C000031C6F290330A100E330E820DC28A101E3
:1001D000F43EA000A109FE30031CF128A00703187B
:1001E000EE28A0076400A10FEE2800002018F828D0
:1001F0002018FA280800013EA7000A30A200A30137
:100200003821A70B0029240808000310A00DA10D18
:10021000FF3E0318052920086F290310A10CA00C2C
:10022000FF3E03180D2920086F29A101A301A20098
:1002300001301D29A20006301D29A8002308210233
:10024000031D242922082002043003180130031959
:1002500002302805031DFF306F290038031DFF30D1
:100260000405031DFF306F290404031DFF306F29AF
:10027000A501A4011030A600210DA40DA50D220892
:10028000A4022308031C230FA50203184E292208E9
:10029000A40723080318230FA5070310A00DA10D21
:1002A000A60B3C2920086F291030A800A101A0014D
:1002B000A70CA60C031C62292208A0072308031818
:1002C000230FA107A10CA00CA50CA40CA80B582966
:1002D00024086F29840031088A00300882008313C3
:1002E0000313831264000800831675308F00831295
:1002F000073099009F0183169F011C308500203034
:10030000840060308312D420A03084002030D420B8
:100310006430DA200530B6002030B4005430AA0032
:10032000AB01AE01AF014C30672043306720443051
:10033000672044306720443067201930DA200530C8
:10034000B6002030B4005430AA00AB01AE01AF01BA
:100350004C306720433067204430672042306720AC
:100360004F3067201930DA200530B6002030B40055
:100370005430AA00AB01AE01AF014C3067204330CE
:10038000672044306720423067204C30672020309F
:100390006720363067201930DA200530B60001308A
:1003A000B4000530B7000230B500D0301D20073052
:1003B0001D2010301B200530B6002030B400543012
:1003C000AA00AB01AE01AF014C306720433067207B
:1003D0004430672043306720483067201930DA20E6
:1003E00064000519F429F0294F2564000519F9293D
:1003F000FC296430DA20F4290530B6002030B4003E
:100400005430AA00AB01AE01AF014C30672043303D
:10041000672044306720433067204230672019301E
:10042000DA200530B6002030B4005430AA00AB0109
:10043000AE01AF014C306720433067204430672065
:1004400057306720523067202030672031306720D6
:100450002C306720373067202D3067206400051965
:10046000322A2E2A1930DA205608D9000130DA0053
:10047000640005193C2A702B64008519422A01305A
:10048000DD00492A6400051A482A0230DD00492AA5
:10049000382A64005D08023C031D4F2A5A2A640072
:1004A00017305902031C572AD9016D2A592AD90A33
:1004B0006D2A382A64005908003C031D622A17304F
:1004C000D9006D2A64000230590203186A2AD90142
:1004D0006D2A6C2AD9036D2A382A64005A08013C17
:1004E000031D772A0730CA005908D6009E2A6400E7
:1004F0005A08023C031D812A0A30CA005908C80064
:100500009E2A64005A08033C031D8B2A0730CA0048
:100510005908D2009E2A64005A08043C031D952AFB
:100520000A30CA005908C6009E2A64005A08053CD1
:10053000031D9E2A0F30CA005908DB0064000330F7
:100540005A020318F82A0530B6002030B40054309F
:10055000AA00AB01AE01AF014C30672043306720E9
:1005600044306720573067205230672020306720A2
:10057000313067202C3067200230A9004A08A400DF
:10058000A5016630B000B101A6202D3067200230F1
:10059000A9005908A400A5016630B000B101A62049
:1005A0006430DA200530B6002030B4005430AA00A0
:1005B000AB01AE01AF014C306720433067204430BF
:1005C0006720573067205230672020306720313055
:1005D00067202C3067200230A9004A08A400A5013A
:1005E0006630B000B101A6202D3067206430DA20DB
:1005F000640003305A02031C522B0530B600203031
:10060000B4005430AA00AB01AE01AF014C306720FA
:1006100043306720443067205730672052306720CE
:1006200020306720323067202C3067200230A9004C
:100630004A08A400A5016630B000B101A6202D3003
:1006400067200230A9005908A400A5016630B00057
:10065000B101A6206430DA200530B6002030B400A5
:100660005430AA00AB01AE01AF014C3067204330DB
:100670006720443067205730672052306720203091
:100680006720323067202C3067200230A9004A08EA
:10069000A400A5016630B000B101A6202D3067206E
:1006A0006430DA2064005A08013C031D582B382AB4
:1006B00064005A08023C031D5E2B992B64005A0803
:1006C000033C031D642BF12B64005A08043C031DFA
:1006D0006A2BB02C64005A08053C031D702B062DB4
:1006E0000230DA004808D9000530B6002030B400E6
:1006F0005430AA00AB01AE01AF014C30672043304B
:100700006720443067205730672052306720203000
:100710006720313067202C3067203130672030303F
:1007200067202D3067201930DA2064000519992BD5
:10073000952B640005199D2BDD2C64008519A32BD6
:100740000130DD00AA2B6400051AA92B0230DD0060
:10075000AA2B992B64005D08023C031DB02BBA2B19
:1007600064003B305902031CB82BD9016D2ABA2B07
:10077000D90A6D2A64005908003C031DC22B3B3086
:10078000D9006D2A6400023059020318CA2BD9011E
:100790006D2ACC2BD9036D2A0330DA005208D90018
:1007A0000530B6002030B4005430AA00AB01AE01D1
:1007B000AF014C306720433067204430672057300A
:1007C00067205230672020306720323067202C307D
:1007D0006720373067202D30672064000519F12B22
:1007E000ED2B64000519F62BC526DB29640085195D
:1007F000FC2B0130DD00032C6400051A022C0230B2
:10080000DD00032CF12B4608013C031DFF30FF3AAD
:10081000B8004608033C031DFF30FF3ABA00380811
:1008200084003A083421BA00BB004608053C031D89
:10083000FF30FF3ABC003A083B0484003C083421F6
:10084000BC00BD004608073C031DFF30FF3ABE0058
:100850003C083D0484003E083421BE00BF00460829
:10086000083C031DFF30FF3AC0003E083F048400EF
:1008700040083421C000C10046080A3C031DFF3077
:10088000FF3AC20040084104840042083421C200FB
:10089000C30046080C3C031DFF30FF3AC400420869
:1008A0004304840044083421C400C50064004408A3
:1008B000450403195E2C1F30CD00602C1E30CD0086
:1008C00064005D08023C031D662C7C2CFF304D0744
:1008D000B800FF300318013EB9005908A000A1017B
:1008E0003908A30038081A21031D7A2C0130D900D9
:1008F0006D2A7C2CD90A6D2A640002305902031833
:10090000852C4D08D9006D2A872CD9036D2A043017
:10091000DA004608D9000530B6002030B400543063
:10092000AA00AB01AE01AF014C3067204330672015
:1009300044306720573067205230672020306720CE
:10094000323067202C30672031306720303067200C
:100950002D3067201930DA2064000519B02CAC2C3A
:1009600064000519B42CCC2B64008519BA2C013015
:10097000DD00C12C6400051AC02C0230DD00C12C42
:10098000B02C64005D08023C031DC72CD22C64000F
:100990000C305902031CD02C0130D9006D2AD22C06
:1009A000D90A6D2A6400023059020318DB2C0C307E
:1009B000D9006D2ADD2CD9036D2A0530DA005B08D9
:1009C000D9000530B6002030B4005430AA00AB0185
:1009D000AE01AF014C3067204330672044306720C0
:1009E0005730672052306720203067203230672030
:1009F0002C30672031306720353067202D3067205C
:100A00001930DA2064000519062D022D640005193D
:100A10000A2D872C64008519102D0130DD00172D5B
:100A20006400051A162D0230DD00172D062D640016
:100A30005D08023C031D1D2D292D64006330590201
:100A4000031C272DD9011E30DC006D2A292DD90A5F
:100A50006D2A5C081E3C031DFF30FF3AB8005908A0
:100A6000003C031DFF30FF3ABA00380884003A0802
:100A70002D21BA00BB0064003A083B040319452D40
:100A80001430DC006330D9006D2A64000230590252
:100A900003184D2DD9016D2A4F2DD9036D2A05302C
:100AA000B6000130B4000530B7000230B500D130D7
:100AB0001D2000301D200420D8000420C800042080
:100AC000D6000420D3000420D2000420C600042055
:100AD000DB000220D9005808A000A1010430102139
:100AE000B800B9010F30B8050030B9053808A600C4
:100AF0003908A7000A30A200A3015421B800250834
:100B0000B9000F305805BA00BB0138083A07C700D2
:100B10004708D8004808A000A10104301021B800FF
:100B2000B9010F30B8050030B9053808A6003908FA
:100B3000A7000A30A200A3015421B8002508B9007B
:100B40000F304805BA00BB0138083A07C70047080C
:100B5000C8005608A000A10104301021B800B90156
:100B60000F30B8050030B9053808A6003908A700CD
:100B70000A30A200A3015421B8002508B9000F30A3
:100B80005605BA00BB0138083A07C7004708D60027
:100B90005208A000A10104301021B800B9010F30A3
:100BA000B8050030B9053808A6003908A7000A3092
:100BB000A200A3015421B8002508B9000F30520546
:100BC000BA00BB0138083A07C7004708D2004608F8
:100BD000A000A10104301021B800B9010F30B80500
:100BE0000030B9053808A6003908A7000A30A2006D
:100BF000A3015421B8002508B9000F304605BA00FA
:100C0000BB0138083A07C7004708C6005B08A000C8
:100C1000A10104301021B800B9010F30B80500302F
:100C2000B9053808A6003908A7000A30A200A301B8
:100C30005421B8002508B9000F305B05BA00BB018C
:100C400038083A07C7004708DB000530B6002030F7
:100C5000B4005430AA00AB01AE01AF014C306720A4
:100C60004330672044306720573067205230672078
:100C700020306720313067202C30672031306720EA
:100C80002D306720483067206F306720753067202F
:100C9000723067203A306720203067200230A90088
:100CA0005608A400A5016630B000B101A6203A3074
:100CB00067200230A9004808A400A5016630B000F2
:100CC000B101A6203A3067200230A9005808A400DC
:100CD000A5016630B000B101A6201930DA20C90A9A
:100CE000640006304902031CC42EC9010530B60059
:100CF0002030B4005430AA00AB01AE01AF014C303B
:100D000067204330672044306720573067205230D7
:100D1000672020306720323067202C306720313048
:100D200067202D30672044306720613067207430A1
:100D30006720653067203A30672020306720023016
:100D4000A9005208A400A5016630B000B101A62098
:100D50002E3067200230A9004608A400A5016630A5
:100D6000B000B101A6202E3067203230672030302D
:100D700067200230A9005B08A400A5016630B0001E
:100D8000B101A6201930DA2008005B08A000A101FB
:100D90000430A200A3013821D40000300318013030
:100DA000D5005508013C031DFF30FF3AB800460846
:100DB000023C031DFF30FF3ABA00380884003A08AD
:100DC0002D21BA00BB005208A0001C301521BC0028
:100DD0003A083B0484003C082D21BC00BD0064009F
:100DE0003C083D040319F72E1C30D2001D2F550876
:100DF000003C031DFF30FF3AB8004608023C031DCB
:100E0000FF30FF3ABA00380884003A082D21BA00B2
:100E1000BB005208A0001C301521BC003A083B045E
:100E200084003C082D21BC00BD0064003C083D044A
:100E300003191D2F1D30D2001D2F5808A000A1013D
:100E40000130FB20B800B9013808A0003908A10022
:100E500004300821B8002108B9005808A000A101F9
:100E60000030FB20BA00BB0138083A07D900590806
:100E7000D8004808A000A1010130FB20B800B9014A
:100E80003808A0003908A10004300821B800210862
:100E9000B9004808A000A1010030FB20BA00BB0146
:100EA00038083A07D9005908C8005608A000A1011F
:100EB0000130FB20B800B9013808A0003908A100B2
:100EC00004300821B8002108B9005608A000A1018B
:100ED0000030FB20BA00BB0138083A07D900590896
:100EE000D6005208A000A1010130FB20B800B901D2
:100EF0003808A0003908A10004300821B8002108F2
:100F0000B9005208A000A1010030FB20BA00BB01CB
:100F100038083A07D9005908D2004608A000A101B4
:100F20000130FB20B800B9013808A0003908A10041
:100F300004300821B8002108B9004608A000A1012A
:100F40000030FB20BA00BB0138083A07D900590825
:100F5000C6005B08A000A1010130FB20B800B90168
:100F60003808A0003908A10004300821B800210881
:100F7000B9005B08A000A1010030FB20BA00BB0152
:100F800038083A07D9005908DB000530B6000130AF
:100F9000B4000530B7000230B500D1301D2000305C
:100FA0001D2058081D2048081D2056081D205308E4
:100FB0001D2052081D2046081D205B081B200A30FA
:040FC000DA2008002B
:02400E00C430BC
:00000001FF
