:020000040000FA
:10000000CA280408A600360884008030B3050830EA
:10001000A70003100318B30A1D20A60CA70B0A287B
:100020000000AB1A330C1D20C82003141D202F081C
:10003000A3002E0883200314C5288413AB1F2C288B
:10004000000834042B1F3406800084170008340491
:10005000031C34068000372800083404031C3406CF
:100060002B1B3406800084173409800537282B08A1
:100070001F39FF3EA1002A08F53E0318A10A00001F
:100080009028B31329080319B3170430A800250ECC
:100090004E2025084E20240E4E2024080F39F63E0F
:1000A0000318073E0A3E7128B31329080319B31732
:1000B0000530A8002730A30010306A200330A300C9
:1000C000E8306A20A30164306A20A3010A306A2064
:1000D00024087128A2002508A1002408A000A4205B
:1000E0002008A000A8030319B313290803197B28CB
:1000F0002802031808002008031DB313B31B0800CF
:10010000303EC028A301A200FF30A207031CA307B2
:10011000031CC5280330A100DF3090208428A101F2
:10012000E83EA000A109FC30031C9928A007031891
:100130009628A0076400A10F962820189F28A01CCD
:10014000A3280000A3280800A501A4011030A600E0
:10015000210DA40DA50D2208A4022308031C230FC2
:10016000A5020318BA282208A40723080318230F9E
:10017000A5070310A00DA10DA60BA8282008C528CF
:10018000840031088A00300882008313031383122D
:1001900064000800831660308F00831207309900D6
:1001A0009F0183169F0183120530A3001430832022
:1001B0000530B6002030B4008C30AA000130AB000E
:1001C000AE01AF014C300220433002204430022007
:1001D00044300220443002200330A300E830832062
:1001E0000530B6002030B4008C30AA000130AB00DE
:1001F000AE01AF014C3002204330022044300220D7
:1002000044300220443002200330A300E830832031
:100210000530B6002030B4008C30AA000130AB00AD
:10022000AE01AF014C3002204330022044300220A6
:100230004E30022043300220203002203330022092
:100240002D3002200E30022010300220103002200B
:100250000E30022001300220053002201E30022024
:10026000043002200330A300E83083200530B600BC
:100270002030B4008C30AA000130AB00AE01AF01D9
:100280004C300220433002204430022057300220FC
:100290005230022020300220313002202C30022047
:1002A000313002202D300220413002200330022064
:1002B000493002204B3002200330A300E830832075
:1002C0000530B6002030B4008C30AA000130AB00FD
:1002D000AE01AF014C3002204330022044300220F6
:1002E00057300220523002202030022032300220CB
:1002F0002C300220313002202D3002200330022029
:10030000203002204E30022045300220573002209B
:1003100020300220433002204830022041300220A9
:10032000523002204130022043300220543002205B
:1003300045300220523002200330A300E8308320F1
:100340000530B6002030B4008C30AA000130AB007C
:10035000AE01AF014C300220433002204430022075
:10036000573002205230022020300220323002204A
:100370002C300220313002202D3002204830022063
:100380004530022058300220203002200230A900DF
:100390004130A400A5010130B000B101412020305E
:1003A0000220443002204530022043300220203019
:1003B00002200230A9004130A400A5010130B000A4
:1003C000B10154202830022041300220293002207F
:1003D0000330A300E83083200530B6002030B4009D
:1003E0008C30AA000130AB00AE01AF014C300220CE
:1003F0004330022044300220573002205230022085
:1004000020300220313002202C30022031300220F6
:100410002D30022044300220493002205330022087
:10042000503002202E30022020300220573002208F
:10043000493002204C3002204C3002202030022073
:10044000433002204C3002204F3002205330022033
:10045000453002200330A300E83083200530B60089
:100460002030B4008C30AA000130AB00AE01AF01E7
:100470004C3002204330022044300220443002201D
:10048000433002200330A300E83083200530B6005B
:100490002030B4008C30AA000130AB00AE01AF01B7
:1004A0004C300220433002204430022057300220DA
:1004B0005230022020300220313002202C30022025
:1004C000313002202D3002204430022049300220F9
:1004D0005330022050300220203002204F300220C2
:1004E00050300220453002204E300220453002209C
:1004F0004430022020300220203002202030022010
:1005000020300220203002200330A300E830832076
:100510000530B6002030B4008C30AA000130AB00AA
:10052000AE01AF014C3002204330022044300220A3
:10053000443002204F3002200330A300E8308320F3
:100540000530B6002030B4008C30AA000130AB007A
:10055000AE01AF014C300220433002204430022073
:100560005730022052300220203002203130022049
:100570002C300220313002202D3002204330022066
:1005800055300220523002202E30022055300220F9
:100590004E300220443002204530022052300220EA
:1005A00020300220203002200330A300E8308320D6
:1005B0000530B6002030B4008C30AA000130AB000A
:1005C000AE01AF014C300220433002204430022003
:1005D00043300220553002200330A300E83083204E
:1005E0000530B6002030B4008C30AA000130AB00DA
:1005F000AE01AF014C3002204330022044300220D3
:1006000057300220523002202030022031300220A8
:100610002C300220313002202D30022043300220C5
:1006200055300220523002202E3002204830022065
:10063000493002204430022044300220453002205C
:100640004E300220203002200330A300E830832007
:100650000530B6002030B4008C30AA000130AB0069
:10066000AE01AF014C300220433002204430022062
:1006700043300220483002200330A300E8308320BA
:100680000530B6002030B4008C30AA000130AB0039
:10069000AE01AF014C300220433002204430022032
:1006A0005730022052300220203002203130022008
:1006B0002C300220313002202D3002204330022025
:1006C00055300220523002202E30022042300220CB
:1006D0004F300220583002202030022020300220EB
:1006E00020300220203002200330A300E830832095
:1006F0000530B6002030B4008C30AA000130AB00C9
:10070000AE01AF014C3002204330022044300220C1
:1007100043300220423002200330A300E83083201F
:100720000530B6002030B4008C30AA000130AB0098
:10073000AE01AF014C300220433002204430022091
:100740005730022052300220203002203130022067
:100750002C300220313002202D3002204330022084
:100760005530022052300220203002205330022027
:100770004830022049300220463002205430022006
:10078000203002204C3002203C3002203D3002203C
:100790000330A300E83083200530B6002030B400D9
:1007A0008C30AA000130AB00AE01AF014C3002200A
:1007B0004330022044300220433002204C300220DB
:1007C0000330A300E83083200530B6002030B400A9
:1007D0008C30AA000130AB00AE01AF014C300220DA
:1007E0004330022044300220433002204C300220AB
:1007F0000330A300E83083200530B6002030B40079
:100800008C30AA000130AB00AE01AF014C300220A9
:100810004330022044300220433002204C3002207A
:100820000330A300E83083200530B6002030B40048
:100830008C30AA000130AB00AE01AF014C30022079
:100840004330022044300220573002205230022030
:1008500020300220313002202C30022031300220A2
:100860002D30022043300220553002205230022029
:10087000203002205330022048300220493002202C
:100880004630022054300220203002205230022014
:100890003D3002203E3002200330A300E8308320A8
:1008A0000530B6002030B4008C30AA000130AB0017
:1008B000AE01AF014C300220433002204430022010
:1008C00043300220523002200330A300E83083205E
:1008D0000530B6002030B4008C30AA000130AB00E7
:1008E000AE01AF014C3002204330022044300220E0
:1008F00043300220523002200330A300E83083202E
:100900000530B6002030B4008C30AA000130AB00B6
:10091000AE01AF014C3002204330022044300220AF
:1009200043300220523002200330A300E8308320FD
:100930000530B6002030B4008C30AA000130AB0086
:10094000AE01AF014C30022043300220443002207F
:100950005730022052300220203002203130022055
:100960002C300220313002202D3002204430022071
:100970004930022053300220503002202E30022015
:10098000203002205330022048300220493002201B
:100990004630022054300220203002205230022003
:1009A0003D3002203D3002203E3002200330A300C3
:1009B000E83083200530B6002030B4008C30AA0027
:1009C0000130AB00AE01AF014C30022043300220B9
:1009D0004430022053300220523002200330A30062
:1009E000E83083200530B6002030B4008C30AA00F7
:1009F0000130AB00AE01AF014C3002204330022089
:100A00004430022053300220523002200330A30031
:100A1000E83083200530B6002030B4008C30AA00C6
:100A20000130AB00AE01AF014C3002204330022058
:100A30004430022057300220523002202030022061
:100A4000313002202C300220313002202D300220A3
:100A5000443002204930022053300220503002201E
:100A60002E30022020300220533002204830022055
:100A7000493002204630022054300220203002202B
:100A80004C3002203C3002203D3002203D3002201C
:100A90000330A300E83083200530B6002030B400D6
:100AA0008C30AA000130AB00AE01AF014C30022007
:100AB0004330022044300220533002204C300220C8
:100AC0000330A300E83083200530B6002030B400A6
:100AD0008C30AA000130AB00AE01AF014C300220D7
:100AE0004330022044300220533002204C30022098
:100AF0000330A300E83083200530B6002030B40076
:100B00008C30AA000130AB00AE01AF014C300220A6
:100B1000433002204430022057300220523002205D
:100B200020300220313002202C30022031300220CF
:100B30002D30022043300220553002205230022056
:100B4000533002204F300220523002202030022049
:100B5000483002204F3002204D3002204530022024
:100B600020300220203002202030022020300220BD
:100B7000203002200330A300E83083200530B60087
:100B80002030B4008C30AA000130AB00AE01AF01C0
:100B90004C300220433002204430022048300220F2
:100BA0004F3002200330A300E83083200530B60028
:100BB0002030B4008C30AA000130AB00AE01AF0190
:100BC0004C300220433002204430022043300220C7
:100BD000483002200330A300E83083200530B600FF
:100BE0002030B4008C30AA000130AB00AE01AF0160
:100BF0004C30022043300220443002205730022083
:100C00005230022020300220313002202C300220CD
:100C1000313002202D3002204530022045300220A4
:100C200050300220523002204F3002204D3002203E
:100C30002030022052300220453002204330022072
:100C40004F3002205230022044300220493002202E
:100C50004E300220473002200330A300E8308320CA
:100C60000530B6002030B4008C30AA000130AB0053
:100C7000AE01AF014C30022043300220443002204C
:100C80004530022057300220203002203030022030
:100C90002D3002200A3002200030022011300220C4
:100CA0001130022011300220113002200E300220BB
:100CB000003002200330A300E83083200530B60066
:100CC0002030B4008C30AA000130AB00AE01AF017F
:100CD0004C300220433002204430022045300220B4
:100CE0005730022020300220313002202D300220E7
:100CF0000E3002201130022010300220103002206D
:100D0000113002200E300220043002200030022078
:100D10000330A300E83083200530B6002030B40053
:100D20008C30AA000130AB00AE01AF014C30022084
:100D3000433002204430022053300220433002204E
:100D400020300220313002202C30022033300220AB
:100D50002D3002200330A300E83083200530B60098
:100D60002030B4008C30AA000130AB00AE01AF01DE
:100D70004C30022043300220443002205730022001
:100D80005230022020300220323002202C3002204B
:100D9000313002202D300220413002200330022069
:100DA000493002204B300220203002202030022027
:100DB000203002202030022020300220203002206B
:100DC000203002202030022020300220203002205B
:100DD00020300220203002200330A300E83083209E
:100DE0000530B6002030B4008C30AA000130AB00D2
:100DF000AE01AF014C3002204330022044300220CB
:100E000057300220523002202030022031300220A0
:100E10002C300220313002202D30022003300220FD
:100E20002030022052300220453002204130022082
:100E3000443002202030022043300220483002207B
:100E40002E30022020300220453002205030022077
:100E5000523002204F3002204D3002200330A300D8
:100E6000E83083200530B6002030B4008C30AA0072
:100E70000130AB00AE01AF014C3002204330022004
:100E8000443002205730022052300220203002200D
:100E9000313002202C300220313002202D3002204F
:100EA00052300220453002204130022044300220DE
:100EB0002030022020300220203002204330022047
:100EC00048300220413002205230022041300220BE
:100ED000433002205430022045300220523002209C
:100EE0000330A300E83083200530B6002030B40082
:100EF0008C30AA000130AB00AE01AF014C300220B3
:100F0000433002204430022052300220433002207D
:100F100020300220313002202C30022031300220DB
:100F2000343002202D3002200330A300E83083202B
:100F30000530B6002030B4008C30AA000130AB0080
:100F4000AE01AF014C300220433002204430022079
:100F500044300220443002200330A300E8308320D4
:100F60000530B6002030B4008C30AA000130AB0050
:100F7000AE01AF014C300220433002204430022049
:100F800043300220423002200330A300E8308320A7
:100F90000530B6002030B4008C30AA000130AB0020
:100FA000AE01AF014C300220433002204430022019
:100FB00045300220523002200330A300E830832065
:040FC0006300E02FBB
:02400E00C430BC
:00000001FF
