:100000000C9453000C947B000C947B000C947B00AC
:100010000C947B000C947B000C947B000C947B0074
:100020000C947B000C947B000C947B000C947B0064
:100030000C947B000C947B000C947B000C947B0054
:100040000C9477020C947B000C9445020C941F02D4
:100050000C947B000C947B000C947B000C947B0034
:100060000C947B000C947B0000000000250028000D
:100070002B0000000000240027002A0004040404D0
:100080000404040402020202020203030303030342
:10009000010204081020408001020408102001021F
:1000A000040810208E0311241FBECFEFD8E0DEBF5E
:1000B000CDBF11E0A0E0B1E0E6E8F7E002C00590B6
:1000C0000D92A83AB107D9F722E0A8EAB1E001C041
:1000D0001D92AE34B207E1F710E0C3E5D0E004C0F2
:1000E0002197FE010E94BB03C235D107C9F70E94C8
:1000F000C1020C94C1030C940000AF92BF92CF9246
:10010000DF92EF92FF920F931F93CF93DF936C01D7
:100110007B018B01040F151FEB015E01AE18BF08B8
:10012000C017D10759F06991D601ED91FC9101906A
:10013000F081E02DC6010995892B79F7C501DF9182
:10014000CF911F910F91FF90EF90DF90CF90BF90D4
:10015000AF900895FC01538D448D252F30E0842FFE
:1001600090E0821B930B541710F0CF9608950197DF
:100170000895FC01918D828D981761F0A28DAE0FCC
:10018000BF2FB11D5D968C91928D9F5F9F73928F53
:1001900090E008958FEF9FEF0895FC01918D828D7F
:1001A000981731F0828DE80FF11D858D90E008954C
:1001B0008FEF9FEF0895FC01918D228D892F90E0A4
:1001C000805C9F4F821B91098F739927089581EB63
:1001D00091E00E94DB0021E0892B09F420E0822FCE
:1001E000089580E090E0892B29F00E94E7008111BA
:1001F0000C9400000895FC01A48DA80FB92FB11D27
:10020000A35ABF4F2C91848D90E001968F7399274C
:10021000848FA689B7892C93A089B1898C9183702A
:1002200080648C93938D848D981306C00288F38923
:10023000E02D80818F7D80830895EF92FF920F9350
:100240001F93CF93DF93EC0181E0888F9B8D8C8D82
:1002500098131AC0E889F989808185FF15C09FB776
:10026000F894EE89FF896083E889F9898081837039
:10027000806480839FBF81E090E0DF91CF911F91E8
:100280000F91FF90EF900895F62E0B8D10E00F5F09
:100290001F4F0F731127E02E8C8D8E110CC00FB6DF
:1002A00007FCFACFE889F989808185FFF5CFCE0177
:1002B0000E94FB00F1CFEB8DEC0FFD2FF11DE35AF7
:1002C000FF4FF0829FB7F8940B8FEA89FB898081FA
:1002D0008062CFCFCF93DF93EC01888D8823B9F074
:1002E000AA89BB89E889F9898C9185FD03C0808141
:1002F00086FD0DC00FB607FCF7CF8C9185FFF2CFBE
:10030000808185FFEDCFCE010E94FB00E9CFDF9118
:10031000CF910895CF93DF9390E0FC01E057FF4F1A
:10032000249184589F4FFC0184918823D1F090E060
:10033000880F991FFC01EE58FF4FA591B491FC0165
:10034000E859FF4FC591D49161110EC09FB7F89441
:100350008C91E22FE0958E238C932881E223E88311
:100360009FBFDF91CF9108958FB7F894EC91E22B66
:10037000EC938FBFF6CF3FB7F8948091AD01909189
:10038000AE01A091AF01B091B00126B5A89B05C008
:100390002F3F19F00196A11DB11D3FBFBA2FA92F04
:1003A000982F8827BC01CD01620F711D811D911D01
:1003B00042E0660F771F881F991F4A95D1F708956D
:1003C0008F929F92AF92BF92CF92DF92EF92FF9265
:1003D0004B015C010E94BB016B017C010E94BB01CF
:1003E0006C197D098E099F09683E7340810591054E
:1003F000A8F321E0821A9108A108B10888EEC80E7E
:1004000083E0D81EE11CF11C81149104A104B10405
:1004100029F7FF90EF90DF90CF90BF90AF909F9023
:100420008F9008952A988EBD0DB407FEFDCF2A9AAD
:10043000289A319BFECF28983199FECF08951F92BC
:100440000F920FB60F9211242F933F934F935F9308
:100450006F937F938F939F93AF93BF93EF93FF938C
:1004600081EB91E00E94FB00FF91EF91BF91AF9172
:100470009F918F917F916F915F914F913F912F91BC
:100480000F900FBE0F901F9018951F920F920FB6EE
:100490000F9211242F938F939F93EF93FF93E091EB
:1004A000C101F091C2018081E091C701F091C801C2
:1004B00082FD1BC090818091CA018F5F8F73209154
:1004C000CB01821741F0E091CA01F0E0EF54FE4FFA
:1004D000958F8093CA01FF91EF919F918F912F91FA
:1004E0000F900FBE0F901F9018958081F4CF1F9230
:1004F0000F920FB60F9211242F933F938F939F93D8
:10050000AF93BF938091A9019091AA01A091AB01F3
:10051000B091AC013091A80123E0230F2D3758F59D
:100520000196A11DB11D2093A8018093A90190936C
:10053000AA01A093AB01B093AC018091AD01909161
:10054000AE01A091AF01B091B0010196A11DB11D06
:100550008093AD019093AE01A093AF01B093B00131
:10056000BF91AF919F918F913F912F910F900FBEAF
:100570000F901F90189526E8230F0296A11DB11D1C
:10058000D2CF789484B5826084BD84B5816084BD07
:1005900085B5826085BD85B5816085BD80916E0021
:1005A000816080936E001092810080918100826052
:1005B000809381008091810081608093810080918F
:1005C00080008160809380008091B100846080937E
:1005D000B1008091B00081608093B00080917A007A
:1005E000846080937A0080917A00826080937A00A0
:1005F00080917A00816080937A0080917A0080688F
:1006000080937A001092C10061E08BE00E948A0121
:1006100061E08DE00E948A0161E08AE00E948A0127
:1006200080E58CBD8DB581608DBD61E088E00E9464
:100630008A0160E08FE00E948A012898E091C10160
:10064000F091C20182E08083E091BD01F091BE0192
:100650001082E091BF01F091C00180E1808310928F
:10066000C901E091C501F091C60186E08083E09167
:10067000C301F091C401808180618083E091C30156
:10068000F091C401808188608083E091C301F09182
:10069000C401808180688083E091C301F091C4012E
:1006A00080818F7D808360ED77E080E090E00E9424
:1006B000E001C2E1D1E08E01F80181918F010E9439
:1006C0001202F1E0063A1F07B9F780E00E94120219
:1006D0002A988FEF8EBD0DB407FEFDCF2A9A64E6EF
:1006E00070E080E090E00E94E001699181EB91E090
:1006F0000E941D0181E0C63AD807B9F76AE081EB94
:1007000091E00E941D01C0E0D0E02097F1F30E942B
:10071000E7008823D1F30E940000F7CFE1EBF1E07E
:100720001382128288EE93E0A0E0B0E08483958388
:10073000A683B78384E091E09183808385EC90E089
:100740009587848784EC90E09787868780EC90E09B
:10075000918B808B81EC90E0938B828B82EC90E08C
:10076000958B848B86EC90E0978B868B118E128E06
:10077000138E148E0895EE0FFF1F0590F491E02D57
:060780000994F894FFCF7C
:10078600000000001D017D00AA006A01DB00B9001F
:10079600CD004D696B726F626F74696B20456C6535
:1007A6006B74726F6E696B20506C6174666F726DDC
:1007B6007520696C6520646F6E616E696D20766563
:1007C6002079617A696C696D206D616E74696769FB
:1007D6006E69206B7574757068616E6573697A20D1
:1007E6006F6772656E69796F72757A2E2042752011
:1007F60064656E657920706172616C656C207665E2
:1008060020736572692068616265726C65736D65D7
:100816002068697A206661726B696E6920676F73FA
:0808260074657269722E000076
:00000001FF
