:100000000C9463000C948B000C948B000C948B006C
:100010000C948B000C948B000C948B000C948B0034
:100020000C948B000C948B000C948B000C948B0024
:100030000C948B000C948B000C948B000C948B0014
:100040000C942D030C948B000C94FB020C94D502A1
:100050000C948B000C948B000C948B000C948B00F4
:100060000C948B000C948B000000000024002700EF
:100070002A000000000023002600290000000000E4
:10008000250028002B0004040404040404040202D4
:100090000202020203030303030301020408102007
:1000A0004080010204081020010204081020000012
:1000B0000008000201000003040700000000000027
:1000C0000000BC036A0611241FBECFEFD8E0DEBFDC
:1000D000CDBF22E0ACEAB1E001C01D92A638B20764
:1000E000E1F711E0A0E0B1E0ECE8F4E102C0059036
:1000F0000D92AC3AB107D9F710E0C2E6D0E004C0E7
:100100002197FE010E942708C136D107C9F70E9436
:10011000F7030C94390A0C940000EBEBF0E0249107
:10012000E7EAF0E09491E3E9F0E0E491EE2309F4EA
:100130003BC0222339F1233091F038F42130A9F06B
:10014000223001F524B52F7D12C0273091F02830E0
:10015000A1F02430B9F4209180002F7D03C02091BC
:1001600080002F77209380000DC024B52F7724BD09
:1001700009C02091B0002F7703C02091B0002F7DDF
:100180002093B000F0E0EE0FFF1FE458FF4FA59161
:10019000B4912FB7F894EC91811103C090959E23F0
:1001A00001C09E2B9C932FBF0895CF92DF92EF92B8
:1001B000FF920F931F93CF93DF936C017A018B0112
:1001C000C0E0D0E0CE15DF0589F0D8016D918D013A
:1001D000D601ED91FC910190F081E02DC6010995C9
:1001E000892B11F47E0102C02196ECCFC701DF916B
:1001F000CF911F910F91FF90EF90DF90CF900895D6
:10020000089580E090E00895FC01538D448D252FE2
:1002100030E0842F90E0821B930B541710F0CF96A0
:10022000089501970895FC01918D828D981761F0D2
:10023000828DDF01A80FB11D5D968C91928D9F5F1D
:100240009F73928F90E008958FEF9FEF0895FC01C8
:10025000918D828D981731F0828DE80FF11D858D7B
:1002600090E008958FEF9FEF0895FC01918D228D0E
:10027000892F90E0805C9F4F821B91098F73992793
:1002800008958FED91E00E94350121E0892B09F45A
:1002900020E0822F0895FC01848DDF01A80FB11D9D
:1002A000A35ABF4F2C91848D90E001968F739927AC
:1002B000848FA689B7892C93A089B1898C91806499
:1002C0008C93938D848D981306C00288F389E02D5A
:1002D00080818F7D80830895EF92FF920F931F930B
:1002E000CF93DF93EC0181E0888F9B8D8C8D9813E9
:1002F00005C0E889F989808185FD24C0F62E0B8D23
:1003000010E00F5F1F4F0F731127E02E8C8DE81246
:100310000CC00FB607FCFACFE889F989808185FF08
:10032000F5CFCE010E944B01F1CF8B8DFE01E80F7E
:10033000F11DE35AFF4FF0820B8FEA89FB89808120
:10034000806207C0EE89FF896083E889F98980812E
:100350008064808381E090E0DF91CF911F910F91C5
:10036000FF90EF900895682F8FED91E00C946C0151
:10037000CF93DF93EC01888D8823C9F0EA89FB894C
:10038000808185FD05C0A889B9898C9186FD0FC043
:100390000FB607FCF5CF808185FFF2CFA889B98918
:1003A0008C9185FFEDCFCE010E944B01E7CFDF910D
:1003B000CF91089580E090E0892B29F00E944101BF
:1003C00081110C9400000895CF93DF9390E0FC011D
:1003D000E656FF4F2491FC01EA57FF4F8491882392
:1003E00061F190E0880F991FFC01E859FF4FC5911A
:1003F000D491FC01E458FF4FA591B491611109C05B
:100400009FB7F8948881209582238883EC912E23CE
:100410000BC0623061F49FB7F8943881822F8095C9
:1004200083238883EC912E2B2C939FBF06C08FB71C
:10043000F894E8812E2B28838FBFDF91CF91089508
:100440003FB7F8948091B1019091B201A091B301AE
:10045000B091B40126B5A89B05C02F3F19F00196B5
:10046000A11DB11D3FBFBA2FA92F982F8827820F3A
:10047000911DA11DB11DBC01CD0142E0660F771F8A
:10048000881F991F4A95D1F708958F929F92AF9236
:10049000BF92CF92DF92EF92FF926B017C010E949C
:1004A00020024B015C01C114D104E104F104F1F01C
:1004B0000E942002DC01CB0188199909AA09BB0915
:1004C000883E9340A105B10570F321E0C21AD1081E
:1004D000E108F10888EE880E83E0981EA11CB11C8B
:1004E000C114D104E104F10419F7DDCFFF90EF90BE
:1004F000DF90CF90BF90AF909F908F90089500971E
:1005000069F0FC0101900020E9F73197AF01481B29
:10051000590BBC018FED91E00C94D50080E090E088
:1005200008950C947F020E94240AEF92FF920F9389
:100530001F93CF93DF93EC017B018A01888199811E
:10054000009729F02A813B8124173507F8F4B80178
:100550006F5F7F4F0E945A09009759F099838883F3
:100560001B830A832C813D81232B81F4FC011082A3
:100570000DC088819981009711F00E94C2081982EC
:1005800018821D821C821B821A8207C01D830C8365
:10059000B701888199810E94320ACE01DF91CF9103
:1005A0001F910F91FF90EF9008951F920F920FB639
:1005B0000F9211242F933F934F935F936F937F93E9
:1005C0008F939F93AF93BF93EF93FF938FED91E042
:1005D0000E944B01FF91EF91BF91AF919F918F913D
:1005E0007F916F915F914F913F912F910F900FBE2F
:1005F0000F901F9018951F920F920FB60F92112413
:100600002F938F939F93EF93FF93E091EF01F091DE
:10061000F0018081E091F501F091F60182FD12C0B8
:1006200090818091F8018F5F8F732091F90182177B
:1006300051F0E091F801F0E0E152FE4F958F809388
:10064000F80101C08081FF91EF919F918F912F91CF
:100650000F900FBE0F901F9018951F920F920FB61C
:100660000F9211242F933F938F939F93AF93BF9338
:100670008091AD019091AE01A091AF01B091B00118
:100680003091AC0123E0230F2D3720F40196A11DFA
:10069000B11D05C026E8230F0296A11DB11D2093B0
:1006A000AC018093AD019093AE01A093AF01B093E4
:1006B000B0018091B1019091B201A091B301B091CC
:1006C000B4010196A11DB11D8093B1019093B201B7
:1006D000A093B301B093B401BF91AF919F918F915B
:1006E0003F912F910F900FBE0F901F901895CF92B2
:1006F000DF92EF92FF920F931F93E82FF92F05C01F
:10070000015011092109310961F190819623941753
:10071000B9F305C0015011092109310911F1908186
:1007200096239413F7CFC12CD12CE12CF12C0AC0C5
:100730008FEFC81AD80AE80AF80A0C151D052E050D
:100740003F0579F080818623841791F36C2D7D2DF0
:100750008E2D9F2D1F910F91FF90EF90DF90CF90E6
:10076000089560E070E080E090E01F910F91FF90AD
:10077000EF90DF90CF900895EFEDF1E013821282B9
:1007800088EE93E0A0E0B0E084839583A683B783EE
:100790008AE091E09183808385EC90E0958784875F
:1007A00084EC90E09787868780EC90E0918B808B3B
:1007B00081EC90E0938B828B82EC90E0958B848B24
:1007C00086EC90E0978B868B118E128E138E148E92
:1007D000ECE7F2E0118210821382128215821482F9
:1007E0004AE050E068E171E0CF010C949502CF93AC
:1007F000DF93CDB7DEB7A1970FB6F894DEBF0FBE7B
:10080000CDBF789484B5826084BD84B5816084BD99
:1008100085B5826085BD85B5816085BD80916E009E
:10082000816080936E0010928100809181008260CF
:10083000809381008091810081608093810080910C
:1008400080008160809380008091B10084608093FB
:10085000B1008091B00081608093B00080917A00F7
:10086000846080937A0080917A00826080937A001D
:1008700080917A00816080937A0080917A0080680C
:1008800080937A001092C100E091EF01F091F001A5
:1008900082E08083E091EB01F091EC011082E09125
:1008A000ED01F091EE018FEC80831092F701E09161
:1008B000F301F091F40186E08083E091F101F09181
:1008C000F201808180618083E091F101F091F20179
:1008D000808188608083E091F101F091F201808154
:1008E00080688083E091F101F091F20180818F7D39
:1008F000808361E08DE00E94E40160E08CE00E9472
:10090000E40161E08BE00E94E40161E08AE00E9482
:10091000E40183E291E00E9491026CE271E080E0E8
:1009200090E00E94450289E291E00E9491026CE20F
:1009300071E080E090E00E94450284E391E00E9433
:1009400091026CE271E080E090E00E9445028FE34A
:1009500091E00E9491026CE271E080E090E00E94E0
:1009600045028AE491E00E9491026CE271E080E02D
:1009700090E00E94450285E591E00E9491026CE2C0
:1009800071E080E090E00E944502B3E02B2E312C14
:1009900013E2812E912C00E2A02EB12C8AE0482E89
:1009A000512C612C712C80E00E948D00C1010197B7
:1009B000F1F781E00E948D00C4010197F1F780E01A
:1009C0000E948D00E6EAF0E06491E2E9F0E08491B3
:1009D000E82FF0E0EE0FFF1FEE58FF4F8591949146
:1009E00000E412E42FE030E0462F0E947703611507
:1009F00071058105910539F0DC01CB010196A11D3E
:100A0000B11DBF7003C080E090E0DC01BC01CD01EE
:100A100095958795779567950E9472062DEC3CEC2D
:100A200048EE51E40E9435070E94A7078B019C0104
:100A3000CB011093DE010093DD01643071051CF4DD
:100A400080E691E008C0A801415051094F3851405B
:100A500048F08BE791E00E9491026CE271E080E047
:100A600090E02DC165E070E00E94DD07FB0170930E
:100A7000DC016093DB01CB0165E070E00E94DD07E3
:100A80007B017093DA016093D9014BEFBF014603FC
:100A9000C001479F900D1124080F191F1093D80112
:100AA0000093D7014AE050E068E171E08CE792E002
:100AB0000E949502E7EBF1E081E090E0E816F9068C
:100AC00024F0119211920196F9CF0115110541F40C
:100AD000F701EE0FFF1FE954FE4FB182A08213C051
:100AE0000130110549F00230110531F003301105D4
:100AF00019F00430110539F4F701EE0FFF1FE95426
:100B0000FE4F1183008320E130E02E193F09EE0CE7
:100B1000FF1C80E090E001968217930751F0FC01E2
:100B2000EE0FFF1FEE0DFF1DEB54FE4FB382A282AE
:100B3000F2CF409180025091810260917C027091CD
:100B40007D028FED91E00E94D5008091B7019091D8
:100B5000B8010E94B3018091B9019091BA010E943D
:100B6000B3018091BB019091BC010E94B3018091BF
:100B7000BD019091BE010E94B3018091BF0190918F
:100B8000C0010E94B3018091C1019091C2010E94F5
:100B9000B3018091C3019091C4010E94B30180917F
:100BA000C5019091C6010E94B3018091C701909147
:100BB000C8010E94B3018091C9019091CA010E94AD
:100BC000B3018091CB019091CC010E94B30180913F
:100BD000CD019091CE010E94B3018091CF019091FF
:100BE000D0010E94B3018091D1019091D2010E9465
:100BF000B3018091D3019091D4010E94B3018091FF
:100C0000D5019091D6010E94B30164E670E080E0C6
:100C100090E00E94450286E991E00E9491022091B5
:100C2000DD013091DE016901330FEE08FF08F7FEA8
:100C300026C0E091DF01F091E0010190F081E02D0C
:100C40006DE28FED91E0099522273327A9012C1938
:100C50003D094E095F0919A28E010F5D1F4FCA01A0
:100C6000B901A30192010E94F107605DF80162934E
:100C70008F01211531054105510589F715C0A701DF
:100C8000960119A28E010F5D1F4FCA01B901A30180
:100C900092010E94F107605DF80162938F012115B6
:100CA00031054105510589F7C8010E947F0287E798
:100CB00091E00E94910264E670E080E090E00E9482
:100CC000450262E370E080E090E00E9445020E94ED
:100CD000DA0169CE80917C0290917D020C94C20869
:100CE000E89409C097FB3EF49095809570956195C6
:100CF0007F4F8F4F9F4F9923A9F0F92F96E9BB277C
:100D00009395F695879577956795B795F111F8CFF7
:100D1000FAF4BB0F11F460FF1BC06F5F7F4F8F4F62
:100D20009F4F16C0882311F096E911C0772321F058
:100D30009EE8872F762F05C0662371F096E8862FF0
:100D400070E060E02AF09A95660F771F881FDAF747
:100D5000880F9695879597F9089597F99F6780E88A
:100D600070E060E008959FEF80EC089500240A94FD
:100D70001616170618060906089500240A94121676
:100D80001306140605060895092E0394000C11F4A9
:100D9000882352F0BB0F40F4BF2B11F460FF04C056
:100DA0006F5F7F4F8F4F9F4F089557FD9058440FAF
:100DB000551F59F05F3F71F04795880F97FB991FBA
:100DC00061F09F3F79F08795089512161306140677
:100DD000551FF2CF4695F1DF08C016161706180604
:100DE000991FF1CF86957105610508940895E894DF
:100DF000BB2766277727CB0197F908952F923F925B
:100E00004F925F926F927F928F929F92AF92BF921A
:100E1000CF92DF92EF92FF920F931F93CF93DF93C6
:100E2000CDB7DEB7CA1BDB0B0FB6F894DEBF0FBE23
:100E3000CDBF09942A88398848885F846E847D8470
:100E40008C849B84AA84B984C884DF80EE80FD8072
:100E50000C811B81AA81B981CE0FD11D0FB6F894E8
:100E6000DEBF0FBECDBFED0108950E9449070C946F
:100E7000C4060E94BD0658F00E94B60640F029F450
:100E80005F3F29F00C94AD0651110C94F8060C94B8
:100E9000B3060E94D50668F39923B1F3552391F365
:100EA000951B550BBB27AA2762177307840738F0D9
:100EB0009F5F5F4F220F331F441FAA1FA9F335D036
:100EC0000E2E3AF0E0E832D091505040E695001CEA
:100ED000CAF72BD0FE2F29D0660F771F881FBB1FA4
:100EE000261737074807AB07B0E809F0BB0B802D82
:100EF000BF01FF2793585F4F3AF09E3F510578F0AE
:100F00000C94AD060C94F8065F3FE4F3983ED4F3DE
:100F1000869577956795B795F7959F5FC9F7880F81
:100F2000911D9695879597F90895E1E0660F771FD3
:100F3000881FBB1F621773078407BA0720F0621B64
:100F4000730B840BBA0BEE1F88F7E09508950E948F
:100F5000AE076894B1110C94F80608950E94DD065E
:100F600088F09F5798F0B92F9927B751B0F0E1F06A
:100F7000660F771F881F991F1AF0BA95C9F714C01A
:100F8000B13091F00E94F706B1E008950C94F70695
:100F9000672F782F8827B85F39F0B93FCCF3869553
:100FA00077956795B395D9F73EF4909580957095B0
:100FB00061957F4F8F4F9F4F089597FB072E16F433
:100FC000009407D077FD09D00E94130807FC05D0D4
:100FD0003EF4909581959F4F0895709561957F4F50
:100FE0000895A1E21A2EAA1BBB1BFD010DC0AA1F6A
:100FF000BB1FEE1FFF1FA217B307E407F50720F082
:10100000A21BB30BE40BF50B661F771F881F991FFC
:101010001A9469F760957095809590959B01AC0145
:10102000BD01CF010895AA1BBB1B51E107C0AA1F38
:10103000BB1FA617B70710F0A61BB70B881F991F79
:101040005A95A9F780959095BC01CD010895EE0FB2
:10105000FF1F0590F491E02D0994CF93DF93823028
:10106000910510F482E090E0E0918402F091850215
:1010700020E030E0C0E0D0E0309711F140815181B4
:1010800048175907C0F04817590761F482819381C6
:10109000209719F09B838A832BC0909385028093BD
:1010A000840226C02115310519F04217530718F4A0
:1010B0009A01BE01DF01EF010280F381E02DDCCF58
:1010C0002115310509F1281B390B2430310590F425
:1010D00012968D919C9113976115710521F0FB017A
:1010E0009383828304C09093850280938402FD01E0
:1010F000329644C0FD01E20FF31F81939193225079
:1011000031092D933C933AC02091820230918302A1
:10111000232B41F42091020130910301309383028B
:1011200020938202209100013091010121153105A7
:1011300041F42DB73EB74091040150910501241BA5
:10114000350BE0918202F0918302E217F307A0F4DD
:101150002E1B3F0B2817390778F0AC014E5F5F4F0D
:101160002417350748F04E0F5F1F509383024093BA
:1011700082028193919302C0E0E0F0E0CF01DF9121
:10118000CF9108950F931F93CF93DF93009709F4A6
:101190008CC0FC013297138212820091840210915C
:1011A00085020115110581F420813181820F931F81
:1011B00020918202309183022817390779F5F09344
:1011C0008302E093820271C0D80140E050E0AE1784
:1011D000BF0750F412962D913C911397AD01211544
:1011E000310509F1D901F3CF9D01DA01338322835F
:1011F00060817181860F971F8217930769F4EC0154
:1012000028813981260F371F2E5F3F4F318320837E
:101210008A819B8193838283452B29F4F0938502F5
:10122000E093840242C01396FC93EE931297ED0173
:10123000499159919E01240F351FE217F30771F46C
:1012400080819181840F951F029611969C938E93B5
:101250008281938113969C938E931297E0E0F0E045
:10126000D80112968D919C911397009719F0F8016F
:101270008C01F6CF8D919C9198012E5F3F4F820F8C
:10128000931F20918202309183022817390769F455
:10129000309729F4109285021092840202C01382C2
:1012A00012821093830200938202DF91CF911F91EB
:1012B0000F910895A0E0B0E0E0E6F9E00C94020799
:1012C000EC01009721F4CB010E942D08B8C0FC016D
:1012D000E60FF71F9C0122503109E217F30708F4CB
:1012E000ACC0D9010D911C91119706171707B0F0EA
:1012F0000530110508F49FC0C801049786179707A9
:1013000008F499C002501109061B170B01931193A1
:101310006D937C93CF010E94C2088DC05B01A01A1F
:10132000B10A4C01800E911EA0918402B0918502F9
:1013300040E050E0E12CF12C109709F44AC0A815C8
:10134000B905D1F56D907C901197630182E0C80ECC
:10135000D11CCA14DB0480F1A3014A195B096A019C
:1013600082E0C80ED11C1296BC9012971396AC91D5
:10137000B5E0CB16D10440F0B282A3835183408301
:10138000D9016D937C930AC00E5F1F4FC301800F7C
:10139000911FF90191838083EB2DFA2FE114F10461
:1013A00031F0D7011396FC93EE93129744C0F0935B
:1013B0008502E09384023FC08D919C91119748175C
:1013C000590708F4AC017D0112960D90BC91A02D37
:1013D000B3CF809182029091830288159905E1F440
:1013E00046175707C8F480910001909101010097BA
:1013F00041F48DB79EB74091040150910501841BC3
:10140000950BE817F907C8F4F0938302E093820282
:10141000F901718360830FC0CB010E942D087C010C
:10142000009759F0A801BE010E94290ACE010E942E
:10143000C208C70104C0CE0102C080E090E0CDB771
:10144000DEB7EEE00C941E0781E090E0F8940C9477
:10145000390AFB01DC0102C001900D92415050405D
:10146000D8F70895FB01DC0101900D920020E1F70F
:10147000089510E0C2E6D0E004C0FE010E942708F3
:0C1480002196C336D107C9F7F894FFCFBE
:10148C00000086028000000000006C01D500040101
:10149C00B8013501130127014C4344575220312C1C
:1014AC00312D004C43444444004C434453432031BD
:1014BC00352C30004C434453432031362C31004CF6
:1014CC00434453432031372C32004C434453432084
:1014DC0031382C33004C434453432031392C3400E5
:1014EC004C4344575220322C312D206B7563756B55
:1014FC0020202020202020202020004C4344575224
:10150C0020322C312D4F7574206F662072616E67FE
:10151C006520202020004C4344575220322C312D82
:0C152C00204D4553414645203A20000068
:00000001FF
