:100000000C945D000C9485000C9485000C94850084
:100010000C9485000C9485000C9485000C9485004C
:100020000C9485000C9485000C9485000C9485003C
:100030000C9485000C9485000C9485000C9485002C
:100040000C9415030C9485000C94E3020C94BD02EF
:100050000C9485000C9485000C9485000C9485000C
:100060000C9485000C9485000000000024002700FB
:100070002A0000000000250028002B0004040404CE
:100080000404040402020202020203030303030342
:10009000010204081020408001020408102001021F
:1000A00004081020000000080002010000030407FB
:1000B0000000000000000000E30611241FBECFEF87
:1000C000D8E0DEBFCDBF11E0A0E0B1E0E0E3FEE0AC
:1000D00002C005900D92A03DB107D9F722E0A0ED36
:1000E000B1E001C01D92A937B207E1F710E0CDE5FC
:1000F000D0E004C02197FE010E941007CC35D10743
:10010000C9F70E945F030C9416070C940000EEEAF6
:10011000F0E02491EAE9F0E09491E6E8F0E0E4917F
:10012000EE23C9F0222339F0233001F1A8F4213065
:1001300019F1223029F1F0E0EE0FFF1FEE58FF4FCA
:10014000A591B4912FB7F894EC91811126C09095A8
:100150009E239C932FBF08952730A9F02830C9F023
:10016000243049F7209180002F7D03C0209180002A
:100170002F7720938000DFCF24B52F7724BDDBCFEE
:1001800024B52F7DFBCF2091B0002F772093B000B6
:10019000D2CF2091B0002F7DF9CF9E2BDACFAF9236
:1001A000BF92CF92DF92EF92FF920F931F93CF9364
:1001B000DF936C017B018B01040F151FEB015E01C6
:1001C000AE18BF08C017D10759F06991D601ED915B
:1001D000FC910190F081E02DC6010995892B79F7FA
:1001E000C501DF91CF911F910F91FF90EF90DF90AC
:1001F000CF90BF90AF900895FC01538D448D252F73
:1002000030E0842F90E0821B930B541710F0CF96B0
:10021000089501970895FC01918D828D981761F0E2
:10022000A28DAE0FBF2FB11D5D968C91928D9F5FF9
:100230009F73928F90E008958FEF9FEF0895FC01D8
:10024000918D828D981731F0828DE80FF11D858D8B
:1002500090E008958FEF9FEF0895FC01918D228D1E
:10026000892F90E0805C9F4F821B91098F739927A3
:1002700008958CED91E00E942D0121E0892B09F475
:1002800020E0822F089580E090E0892B29F00E94E1
:10029000390181110C9400000895FC01A48DA80F70
:1002A000B92FB11DA35ABF4F2C91848D90E00196B8
:1002B0008F739927848FA689B7892C93A089B189D8
:1002C0008C91837080648C93938D848D981306C079
:1002D0000288F389E02D80818F7D80830895EF92DD
:1002E000FF920F931F93CF93DF93EC0181E0888FF0
:1002F0009B8D8C8D98131AC0E889F989808185FFC0
:1003000015C09FB7F894EE89FF896083E889F98961
:1003100080818370806480839FBF81E090E0DF9163
:10032000CF911F910F91FF90EF900895F62E0B8DB6
:1003300010E00F5F1F4F0F731127E02E8C8D8E1171
:100340000CC00FB607FCFACFE889F989808185FFD8
:10035000F5CFCE010E944D01F1CFEB8DEC0FFD2FBB
:10036000F11DE35AFF4FF0829FB7F8940B8FEA8993
:10037000FB8980818062CFCFCF93DF93EC01888DA2
:100380008823B9F0AA89BB89E889F9898C9185FD10
:1003900003C0808186FD0DC00FB607FCF7CF8C919E
:1003A00085FFF2CF808185FFEDCFCE010E944D0108
:1003B000E9CFDF91CF910895CF93DF9390E0FC01D7
:1003C000E057FF4F249184589F4FFC01849188236C
:1003D000D1F090E0880F991FFC01E859FF4FA591DB
:1003E000B491FC01EE58FF4FC591D49161110EC03C
:1003F0009FB7F8948C91E22FE0958E238C932881FF
:10040000E223E8839FBFDF91CF9108958FB7F894DF
:10041000EC91E22BEC938FBFF6CF3FB7F89480912D
:10042000D5019091D601A091D701B091D80126B500
:10043000A89B05C02F3F19F00196A11DB11D3FBF1C
:10044000BA2FA92F982F8827BC01CD01620F711DEB
:10045000811D911D42E0660F771F881F991F4A95E5
:10046000D1F708958F929F92AF92BF92CF92DF9271
:10047000EF92FF924B015C010E940D026B017C0127
:100480000E940D026C197D098E099F09683E734018
:1004900081059105A8F321E0821A9108A108B1080D
:1004A00088EEC80E83E0D81EE11CF11C8114910473
:1004B000A104B10429F7FF90EF90DF90CF90BF9097
:1004C000AF909F908F9008958EBD00000DB407FEF1
:1004D000FDCF8EB50895FC0101900020E9F731971A
:1004E000AF01481B590BBC018CED91E00C94CF007F
:1004F0000F931F93CF93DF93CDB7DEB7A1970FB6BE
:10050000F894DEBF0FBECDBF482F50E070E060E032
:1005100019A2CE0181968A019B010F701127222713
:10052000332724E076956795579547952A95D1F717
:100530000A300CF5005DFC010293CF014115510515
:100540006105710541F710E000E0EF2B19F00E9402
:100550006B028C0182E191E00E946B02800F911F7F
:10056000A1960FB6F894DEBF0FBECDBFDF91CF913D
:100570001F910F910895095CDECF1F920F920FB665
:100580000F9211242F933F934F935F936F937F9319
:100590008F939F93AF93BF93EF93FF938CED91E075
:1005A0000E944D01FF91EF91BF91AF919F918F916B
:1005B0007F916F915F914F913F912F910F900FBE5F
:1005C0000F901F9018951F920F920FB60F92112443
:1005D0002F938F939F93EF93FF93E091EC01F09112
:1005E000ED018081E091F201F091F30182FD1BC0E9
:1005F00090818091F5018F5F8F732091F6018217B2
:1006000041F0E091F501F0E0E452FE4F958F8093C8
:10061000F501FF91EF919F918F912F910F900FBE58
:100620000F901F9018958081F4CF1F920F920FB6F4
:100630000F9211242F933F938F939F93AF93BF9368
:100640008091D1019091D201A091D301B091D401B8
:100650003091D00123E0230F2D3758F50196A11DCD
:10066000B11D2093D0018093D1019093D201A0932A
:10067000D301B093D4018091D5019091D601A0917E
:10068000D701B091D8010196A11DB11D8093D5016C
:100690009093D601A093D701B093D801BF91AF91A9
:1006A0009F918F913F912F910F900FBE0F901F90B0
:1006B000189526E8230F0296A11DB11DD2CF78947C
:1006C00084B5826084BD84B5816084BD85B5826057
:1006D00085BD85B5816085BD80916E008160809308
:1006E0006E00109281008091810082608093810071
:1006F0008091810081608093810080918000816081
:10070000809380008091B10084608093B1008091DB
:10071000B00081608093B00080917A008460809303
:100720007A0080917A00826080937A0080917A00CA
:10073000816080937A0080917A00806880937A004B
:100740001092C10060E082E00E94DC01E091EC01C7
:10075000F091ED0182E08083E091E801F091E90100
:100760001082E091EA01F091EB018FEC808310920E
:10077000F401E091F001F091F10186E08083E091D5
:10078000EE01F091EF01808180618083E091EE01C4
:10079000F091EF01808188608083E091EE01F0911B
:1007A000EF01808180688083E091EE01F091EF019C
:1007B00080818F7D808381E00E948700CFB7F8948D
:1007C0008091D901811126C0E6E8F0E08491EAE940
:1007D000F0E09491E82FF0E0EE0FFF1FE859FF4F93
:1007E000A591B491EC91E92319F481E00E9487006E
:1007F00061E08AE00E94DC018CB580618CBD8CB523
:1008000080648CBD61E08DE00E94DC0161E08BE0E2
:100810000E94DC018091D9018F5F8093D901CFBF05
:1008200080E58CBD81E08DBD80E00E94870087EC73
:100830000E94640281E00E94870068EE73E080E01D
:1008400090E00E94320280E00E9487008BE40E94C8
:10085000640280E00E94640280E00E94640281E001
:100860000E94870068EE73E080E090E00E94320210
:1008700080E00E94870085E00E94640280E00E9480
:10088000640281E00E94870068EE73E080E090E0FF
:100890000E94320280E00E94870086E00E9464028B
:1008A00081E00E94870068EE73E080E090E00E94A3
:1008B000320280E00E94870081E00E94640281E0B1
:1008C0000E94870068EE73E080E090E00E943202B0
:1008D00000E81FEF80E0E82E80E0F82E80E00E9424
:1008E000870085E00E94640280E00E94640281E04B
:1008F0000E9487006AE070E080E090E00E9432028F
:1009000080E00E94870086E00E94640281E00E94ED
:1009100087006AE070E080E090E00E94320280E0B0
:100920000E94870085E00E94640280E00E946402C9
:1009300081E00E94870068EE73E080E090E00E9412
:1009400032021093DB010093DA0180E00E948700FD
:1009500082E00E94640280E00E9464028FEF0E94A5
:10096000640280E80E946402C5E1D1E08991882395
:1009700019F00E946402FACF81E00E94870068EBC0
:100980007BE080E090E00E94320280E00E948700DD
:1009900085E00E94640280E00E94640281E00E947F
:1009A00087006AE070E080E090E00E94320280E020
:1009B0000E94870083E00E94640280E00E9464023B
:1009C0008FEF0E94640281E80E94640280E00E942E
:1009D0006402C82F81E00E94870086E991E00E94AE
:1009E0006B028C2F0E94780268EE73E080E090E04A
:1009F0000E94320288EA91E00E946B0280E00E942D
:100A0000870086E00E94640281E00E94870068EB14
:100A10007BE080E090E00E94320280E00E9487004C
:100A200082E40E94640280E00E946402C091DA01C4
:100A3000D091DB018D2F0E9464028C2F0E946402F2
:100A400081E00E94870068EE73E080E090E00E9401
:100A5000320280E00E94870084E00E94640281E00C
:100A60000E94870068E873E180E090E00E94320213
:100A700080E00E94870081E00E94640281E00E9481
:100A8000870068EE73E080E090E00E94320280E030
:100A90000E94870085E00E94640280E00E94640258
:100AA00081E00E94870068EE73E080E090E00E94A1
:100AB000320280E00E94870086E00E94640281E0AA
:100AC0000E94870068EE73E080E090E00E943202AE
:100AD00080E00E94870082E00E94640280E00E9421
:100AE00064028D2F0E9464028C2F0E9464028EEF9C
:100AF0000E94640281E00E94870068EB7BE080E056
:100B000090E00E94320280E00E94870085E00E940F
:100B1000640280E00E94640281E00E9487006AE033
:100B200070E080E090E00E94320280E00E94870046
:100B300083E00E94640280E00E9464028D2F0E9484
:100B400064028C2F0E94640280E00E946402C82F1D
:100B500081E00E94870086E991E00E946B028C2F61
:100B60000E94780268EE73E080E090E00E9432021A
:100B700080E00E94870085E00E94640280E00E947D
:100B8000640281E00E9487006AE070E080E090E00B
:100B90000E94320280E00E94870086E00E94640288
:100BA00081E00E9487006AE070E080E090E00E94AF
:100BB000320280E00E94870085E00E94640280E0AB
:100BC0000E94640281E00E94870068EE73E080E08A
:100BD00090E00E94320280E00E94870082E00E9442
:100BE000640280E00E946402C091DA018091DB011E
:100BF0000E9464028C2F0E9464028AEA0E946402AE
:100C000081E00E94870068EB7BE080E090E00E943A
:100C100032028CEB91E00E946B0282E191E00E9433
:100C20006B0268EB7BE080E090E00E94320280E0A3
:100C30000E94870085E00E94640280E00E946402B6
:100C400081E00E94870064E670E080E090E00E940E
:100C5000320280E00E94870083E00E94640280E00C
:100C60000E946402C091DA018091DB010E9464025B
:100C70008C2F0E94640280E00E946402C82F81E0F1
:100C80000E94870086E991E00E946B028C2F0E94EF
:100C9000780264E670E080E090E00E94320280E03A
:100CA0000E94870085E00E94640280E00E94640246
:100CB00081E00E94870068EE73E080E090E00E948F
:100CC000320280E00E94870086E00E94640281E098
:100CD0000E94870068EE73E080E090E00E9432029C
:100CE00080E00E94870085E00E94640280E00E940C
:100CF000640281E00E94870068EE73E080E090E08B
:100D00000E94320280E00E94870082E00E9464021A
:100D100080E00E946402C091DA01D091DB018D2F46
:100D20000E94640281E08C0F0E9464028BEA0E94A0
:100D3000640281E00E94870068EB7BE080E090E045
:100D40000E94320280E00E94870085E00E946402D7
:100D500080E00E94640281E00E94870064E670E007
:100D600080E090E00E94320280E00E94870083E0F1
:100D70000E94640280E00E9464028D2F0E9464023F
:100D80008C2F0E94640280E00E946402C82F81E0E0
:100D90000E94870086E991E00E946B028C2F0E94DE
:100DA000780268EE73E080E090E00E943202E11485
:100DB000F10409F493CD0E943901882309F48ECD02
:100DC0000E9400008BCDECEDF1E01382128288EEE0
:100DD00093E0A0E0B0E084839583A683B78384E0AA
:100DE00091E09183808385EC90E09587848784EC03
:100DF00090E09787868780EC90E0918B808B81ECE8
:100E000090E0938B828B82EC90E0958B848B86ECC8
:100E100090E0978B868B118E128E138E148E089510
:100E2000EE0FFF1F0590F491E02D0994F894FFCF89
:100E3000000000006F01CF00FC00BC012D010B0180
:100E40001F010D0A00313233343536373839303925
:100E50003837363534333231303132333435363752
:100E6000383930393837363534333231303132333E
:100E7000343536373839303938373635343332311E
:100E80003031323334353637383930393837363512
:100E90003433323130313233343536373839303912
:100EA0003837363534333231303132333435363702
:100EB000383930393837363534333231304D657260
:100EC000686162612100206F6B756E616E206465E0
:100ED00067657220203A2000504147452045524125
:100EE0005345204241534C414449200020646567EA
:100EF00069737469726D6520626F6C756D75200021
:107E0000112484B714BE81FFF0D085E080938100F7
:107E100082E08093C00088E18093C10086E0809377
:107E2000C20080E18093C4008EE0C9D0259A86E02C
:107E300020E33CEF91E0309385002093840096BBD3
:107E4000B09BFECF1D9AA8958150A9F7CC24DD24C4
:107E500088248394B5E0AB2EA1E19A2EF3E0BF2EE7
:107E6000A2D0813461F49FD0082FAFD0023811F036
:107E7000013811F484E001C083E08DD089C08234E0
:107E800011F484E103C0853419F485E0A6D080C0E4
:107E9000853579F488D0E82EFF2485D0082F10E0AE
:107EA000102F00270E291F29000F111F8ED06801E7
:107EB0006FC0863521F484E090D080E0DECF843638
:107EC00009F040C070D06FD0082F6DD080E0C81688
:107ED00080E7D80618F4F601B7BEE895C0E0D1E017
:107EE00062D089930C17E1F7F0E0CF16F0E7DF06D8
:107EF00018F0F601B7BEE89568D007B600FCFDCFD4
:107F0000A601A0E0B1E02C9130E011968C91119780
:107F100090E0982F8827822B932B1296FA010C0160
:107F200087BEE89511244E5F5F4FF1E0A038BF0790
:107F300051F7F601A7BEE89507B600FCFDCF97BE46
:107F4000E89526C08437B1F42ED02DD0F82E2BD052
:107F50003CD0F601EF2C8F010F5F1F4F84911BD097
:107F6000EA94F801C1F70894C11CD11CFA94CF0C13
:107F7000D11C0EC0853739F428D08EE10CD085E9AC
:107F80000AD08FE07ACF813511F488E018D01DD067
:107F900080E101D065CF982F8091C00085FFFCCF94
:107FA0009093C60008958091C00087FFFCCF809118
:107FB000C00084FD01C0A8958091C6000895E0E648
:107FC000F0E098E1908380830895EDDF803219F02E
:107FD00088E0F5DFFFCF84E1DECF1F93182FE3DFCA
:107FE0001150E9F7F2DF1F91089580E0E8DFEE27F6
:047FF000FF270994CA
:027FFE00040479
:0400000300007E007B
:00000001FF
