:100000000C9463000C948B000C948B000C94A10452
:100010000C94A1040C94A1040C948B000C948B0000
:100020000C948B000C948B000C948B000C948B0024
:100030000C948B000C948B000C948B000C948B0014
:100040000C9457040C948B000C9425040C94FF031F
:100050000C948B000C948B000C948B000C948B00F4
:100060000C948B000C948B000000000024002700EF
:100070002A0000000008000201000003040700003D
:1000800000000000000000000000230026002900FE
:1000900000000000250028002B00040404040404D0
:1000A0000404020202020202030303030303010227
:1000B00004081020408001020408102001020408F6
:1000C00010201905AA0711241FBECFEFD8E0DEBF0C
:1000D000CDBF11E0A0E0B1E0E6E4F0E102C00590A0
:1000E0000D92AA33B107D9F722E0AAE3B1E001C02B
:1000F0001D92A634B207E1F710E0C2E6D0E004C0DA
:100100002197FE010E941008C136D107C9F70E944D
:10011000C4050C9416080C940000AF92BF92CF92C5
:10012000DF92EF92FF920F931F93CF93DF936C01B7
:100130007B018B01040F151FEB015E01AE18BF0898
:10014000C017D10759F06991D601ED91FC9101904A
:10015000F081E02DC6010995892B79F7C501DF9162
:10016000CF911F910F91FF90EF90DF90CF90BF90B4
:10017000AF900895FC01538D448D252F30E0842FDE
:1001800090E0821B930B541710F0CF9608950197BF
:100190000895FC01918D828D981761F0A28DAE0FAC
:1001A000BF2FB11D5D968C91928D9F5F9F73928F33
:1001B00090E008958FEF9FEF0895FC01918D828D5F
:1001C000981731F0828DE80FF11D858D90E008952C
:1001D0008FEF9FEF0895FC01918D228D892F90E084
:1001E000805C9F4F821B91098F73992708958AE83D
:1001F00091E00E94EB0021E0892B09F420E0822F9E
:10020000089580E090E0892B29F00E94F700811189
:100210000C9400000895FC01A48DA80FB92FB11D06
:10022000A35ABF4F2C91848D90E001968F7399272C
:10023000848FA689B7892C93A089B1898C9183700A
:1002400080648C93938D848D981306C00288F38903
:10025000E02D80818F7D80830895EF92FF920F9330
:100260001F93CF93DF93EC0181E0888F9B8D8C8D62
:1002700098131AC0E889F989808185FF15C09FB756
:10028000F894EE89FF896083E889F9898081837019
:10029000806480839FBF81E090E0DF91CF911F91C8
:1002A0000F91FF90EF900895F62E0B8D10E00F5FE9
:1002B0001F4F0F731127E02E8C8D8E110CC00FB6BF
:1002C00007FCFACFE889F989808185FFF5CFCE0157
:1002D0000E940B01F1CFEB8DEC0FFD2FF11DE35AC6
:1002E000FF4FF0829FB7F8940B8FEA89FB898081DA
:1002F0008062CFCFCF93DF93EC01888D8823B9F054
:10030000AA89BB89E889F9898C9185FD03C0808120
:1003100086FD0DC00FB607FCF7CF8C9185FFF2CF9D
:10032000808185FFEDCFCE010E940B01E9CFDF91E7
:10033000CF910895833081F028F4813099F0823094
:10034000A9F008958730A9F08830C9F08430B1F45D
:10035000809180008F7D03C0809180008F77809393
:100360008000089584B58F7784BD089584B58F7D0E
:10037000FBCF8091B0008F778093B000089580917B
:10038000B0008F7DF9CFCF93DF93282F30E0F901B4
:10039000EE58FF4F8491F901E255FF4FD491F901D6
:1003A000E656FF4FC491CC23A1F081110E949A011F
:1003B000EC2FF0E0EE0FFF1FEA57FF4FA591B4912D
:1003C000EC91ED2381E090E009F480E0DF91CF91A2
:1003D000089580E090E0FACF1F93CF93DF93282F0A
:1003E00030E0F901EE58FF4F8491F901E255FF4FDB
:1003F000D491F901E656FF4FC491CC23A9F0162FF2
:1004000081110E949A01EC2FF0E0EE0FFF1FE057E0
:10041000FF4FA591B4918FB7F894EC91111108C0DA
:10042000D095DE23DC938FBFDF91CF911F9108958C
:10043000DE2BF8CFCF93DF9390E0FC01E255FF4F26
:10044000249186569F4FFC0184918823D1F090E03F
:10045000880F991FFC01E859FF4FA591B491FC0149
:10046000E057FF4FC591D49161110EC09FB7F8942A
:100470008C91E22FE0958E238C932881E223E883F0
:100480009FBFDF91CF9108958FB7F894EC91E22B45
:10049000EC938FBFF6CF3FB7F89480917F01909196
:1004A0008001A0918101B091820126B5A89B05C071
:1004B0002F3F19F00196A11DB11D3FBFBA2FA92FE3
:1004C000982F8827BC01CD01620F711D811D911DE0
:1004D00042E0660F771F881F991F4A95D1F708954C
:1004E0008F929F92AF92BF92CF92DF92EF92FF9244
:1004F0004B015C010E944B026B017C010E944B028C
:100500006C197D098E099F09683E7340810591052C
:10051000A8F321E0821A9108A108B10888EEC80E5C
:1005200083E0D81EE11CF11C81149104A104B104E4
:1005300029F7FF90EF90DF90CF90BF90AF909F9002
:100540008F900895209185013091860128173907F1
:1005500071F49091830180918401981741F0E091AA
:100560008301F0E0E65CFE4F808190E008958FEF1C
:100570009FEF08950895EF92FF920F931F93CF93EB
:10058000DF93DC015C96ED90FC905D97E114F10443
:1005900079F481E090E013969C938E93129790E00B
:1005A00080E0DF91CF911F910F91FF90EF90089520
:1005B0005196ED91FC91529750968C915097982FAF
:1005C00090950FB75E962C915E97122F127021FDB9
:1005D0006095F8942081112319F1282B2083E701DD
:1005E0002197F1F728E0462F50E0308160FF1AC0D4
:1005F000382B3083E7012197F1F7BA01759567959C
:10060000215089F7112381F08081892380830FBFD6
:100610005C968D919C910197F1F781E090E0C1CFBC
:100620002923DCCF3923E5CF9081892BEFCF20918F
:100630008501309186012817390771F48091840172
:100640002091830190E0805C9F4F821B910960E4C0
:1006500070E00E94C607089590E080E00895209120
:1006600085013091860128173907B9F490918301EB
:1006700080918401981789F0E0918301F0E0E65CB5
:10068000FE4F80812091830130E02F5F3F4F2F7319
:1006900033272093830190E008958FEF9FEF089513
:1006A00090E080E00895FC0101900020E9F7319787
:1006B000AF01481B590BBC018AE891E00C948D00F6
:1006C0008F929F92AF92BF920F931F93CF93DF931E
:1006D000CDB7DEB7A1970FB6F894DEBF0FBECDBF82
:1006E00019A2423008F44AE08E010F5D1F4F842E9C
:1006F000912CB12CA12CA50194010E94DA07E62FC0
:10070000B901CA01EA30F4F4E05DD801EE938D013D
:10071000232B242B252B79F790E080E0109719F0FC
:10072000CD010E945303A1960FB6F894DEBF0FBE11
:10073000CDBFDF91CF911F910F91BF90AF909F9050
:100740008F900895E95CE1CFCF92DF92EF92FF9214
:100750001F93CF93DF93CDB7DEB72A970FB6F894E8
:10076000DEBF0FBECDBF282F30E02A5B3E4F260FE5
:10077000311D3195219531099EE799839FEF9A8329
:1007800096E09B8391E49D839FEE9A878C831E82E3
:100790006F8338872987CE0101967C016E019BE02B
:1007A000C90ED11CF70111917F01612F87E292E000
:1007B0000E94BB02612F70E090E080E040E10E9467
:1007C0006003EC14FD0471F784E291E02A960FB601
:1007D000F894DEBF0FBECDBFDF91CF911F91FF9088
:1007E000EF90DF90CF900C94530361E08DE00E9476
:1007F000A40364EF71E080E090E00C9470021F921B
:100800000F920FB60F9211242F933F934F935F9344
:100810006F937F938F939F93AF93BF93EF93FF93C8
:100820008AE891E00E940B01FF91EF91BF91AF9197
:100830009F918F917F916F915F914F913F912F91F8
:100840000F900FBE0F901F9018951F920F920FB62A
:100850000F9211242F938F939F93EF93FF93E09127
:100860009A01F0919B018081E091A001F091A1019A
:1008700082FD1BC090818091A3018F5F8F732091B7
:10088000A401821741F0E091A301F0E0E657FE4F8A
:10089000958F8093A301FF91EF919F918F912F915D
:1008A0000F900FBE0F901F9018958081F4CF1F926C
:1008B0000F920FB60F9211242F933F938F939F9314
:1008C000AF93BF9380917B0190917C01A0917D01BA
:1008D000B0917E0130917A0123E0230F2D3758F536
:1008E0000196A11DB11D20937A0180937B01909305
:1008F0007C01A0937D01B0937E0180917F01909156
:100900008001A0918101B09182010196A11DB11DCC
:1009100080937F0190938001A0938101B093820125
:10092000BF91AF919F918F913F912F910F900FBEEB
:100930000F901F90189526E8230F0296A11DB11D58
:10094000D2CF1F920F920FB60F9211242F933F9385
:100950004F935F936F937F938F939F93AF93BF93C7
:10096000EF93FF93E0918501F0918601309749F074
:10097000A685B7858585968D91FF14C09C918923A6
:10098000A1F4FF91EF91BF91AF919F918F917F91D2
:100990006F915F914F913F912F910F900FBE0F90EC
:1009A0001F9018959C91892361F7A389B4899C9124
:1009B0008589809589238C93868997890197F1F79A
:1009C000608D718DA685B785558538E020E0CB0117
:1009D0000197F1F7822F90E095958795282F4C91FC
:1009E000452309F02068315091F7868D81FD2095CF
:1009F0008091840190E001968F7399273091830153
:100A0000381799F0A0918401B0E0A65CBE4F2C93FA
:100A100080938401828D938D0197F1F7A389B48926
:100A20008C919589892B8C93ACCF868D8160868F34
:100A3000F1CF10928D0110928C0188EE93E0A0E02E
:100A4000B0E080938E0190938F01A0939001B093BA
:100A5000910124E031E030938B0120938A0125EC51
:100A600030E0309397012093960124EC30E03093EE
:100A700099012093980120EC30E030939B01209362
:100A80009A0121EC30E030939D0120939C0122ECEF
:100A900030E030939F0120939E0126EC30E03093AC
:100AA000A1012093A0011092A3011092A401109221
:100AB000A5011092A60110922A0210922902809399
:100AC0002B0290932C02A0932D02B0932E0286E16C
:100AD00091E0909328028093270210923E02109298
:100AE0003D021092400210923F0210924202109278
:100AF00041021092440210924302609145026E7FBF
:100B00006D7F609345026695617081E068278BE098
:100B10000E94EC0161E08BE00E941A02E9EBF0E038
:100B2000E491E0933702E5EAF0E0E491F0E0EE0FC3
:100B3000FF1FE057FF4F8591949190933902809366
:100B4000380260E08AE00E941A028091450281FD2D
:100B500004C061E08AE00E94EC018AE080933302E5
:100B6000E8EBF0E0E491E0933402E4EAF0E0E491B1
:100B7000F0E0EE0FFF1FEA57FF4F8591949190939D
:100B80003602809335020895789484B5826084BDDE
:100B900084B5816084BD85B5826085BD85B5816081
:100BA00085BD80916E00816080936E0010928100FF
:100BB00080918100826080938100809181008160BA
:100BC000809381008091800081608093800080917B
:100BD000B10084608093B1008091B0008160809307
:100BE000B00080917A00846080937A0080917A00CE
:100BF000826080937A0080917A00816080937A008D
:100C000080917A00806880937A001092C10060E041
:100C100083E00E941A0261E083E00E94EC0160E040
:100C200082E00E941A0261E082E00E94EC0160E032
:100C300084E00E941A0261E084E00E94EC011092BC
:100C40004202109241021092400210923F02109212
:100C50003E0210923D028DE991E090934402809310
:100C6000430290913302963108F047C02DEB30E0FB
:100C700030933E0220933D022BE931E03093400255
:100C800020933F022CE231E0309342022093410254
:100C90002091680084E0983048F031E09E3008F4FC
:100CA00030E081E001C0880F3A95EAF7822B80930B
:100CB00068002DE630E0983050F02BE630E09E30B2
:100CC00030F02CE630E0963110F030E020E0309348
:100CD0003B0220933A02292F30E0983008F028C1D7
:100CE00081E001C0880F9A95EAF780933C028091D9
:100CF0004302909144020197F1F780914102909153
:100D00004202892B49F1E0918501F091860182E050
:100D1000E732F80709F1309739F0A389B4899C913B
:100D20008589809589238C93809145028E7F80935D
:100D30004502109284011092830187E292E0909321
:100D4000860180938501E0913A02F0913B02808117
:100D500090913C02892B8083E0919A01F0919B0154
:100D600082E08083E0919601F09197011082E091FA
:100D70009801F09199018FEC80831092A201E0918B
:100D80009E01F0919F0186E08083E0919C01F091AB
:100D90009D01808180618083E0919C01F0919D01A3
:100DA000808188608083E0919C01F0919D01808129
:100DB00080688083E0919C01F0919D0180818F7D0E
:100DC000808387E291E00E94530368EE73E080E045
:100DD00090E00E94700260E08FE30E94A40364EF41
:100DE00071E080E090E00E94700260E586E00E9481
:100DF000A40360ED77E080E090E00E94700264EF71
:100E000071E080E090E00E94700260E08BE40E945C
:100E1000A40364EF71E080E090E00E94700268EE4D
:100E200073E080E090E00E9470020E94F50381E090
:100E300080938701C0E0D0E001E010E0FF24F3944C
:100E400087E292E00E941703892B79F010938901C1
:100E50000093880187E292E00E942F03BC01990F62
:100E6000880B990B40E10E9460038091880190916A
:100E70008901019761F480E391E00E94530384E2C9
:100E800091E00E945303109289011092880183E03F
:100E90000E94C301892B89F480918701882309F47A
:100EA00054C060E08EE00E94A40364EF71E080E033
:100EB00090E00E9470021092870182E00E94C301BC
:100EC000892BC1F4809187018823A1F060E081E043
:100ED0000E94A4036CE775E180E090E00E9470023C
:100EE00060E08BE40E94A40364EF71E080E090E096
:100EF0000E94700284E00E94C301892B71F48091EA
:100F00008701882351F061E082E00E94A40364EF2E
:100F100071E080E090E00E947002209709F490CF89
:100F20000E94F700882309F48BCF0E94000088CF2D
:100F30009E3040F42850310981E001C0880F2A9585
:100F4000EAF7D3CE2E503109F7CFF09287010E94F5
:100F5000F503B3CF86E191E09093280280932702B6
:100F600080918501909186018752924071F4E091C1
:100F70003A02F0913B02908180913C028095892356
:100F800080831092860110928501089597FB072EA9
:100F900016F4009407D077FD09D00E94FC0707FCE7
:100FA00005D03EF4909581959F4F08957095619579
:100FB0007F4F0895A1E21A2EAA1BBB1BFD010DC095
:100FC000AA1FBB1FEE1FFF1FA217B307E407F507F9
:100FD00020F0A21BB30BE40BF50B661F771F881FD5
:100FE000991F1A9469F760957095809590959B016B
:100FF000AC01BD01CF010895AA1BBB1B51E107C085
:10100000AA1FBB1FA617B70710F0A61BB70B881F98
:10101000991F5A95A9F780959095BC01CD01089527
:10102000EE0FFF1F0590F491E02D099410E0C2E649
:10103000D0E004C0FE010E9410082196C336D107FB
:06104000C9F7F894FFCF90
:10104600000000002D018D00BA007A01EB00C900F6
:10105600DD0000000000BB028D005003BA0217033A
:101066002F03A2020D0A00206261736C616469009D
:0A10760020202067656C656E000005
:00000001FF
