:100000000C9462000C948A000C948A000C948A0070
:100010000C948A000C948A000C948A000C948A0038
:100020000C948A000C948A000C948A000C948A0028
:100030000C948A000C948A000C948A000C948A0018
:100040000C94B6030C948A000C9484030C945E0305
:100050000C948A000C948A000C948A000C948A00F8
:100060000C948A000C948A000000000023002600F3
:10007000290000000008000201000003040700003E
:1000800000000000000000000000250028002B00F8
:1000900000000000240027002A00040404040404D3
:1000A0000404020202020202030303030303010227
:1000B00004081020408001020408102001020408F6
:1000C0001020EB0511241FBECFEFD8E0DEBFCDBF5F
:1000D00022E0AAE6B1E001C01D92AE31B207E1F71D
:1000E00011E0A0E0B1E0ECEFF0E102C005900D926C
:1000F000AA36B107D9F710E0C2E6D0E004C02197D4
:10010000FE010E948406C136D107C9F70E9400048F
:100110000C947C080C940000CF93DF9390E0FC01DA
:10012000E255FF4F249186569F4FFC01849188230E
:10013000C1F090E0880F991FFC01E057FF4FC59177
:10014000D491FC01EA57FF4FA591B4919FB7F89461
:100150008881E22FE0958E2388838C91E823EC93AD
:100160009FBFDF91CF910895AF92BF92CF92DF9260
:10017000EF92FF920F931F93CF93DF936C017B015C
:100180008B01040F151FEB015E01AE18BF08C017ED
:10019000D10759F06991D601ED91FC910190F08160
:1001A000E02DC6010995892B79F7C501DF91CF9123
:1001B0001F910F91FF90EF90DF90CF90BF90AF9085
:1001C0000895FC01538D448D252F30E0842F90E05D
:1001D000821B930B541710F0CF9608950197089542
:1001E000FC01918D828D981761F0A28DAE0FBF2F0B
:1001F000B11D5D968C91928D9F5F9F73928F90E061
:1002000008958FEF9FEF0895FC01918D828D9817CF
:1002100031F0828DE80FF11D858D90E008958FEF0C
:100220009FEF0895FC01918D228D892F90E0805CD5
:100230009F4F821B91098F73992708958DE791E055
:100240000E94120121E0892B09F420E0822F0895F9
:1002500080E090E0892B29F00E941E0181110C940E
:1002600000000895FC01A48DA80FB92FB11DA35A59
:10027000BF4F2C91848D90E001968F739927848FC6
:10028000A689B7892C93A089B1898C9183708064E9
:100290008C93938D848D981306C00288F389E02D8A
:1002A00080818F7D80830895EF92FF920F931F933B
:1002B000CF93DF93EC0181E0888F9B8D8C8D981319
:1002C0001AC0E889F989808185FF15C09FB7F89425
:1002D000EE89FF896083E889F98980818370806471
:1002E00080839FBF81E090E0DF91CF911F910F91BC
:1002F000FF90EF900895F62E0B8D10E00F5F1F4FCB
:100300000F731127E02E8C8D8E110CC00FB607FCD9
:10031000FACFE889F989808185FFF5CFCE010E9467
:100320003201F1CFEB8DEC0FFD2FF11DE35AFF4FA2
:10033000F0829FB7F8940B8FEA89FB8980818062F5
:10034000CFCFCF93DF93EC01888D8823B9F0AA89B2
:10035000BB89E889F9898C9185FD03C0808186FD80
:100360000DC00FB607FCF7CF8C9185FFF2CF8081CF
:1003700085FFEDCFCE010E943201E9CFDF91CF9111
:10038000089590E0FC01EE58FF4F2491FC01E255E6
:10039000FF4F3491FC01E656FF4FE491EE23C1F18B
:1003A000222339F02330E9F090F4213001F122309A
:1003B00011F1F0E0EE0FFF1FE859FF4FA591B49146
:1003C000EC91E32381E090E029F580E00895273067
:1003D000A9F02830C9F0243061F7809180008F7D2A
:1003E00003C0809180008F7780938000E2CF84B536
:1003F0008F7784BDDECF84B58F7DFBCF8091B00039
:100400008F778093B000D5CF8091B0008F7DF9CFEA
:1004100080E090E008953FB7F89480916F0190914B
:100420007001A0917101B091720126B5A89B05C021
:100430002F3F19F00196A11DB11D3FBFBA2FA92F63
:10044000982F8827BC01CD01620F711D811D911D60
:1004500042E0660F771F881F991F4A95D1F70895CC
:100460008F929F92AF92BF92CF92DF92EF92FF92C4
:100470006B017C010E940B024B015C01C114D10491
:10048000E104F104B9F00E940B02681979098A09A4
:100490009B09683E73408105910580F321E0C21AF3
:1004A000D108E108F10888EE880E83E0981EA11CAF
:1004B000B11CE4CFFF90EF90DF90CF90BF90AF9052
:1004C0009F908F90089542E050E06AE171E08DE7DF
:1004D00091E00C94B400CF93DF93FC0144815581EB
:1004E000608171818DE791E00E94B400EC010E946F
:1004F00063028C0F9D1FDF91CF910895FC018081D5
:100500009181009711F00C94260708950F931F9383
:10051000CF93DF93EC0188819981009759F02A816C
:100520003B812617370730F081E0DF91CF911F9193
:100530000F9108958B016F5F7F4F0E94AF07009767
:1005400059F0998388831B830A832C813D81232B57
:1005500059F7FC011082E8CF80E0E7CFEF92FF92DD
:100560000F931F93CF93DF93EC01FB01E080F180A9
:10057000E114F10411F10481158101151105A9F0AF
:100580008C819D81080F191FB801CE010E9486023F
:10059000882399F0288139818C819D81B701820F50
:1005A000931F0E9475081D830C83CE01DF91CF91AC
:1005B0001F910F91FF90EF90089588819981009786
:1005C00011F00E942607198218821D821C821B824C
:1005D0001A82EBCFEF92FF920F931F93CF93DF938B
:1005E000EC017B018A01BA010E94860228813981CF
:1005F000811114C02115310519F0C9010E94260787
:10060000198218821D821C821B821A82CE01DF9100
:10061000CF911F910F91FF90EF9008951D830C8350
:10062000B701C9010E947508F1CFEF92FF920F93B5
:100630001F93CF93DF93CDB7DEB762970FB6F894D1
:10064000DEBF0FBECDBF8C01CB01F801118210823D
:1006500013821282158214824AE09E012F5F3F4F5F
:100660007901B9010E941806F70101900020E9F70D
:100670003197AF014E195F09B701C8010E94EA0224
:1006800062960FB6F894DEBF0FBECDBFDF91CF915B
:100690001F910F91FF90EF900895FC01118210823D
:1006A0001382128215821482FB0101900020E9F767
:1006B0003197AF01461B570B0C94EA021F920F9221
:1006C0000FB60F9211242F933F934F935F936F9325
:1006D0007F938F939F93AF93BF93EF93FF938DE798
:1006E00091E00E943201FF91EF91BF91AF919F91F4
:1006F0008F917F916F915F914F913F912F910F90CB
:100700000FBE0F901F9018951F920F920FB60F9269
:1007100011242F938F939F93EF93FF93E0918D017B
:10072000F0918E018081E0919301F091940182FD1E
:100730001BC09081809196018F5F8F7320919701EC
:10074000821741F0E0919601F0E0E358FE4F958F5B
:1007500080939601FF91EF919F918F912F910F9030
:100760000FBE0F901F9018958081F4CF1F920F92AB
:100770000FB60F9211242F933F938F939F93AF93B4
:10078000BF9380916B0190916C01A0916D01B0912C
:100790006E0130916A0123E0230F2D3758F5019641
:1007A000A11DB11D20936A0180936B0190936C0190
:1007B000A0936D01B0936E0180916F0190917001D3
:1007C000A0917101B09172010196A11DB11D80939C
:1007D0006F0190937001A0937101B0937201BF916A
:1007E000AF919F918F913F912F910F900FBE0F90DE
:1007F0001F90189526E8230F0296A11DB11DD2CF98
:10080000CF93DF93CDB7DEB72C970FB6F894DEBF4A
:100810000FBECDBF789484B5826084BD84B58160FD
:1008200084BD85B5826085BD85B5816085BD8091BB
:100830006E00816080936E00109281008091810033
:10084000826080938100809181008160809381002B
:10085000809180008160809380008091B1008460ED
:100860008093B1008091B00081608093B00080914E
:100870007A00846080937A0080917A00826080930D
:100880007A0080917A00816080937A0080917A006A
:10089000806880937A001092C100E0918D01F09100
:1008A0008E0182E08083E0918901F0918A011082BB
:1008B000E0918B01F0918C018FEC80831092950177
:1008C000E0919101F091920186E08083E0918F01A7
:1008D000F0919001808180618083E0918F01F0919F
:1008E0009001808188608083E0918F01F091900178
:1008F000808180688083E0918F01F09190018081F8
:100900008F7D808384E00E948C0082E00E948C00B6
:100910008FEF84B901E010E054E0E52EF12C8EEE6B
:10092000A82E82E0B82E93E0992E26E0822E3CE09D
:10093000732E40E0C42E40E0D42E10927C01109221
:100940007B0184E00E94C101892B81F580917B01AC
:1009500090917C01892B29F510937A0100937901FC
:10096000109378010093770161E070E0CE01019669
:100970000E9415036DE171E0CE0107960E944D03C0
:10098000BE016F5F7F4FCE0107960E94AE020E94AC
:100990006B02CE0107960E947E02CE0101960E9454
:1009A0007E0210937C0100937B01CBCF10927C01DF
:1009B00010927B0182E00E94C10120917901309167
:1009C0007A01892B81F580917B0190917C01892BA3
:1009D00029F561E070E0232B11F070E060E0709386
:1009E0007A0160937901CE0101960E9415036DE1B1
:1009F00071E0CE0107960E944D03BE016F5F7F4FED
:100A0000CE0107960E94AE020E946B02CE010796AD
:100A10000E947E02CE0101960E947E0210937C010C
:100A200000937B01C7CFB0920101A0920001809199
:100A30007501909176012115310509F09BC0019750
:100A40009093760180937501809175019091760164
:100A5000059721F41093760100937501809175013B
:100A6000909176011816190624F0F0927601E09222
:100A700075016091750170917601CE0101960E9419
:100A800015036AE271E0CE0107960E944D03BE0194
:100A90006F5F7F4FCE0107960E94AE020E946B02ED
:100AA000CE0107960E947E02CE0101960E947E0230
:100AB00080917501909176018230910509F475C09D
:100AC0000CF05EC0019709F463C020917901309168
:100AD0007A0180917301909174012115310509F01B
:100AE00068C020917701309178010197213031055C
:100AF00009F46CC080917301909174011816190665
:100B000074F0109374010093730144E250E066E3C3
:100B100071E08DE791E00E94B4000E946302609151
:100B2000730170917401CE0101960E9415036BE56B
:100B300071E0CE0107960E944D03BE016F5F7F4FAB
:100B4000CE0107960E94AE020E946B02CE0107966C
:100B50000E947E02CE0101960E947E02C114D10441
:100B600009F4EBCE0E941E01882309F4D8CE0E941E
:100B70000000D5CE2130310509F066CF019660CF57
:100B800083309105A1F0049709F09FCF75B802C09A
:100B900089E085B96091000170910101072E000C78
:100BA000880B990B0E94300290CF95B8F3CF85B88F
:100BB000F1CF2130310509F09DCF2091770130919F
:100BC00078012130310509F095CF01969093740199
:100BD000809373018FCFEDE7F1E01382128288EEEC
:100BE00093E0A0E0B0E084839583A683B7838CE094
:100BF00091E09183808385EC90E09587848784ECF5
:100C000090E09787868780EC90E0918B808B81ECD9
:100C100090E0938B828B82EC90E0958B848B86ECBA
:100C200090E0978B868B118E128E138E148E089502
:100C3000BB274A3031F4992322F4BDE29095819587
:100C40009F4F0C942406BB27FB015527AA27880F2A
:100C5000991FAA1FA41710F0A41B83955051B9F730
:100C6000A05DAA3308F0A95DA193009779F7B111AF
:100C7000B1931192CB010C943D06DC01FC01672F6E
:100C800071917723E1F7329704C07C916D93708363
:100C90006291AE17BF07C8F308952F923F924F920B
:100CA0005F926F927F928F929F92AF92BF92CF92FC
:100CB000DF92EF92FF920F931F93CF93DF93CDB705
:100CC000DEB7CA1BDB0B0FB6F894DEBF0FBECDBF7D
:100CD00009942A88398848885F846E847D848C844E
:100CE0009B84AA84B984C884DF80EE80FD800C8157
:100CF0001B81AA81B981CE0FD11D0FB6F894DEBF3A
:100D00000FBECDBFED010895EE0FFF1F0590F491CA
:100D1000E02D09940F931F93CF93DF9382309105B9
:100D200010F482E090E0E0911C02F0911D0230E0AE
:100D300020E0B0E0A0E0309799F42115310509F4E6
:100D40004AC0281B390B24303105D8F58A819B8194
:100D50006115710589F1FB0193838283FE0111C046
:100D6000408151810281138148175907E0F04817EB
:100D7000590799F4109761F012960C9312971396F5
:100D80001C933296CF01DF91CF911F910F9108955F
:100D900000931C0210931D02F4CF2115310551F070
:100DA0004217530738F0A901DB019A01BD01DF01A9
:100DB000F801C1CFEF01F9CF90931D0280931C027F
:100DC000CDCFFE01E20FF31F8193919322503109A1
:100DD00039832883D7CF20911A0230911B02232B0D
:100DE00041F4209104013091050130931B022093BE
:100DF0001A0220910201309103012115310541F4BD
:100E00002DB73EB74091060150910701241B350BC9
:100E1000E0911A02F0911B02E217F307A0F42E1BD7
:100E20003F0B2817390778F0AC014E5F5F4F24174E
:100E3000350748F04E0F5F1F50931B0240931A0274
:100E4000819391939FCFF0E0E0E09CCFCF93DF932D
:100E50000097E9F0FC01329713821282A0911C02E4
:100E6000B0911D02ED0130E020E01097A1F4208147
:100E70003181820F931F20911A0230911B02281793
:100E8000390709F061C0F0931B02E0931A02DF9169
:100E9000CF910895EA01CE17DF07E8F54A815B811B
:100EA0009E0141155105B1F7E901FB83EA834991A0
:100EB0005991C40FD51FEC17FD0761F48081918112
:100EC0000296840F951FE90199838883828193811B
:100ED0009B838A83F0E0E0E012968D919C911397BA
:100EE0000097B9F52D913C911197CD010296820F93
:100EF000931F20911A0230911B022817390739F6E7
:100F0000309751F510921D0210921C02B0931B02F3
:100F1000A0931A02BCCFD383C28340815181840F36
:100F2000951FC817D90761F44E5F5F4F888199817B
:100F3000480F591F518340838A819B819383828309
:100F40002115310509F0B0CFF0931D02E0931C028A
:100F50009ECFFD01DC01C0CF13821282D7CFB0E05B
:100F6000A0E0E5EBF7E00C944F068C01009751F4FC
:100F7000CB010E948A068C01C801CDB7DEB7E0E143
:100F80000C946B06FC01E60FF71F9C0122503109FF
:100F9000E217F30708F49DC0D901CD91DC911197B8
:100FA000C617D70798F0C530D10530F3CE010497A6
:100FB0008617970708F3C61BD70B2297C193D193C7
:100FC0006D937C93CF010E942607D6CF5B01AC1AAC
:100FD000BD0A4C018C0E9D1EA0911C02B0911D02F9
:100FE000512C412CF12CE12C109731F580911A02F3
:100FF00090911B028815990509F05CC046165706AA
:1010000008F058C08091020190910301009741F4CB
:101010008DB79EB74091060150910701841B950B37
:10102000E817F90708F055C0F0931B02E0931A0285
:10103000F90171836083A0CF8D919C9111971296D5
:101040006C90129713967C901397A815B90559F5D3
:101050006C0142E0C40ED11CCA14DB0420F1AC01C7
:101060004A195B09DA011296159780F06282738241
:1010700051834083D9016D937C93E114F10471F0A5
:10108000D7011396FC93EE93129776CF22968C0F8E
:101090009D1FF90191838083F301EFCFF0931D022F
:1010A000E0931C0269CF4816590608F42C017D0113
:1010B000D3019ACFCB010E948A067C01009749F0A8
:1010C000AE01B8010E946C08C8010E942607870182
:1010D00053CF10E000E050CFFB01DC0102C00190D3
:1010E0000D9241505040D8F70895FB01DC0101906A
:0C10F0000D920020E1F70895F894FFCF66
:1010FC00E80300001E028000000000005401B40050
:10110C00E100A1011201F00004010D0A00646972F2
:10111C00656374696F6E203A200020436F756E749E
:10112C006572203A20002A2A2A2A2A2A2A2A204CA6
:10113C00694D695420535720424153494C44492A24
:10114C002A2A2A2A2A2A2A2A2A2A00544F54414C6B
:0A115C0020434F554E54203A200066
:107800000C94343C0C94513C0C94513C0C94513CE1
:107810000C94513C0C94513C0C94513C0C94513CB4
:107820000C94513C0C94513C0C94513C0C94513CA4
:107830000C94513C0C94513C0C94513C0C94513C94
:107840000C94513C0C94513C0C94513C0C94513C84
:107850000C94513C0C94513C0C94513C0C94513C74
:107860000C94513C0C94513C11241FBECFEFD8E036
:10787000DEBFCDBF11E0A0E0B1E0ECE9FFE702C060
:1078800005900D92A230B107D9F712E0A2E0B1E065
:1078900001C01D92AD30B107E1F70E942D3D0C945F
:1078A000CC3F0C94003C982F959595959595959582
:1078B000905D8F708A307CF0282F295A8091C0000B
:1078C00085FFFCCF9093C6008091C00085FFFCCF60
:1078D0002093C6000895282F205DF0CF982F809127
:1078E000C00085FFFCCF9093C6000895EF92FF92F1
:1078F0000F931F93EE24FF2487018091C00087FD22
:1079000017C00894E11CF11C011D111D81E4E8164B
:1079100082E4F8068FE0080780E0180770F3E09132
:107920000401F091050109958091C00087FFE9CF1E
:107930008091C6001F910F91FF90EF9008950E94D3
:10794000763C982F8091C00085FFFCCF9093C600B5
:1079500091362CF490330CF09053892F089597555D
:10796000892F08951F930E949F3C182F0E949F3CCF
:107970001295107F810F1F9108951F93182F882350
:1079800021F00E94763C1150E1F71F9108951F935A
:10799000182F0E94763C803249F0809103018F5F5E
:1079A000809303018530C1F01F9108958091C0003C
:1079B00085FFFCCF84E18093C6008091C00085FFE5
:1079C000FCCF1093C6008091C00085FFFCCF80E102
:1079D0008093C6001F910895E0910401F091050184
:1079E00009951F9108950E94763C803241F0809164
:1079F00003018F5F80930301853081F008958091AA
:107A0000C00085FFFCCF84E18093C6008091C00058
:107A100085FFFCCF80E18093C6000895E0910401CA
:107A2000F09105010995089540E951E08823A1F0FE
:107A30002D9A28EE33E0FA013197F1F721503040CA
:107A4000D1F72D9828EE33E0FA013197F1F7215064
:107A50003040D1F7815061F708953F924F925F9285
:107A60006F927F928F929F92AF92BF92CF92DF924E
:107A7000EF92FF920F931F93CF93DF93000080E16B
:107A80008093C4001092C50088E18093C10086E015
:107A90008093C2005098589A259A81E00E94143D24
:107AA00024E1F22E9EE1E92E85E9D82E0FE0C02ECA
:107AB00010E1B12EAA24A394B1E49B2EA6E58A2E50
:107AC000F2E57F2EE0E26E2E79E4572E63E5462E36
:107AD00050E5352E0E94763C8033B1F18133B9F107
:107AE000803409F46FC0813409F476C0823409F41B
:107AF00085C0853409F488C0803531F1823521F1A3
:107B0000813511F1853509F485C0863509F48DC0BC
:107B1000843609F496C0843709F403C1853709F423
:107B200072C1863709F466C0809103018F5F80932C
:107B30000301853079F6E0910401F0910501099582
:107B40000E94763C803351F60E94F33CC3CF0E94E2
:107B5000763C803249F78091C00085FFFCCFF092DF
:107B6000C6008091C00085FFFCCF9092C600809136
:107B7000C00085FFFCCF8092C6008091C00085FFC9
:107B8000FCCF7092C6008091C00085FFFCCF609250
:107B9000C6008091C00085FFFCCF5092C600809146
:107BA000C00085FFFCCF4092C6008091C00085FFD9
:107BB000FCCF3092C6008091C00085FFFCCFB09210
:107BC000C60088CF0E94763C863808F4BDCF0E945C
:107BD000763C0E94F33C7ECF0E94763C803809F4CC
:107BE0009CC0813809F40BC1823809F43CC1883942
:107BF00009F48FC080E00E94C73C6CCF84E10E94F2
:107C0000BD3C0E94F33C66CF85E00E94BD3C0E94D3
:107C1000F33C60CF0E94763C809306010E94763C44
:107C2000809307010E94F33C55CF0E94763C80333D
:107C300009F41DC183E00E94BD3C80E00E94C73C66
:107C400049CF0E94763C809309020E94763C809343
:107C5000080280910C028E7F80930C020E94763C79
:107C6000853409F415C18091080290910902892B8D
:107C700089F000E010E00E94763CF801E85FFE4FDA
:107C800080830F5F1F4F80910802909109020817AF
:107C9000190788F30E94763C803209F045CF809125
:107CA0000C0280FF01C16091060170910701660F0F
:107CB000771F7093070160930601A0910802B091AD
:107CC00009021097C9F0E8E0F1E09B01AD014E0F09
:107CD0005F1FF999FECF32BD21BD819180BDFA9A17
:107CE000F99A2F5F3F4FE417F50799F76A0F7B1F4B
:107CF00070930701609306018091C00085FFFCCF5F
:107D0000F092C6008091C00085FFFCCFB092C60003
:107D1000E1CE83E00E94C73CDDCE82E00E94C73CFA
:107D2000D9CE0E94763C809309020E94763C8093D3
:107D300008028091060190910701880F991F909386
:107D40000701809306010E94763C853409F4A6C0A1
:107D500080910C028E7F80930C020E94763C8032D0
:107D600009F0B8CE8091C00085FFFCCFF092C6002C
:107D7000609108027091090261157105B9F140E046
:107D800050E080910C02A82FA170B82FB27011C0E2
:107D9000BB2309F45CC0E0910601F0910701319624
:107DA000F0930701E09306014F5F5F4F46175707B7
:107DB000E8F4AA2369F3F999FECF209106013091E6
:107DC000070132BD21BDF89A90B58091C00085FFB2
:107DD000FCCF9093C6002F5F3F4F30930701209355
:107DE00006014F5F5F4F4617570718F38091C00099
:107DF00085FDE5CE8091C00085FFF8CFE0CE81E023
:107E00000E94C73C67CE0E94763C803209F08CCE3F
:107E10008091C00085FFFCCFF092C6008091C00029
:107E200085FFFCCFE092C6008091C00085FFFCCFAB
:107E3000D092C6008091C00085FFFCCFC092C600E2
:107E40008091C00085FFFCCFB092C60043CEE09188
:107E50000601F091070194918091C00085FFFCCF4D
:107E60009093C6009CCF80E10E94C73C33CE0E9415
:107E7000763C0E94763C182F0E94763C112309F430
:107E800083C0113009F484C08FE00E94C73C22CE29
:107E900080910C02816080930C02E5CE80910C02EF
:107EA000816080930C0259CF809107018823880F4D
:107EB000880B8A2180930B02809106019091070123
:107EC000880F991F90930701809306018091080203
:107ED00080FF09C080910802909109020196909359
:107EE000090280930802F894F999FECF1127E091D6
:107EF0000601F0910701C8E0D1E08091080290915D
:107F00000902103091F40091570001700130D9F34B
:107F100003E000935700E89500915700017001308D
:107F2000D9F301E100935700E89509901990009169
:107F3000570001700130D9F301E000935700E89534
:107F40001395103498F011270091570001700130FB
:107F5000D9F305E000935700E895009157000170B0
:107F60000130D9F301E100935700E895329602976A
:107F700009F0C7CF103011F00296E5CF112480919F
:107F8000C00085FFB9CEBCCE8EE10E94C73CA2CD19
:0C7F900085E90E94C73C9ECDF894FFCF0D
:027F9C00800063
:040000030000780081
:00000001FF
