:100000000C9462000C948A000C948A000C948A0070
:100010000C948A000C948A000C948A000C948A0038
:100020000C948A000C948A000C948A000C948A0028
:100030000C948A000C948A000C948A000C948A0018
:100040000C946B030C948A000C9439030C941303E6
:100050000C948A000C948A000C948A000C948A00F8
:100060000C948A000C948A000000000024002700F1
:100070002A000000000023002600290000000000E4
:10008000250028002B0004040404040404040202D4
:100090000202020203030303030301020408102007
:1000A0004080010204081020010204081020000012
:1000B0000008000201000003040700000000000027
:1000C0000000730611241FBECFEFD8E0DEBFCDBF06
:1000D00011E0A0E0B1E0E4E9FDE002C005900D927E
:1000E000AC3BB107D9F722E0ACEBB1E001C01D9207
:1000F000A636B207E1F710E0C2E6D0E004C02197CF
:10010000FE010E94C206C136D107C9F70E94B5039D
:100110000C94C8060C940000AF92BF92CF92DF926D
:10012000EF92FF920F931F93CF93DF936C017B01AC
:100130008B01040F151FEB015E01AE18BF08C0173D
:10014000D10759F06991D601ED91FC910190F081B0
:10015000E02DC6010995892B79F7C501DF91CF9173
:100160001F910F91FF90EF90DF90CF90BF90AF90D5
:100170000895FC01538D448D252F30E0842F90E0AD
:10018000821B930B541710F0CF9608950197089592
:10019000FC01918D828D981761F0A28DAE0FBF2F5B
:1001A000B11D5D968C91928D9F5F9F73928F90E0B1
:1001B00008958FEF9FEF0895FC01918D828D981720
:1001C00031F0828DE80FF11D858D90E008958FEF5D
:1001D0009FEF0895FC01918D228D892F90E0805C26
:1001E0009F4F821B91098F739927089589EC91E0A5
:1001F0000E94EA0021E0892B09F420E0822F089573
:1002000080E090E0892B29F00E94F60081110C9487
:1002100000000895FC01A48DA80FB92FB11DA35AA9
:10022000BF4F2C91848D90E001968F739927848F16
:10023000A689B7892C93A089B1898C918370806439
:100240008C93938D848D981306C00288F389E02DDA
:1002500080818F7D80830895EF92FF920F931F938B
:10026000CF93DF93EC0181E0888F9B8D8C8D981369
:100270001AC0E889F989808185FF15C09FB7F89475
:10028000EE89FF896083E889F989808183708064C1
:1002900080839FBF81E090E0DF91CF911F910F910C
:1002A000FF90EF900895F62E0B8D10E00F5F1F4F1B
:1002B0000F731127E02E8C8D8E110CC00FB607FC2A
:1002C000FACFE889F989808185FFF5CFCE010E94B8
:1002D0000A01F1CFEB8DEC0FFD2FF11DE35AFF4F1B
:1002E000F0829FB7F8940B8FEA89FB898081806246
:1002F000CFCFCF93DF93EC01888D8823B9F0AA8903
:10030000BB89E889F9898C9185FD03C0808186FDD0
:100310000DC00FB607FCF7CF8C9185FFF2CF80811F
:1003200085FFEDCFCE010E940A01E9CFDF91CF9189
:100330000895833081F028F4813099F08230A9F05B
:1003400008958730A9F08830C9F08430B1F48091E5
:1003500080008F7D03C0809180008F778093800024
:10036000089584B58F7784BD089584B58F7DFBCFC4
:100370008091B0008F778093B00008958091B00095
:100380008F7DF9CF1F93CF93DF93E8EBF0E094914B
:10039000E4EAF0E0D491E0E9F0E0C491CC23B9F0D4
:1003A000182F992319F0892F0E949901EC2FF0E062
:1003B000EE0FFF1FE458FF4FA591B4918FB7F8944B
:1003C000EC91111108C0D095DE23DC938FBFDF9133
:1003D000CF911F910895DE2BF8CFCF93DF93E0EB01
:1003E000F0E08491ECE9F0E0D491E8E8F0E0C49129
:1003F000CC23A1F081110E949901EC2FF0E0EE0FC7
:10040000FF1FEE58FF4FA591B491EC91ED2381E0D1
:1004100090E009F480E0DF91CF91089580E090E0D2
:10042000FACFCF93DF9390E0FC01E656FF4F249183
:100430008A579F4FFC0184918823D1F090E0880F68
:10044000991FFC01E859FF4FA591B491FC01E458B4
:10045000FF4FC591D49161110EC09FB7F8948C9154
:10046000E22FE0958E238C932881E223E8839FBFBF
:10047000DF91CF9108958FB7F894EC91E22BEC9334
:100480008FBFF6CF3FB7F8948091C1019091C20120
:10049000A091C301B091C40126B5A89B05C02F3F10
:1004A00019F00196A11DB11D3FBFBA2FA92F982F9A
:1004B0008827BC01CD01620F711D811D911D42E095
:1004C000660F771F881F991F4A95D1F708958F925D
:1004D0009F92AF92BF92CF92DF92EF92FF924B0129
:1004E0005C010E9442026B017C010E9442026C1975
:1004F0007D098E099F09683E734081059105A8F327
:1005000021E0821A9108A108B10888EEC80E83E0A4
:10051000D81EE11CF11C81149104A104B10429F737
:10052000FF90EF90DF90CF90BF90AF909F908F9013
:1005300008958EBD00000DB407FEFDCF8EB5089561
:1005400080E00E94C20186E00E94990281E00E9440
:10055000C2016AE070E080E090E00C946702FC0168
:1005600001900020E9F73197AF01481B590BBC01FE
:1005700089EC91E00C948C008F929F92AF92BF9285
:100580000F931F93CF93DF93CDB7DEB7A1970FB62D
:10059000F894DEBF0FBECDBF19A2423008F44AE086
:1005A0008E010F5D1F4F842E912CB12CA12CA50123
:1005B00094010E94A006E62FB901CA01EA30F4F4C2
:1005C000E05DD801EE938D01232B242B252B79F7A9
:1005D00090E080E0109719F0CD010E94AF02A19643
:1005E0000FB6F894DEBF0FBECDBFDF91CF911F9144
:1005F0000F91BF90AF909F908F900895E95CE1CFED
:10060000CF93DF93682F70E090E080E040E10E949C
:10061000BC02EC0183E191E00E94AF028C0F9D1FB0
:10062000DF91CF9108951F920F920FB60F92112470
:100630002F933F934F935F936F937F938F939F93EA
:10064000AF93BF93EF93FF9389EC91E00E940A016F
:10065000FF91EF91BF91AF919F918F917F916F919A
:100660005F914F913F912F910F900FBE0F901F9070
:1006700018951F920F920FB60F9211242F938F93FC
:100680009F93EF93FF93E091D901F091DA0180817C
:10069000E091DF01F091E00182FD1BC0908180912B
:1006A000E2018F5F8F732091E301821741F0E091A7
:1006B000E201F0E0E753FE4F958F8093E201FF9156
:1006C000EF919F918F912F910F900FBE0F901F90E0
:1006D00018958081F4CF1F920F920FB60F921124BC
:1006E0002F933F938F939F93AF93BF938091BD01BF
:1006F0009091BE01A091BF01B091C0013091BC01A9
:1007000023E0230F2D3758F50196A11DB11D20932D
:10071000BC018093BD019093BE01A093BF01B09333
:10072000C0018091C1019091C201A091C301B0911B
:10073000C4010196A11DB11D8093C1019093C20116
:10074000A093C301B093C401BF91AF919F918F91CA
:100750003F912F910F900FBE0F901F90189526E894
:10076000230F0296A11DB11DD2CF789484B582606B
:1007700084BD84B5816084BD85B5826085BD85B545
:10078000816085BD80916E00816080936E001092C3
:10079000810080918100826080938100809181003E
:1007A00081608093810080918000816080938000CF
:1007B0008091B10084608093B1008091B00081602D
:1007C0008093B00080917A00846080937A00809159
:1007D0007A00826080937A0080917A0081608093B1
:1007E0007A0080917A00806880937A001092C1002C
:1007F00060E082E00E941102E091D901F091DA01FB
:1008000082E08083E091D501F091D6011082E091E1
:10081000D701F091D8018FEC80831092E101E09133
:10082000DD01F091DE0186E08083E091DB01F09153
:10083000DC01808180618083E091DB01F091DC014B
:10084000808188608083E091DB01F091DC01808110
:1008500080688083E091DB01F091DC0180818F7DF5
:10086000808381E00E94C201CFB7F8948091C501D6
:10087000811126C0E0E9F0E08491E4EAF0E094918F
:10088000E82FF0E0EE0FFF1FE859FF4FA591B4915C
:10089000EC91E92319F481E00E94C20161E08AE051
:1008A0000E9411028CB580618CBD8CB580648CBDBA
:1008B00061E08DE00E94110261E08BE00E94110274
:1008C0008091C5018F5F8093C501CFBF81E58CBD4D
:1008D00081E08DBD80E00E94C20184E00E94990207
:1008E00081E00E94C20164E670E080E090E00E9436
:1008F000670280E00E94C20185E00E94990280E0C8
:100900000E94990281E00E94C20164E670E080E0EA
:1009100090E00E94670280E00E94C20186E00E948F
:10092000990281E00E94C20164E670E080E090E0FC
:100930000E94670280E00E94C20181E00E94990249
:1009400081E00E94C20164E670E080E090E00E94D5
:100950006702C6E0D0E086E191E00E94AF0282E348
:1009600091E00E94AF02809100010E9400030E946A
:10097000ED010197E1F30E94ED01892BE1F380E0A5
:100980000E94C20185E00E94990280E00E949902C3
:1009900081E00E94C2016AE070E080E090E00E9485
:1009A000670280E00E94C20186E00E94990281E015
:1009B0000E94C2016AE070E080E090E00E9467025D
:1009C000F09000018F2D90E09093C8018093C701B3
:1009D00080E00E94C20182E00E94990280E00E94B1
:1009E00099028F2D0E9499028F2D0E94990281E019
:1009F0000E94C2016AE070E080E090E00E9467021D
:100A000080E00E94C20185E00E94990280E00E947D
:100A1000990281E00E94C2016AE070E080E090E00B
:100A20000E94670280E00E94C20183E00E94990256
:100A300080E00E9499028F2D0E94990280E00E941E
:100A40009902182F81E00E94C2018AE491E00E947D
:100A5000AF02812F0E9400036AE070E080E090E026
:100A60000E946702809100018150809300012197CC
:100A700009F071CFC6E0D0E08CE591E00E94AF02B2
:100A800082E391E00E94AF02809100010E94000386
:100A90000E94ED010197E1F380E00E94C20185E030
:100AA0000E94990280E00E94990281E00E94C201A6
:100AB0006AE070E080E090E00E94670280E00E94BF
:100AC000C20186E00E94990281E00E94C2016AE0B0
:100AD00070E080E090E00E946702F09000018F2DAE
:100AE00090E09093C8018093C70180E00E94C2010A
:100AF00082E00E94990280E00E9499028F2D0E945C
:100B000099028F2D0E94990281E00E94C2016AE041
:100B100070E080E090E00E94670280E00E94C201E5
:100B200085E00E94990280E00E94990281E00E9483
:100B3000C2016AE070E080E090E00E94670280E01D
:100B40000E94C20183E00E94990280E00E94990203
:100B50008F2D0E94990280E00E949902182F81E057
:100B60000E94C2018AE491E00E94AF02812F0E949C
:100B700000036AE070E080E090E00E9467028091EC
:100B800000018F5F80930001219709F075CFC0E2CB
:100B9000D0E000E010E0D093C801C093C7010E94EC
:100BA000A00280E00E94C20182E00E94990280E0DF
:100BB0000E94990280E20E94990288E7E82E81E073
:100BC000F82EF70181917F01882319F00E94990284
:100BD000F8CF81E00E94C20168EB7BE080E090E00A
:100BE0000E94670289E991E00E94AF0283E191E0EF
:100BF0000E94AF02C12CD12C76010E94A00280E09D
:100C00000E94C20182E00E949902B090C7018091C7
:100C1000C8010E9499028B2D0E9499028C2D0E947E
:100C2000990281E00E94C20187EA91E00E94AF022E
:100C30004AE0C701B6010E94BC0283E191E00E9434
:100C4000AF0264E670E080E090E00E94670280E01E
:100C50000E94C20183E00E949902B090C701809176
:100C6000C8010E9499028B2D0E94990280E00E9487
:100C700099028093C60180E00E949902B82E81E01B
:100C80000E94C2018AE491E00E94AF026091C60115
:100C900070E090E080E040E10E94BC0288EB91E0CF
:100CA0000E94AF028B2D0E94000364E670E080E09A
:100CB00090E00E946702FFEFCF1ADF0AEF0AFF0AF7
:100CC0008BE0C816D104E104F10409F096CF0115B8
:100CD000110509F460CF0E94F600882309F45BCF68
:100CE0000E94000058CFE9ECF1E01382128288EEF6
:100CF00093E0A0E0B0E084839583A683B78385E08A
:100D000091E09183808385EC90E09587848784ECE3
:100D100090E09787868780EC90E0918B808B81ECC8
:100D200090E0938B828B82EC90E0958B848B86ECA9
:100D300090E0978B868B118E128E138E148E0895F1
:100D4000A1E21A2EAA1BBB1BFD010DC0AA1FBB1FCF
:100D5000EE1FFF1FA217B307E407F50720F0A21B41
:100D6000B30BE40BF50B661F771F881F991F1A94AE
:100D700069F760957095809590959B01AC01BD01D8
:100D8000CF010895EE0FFF1F0590F491E02D099417
:040D9000F894FFCF05
:100D940014000000002C018C00B9007901EA00C89D
:100DA40000DC000D0A0020417361676920736179DA
:100DB4006D6120206275746F6E6120626173696E6B
:100DC40020002079617A696C6163616B20646567D6
:100DD400657220484558203A2000206F6B756E617B
:100DE4006E20646567657220203A20002079756B57
:100DF400617269207361796D61206275746F6E61CF
:100E040020626173696E20003132333435363738ED
:100E14003930393837363534333231304D657268CC
:100E24006162612131323334007361796D61206212
:100E340061736C6164690079617A696C616E2064C4
:0C0E440065676572203A2000202C200019
:00000001FF
