:100000000C9462000C948A000C948A000C948A0070
:100010000C948A000C948A000C948A000C948A0038
:100020000C948A000C948A000C948A000C948A0028
:100030000C948A000C948A000C948A000C948A0018
:100040000C946F030C948A000C943D030C941703DA
:100050000C948A000C948A000C948A000C948A00F8
:100060000C948A000C948A000000000023002600F3
:10007000290000000000240027002A0000000000E2
:10008000250028002B0004040404040404040202D4
:100090000202020203030303030301020408102007
:1000A0004080010204081020010204081020000012
:1000B0000008000201000003040700000000000027
:1000C0000000070611241FBECFEFD8E0DEBFCDBF72
:1000D00011E0A0E0B1E0ECEBFCE002C005900D9275
:1000E000A439B107D9F722E0A4E9B1E001C01D921B
:1000F000AE33B207E1F710E0C2E6D0E004C02197CA
:10010000FE010E945606C136D107C9F70E94B90305
:100110000C945C060C940000AF92BF92CF92DF92D9
:10012000EF92FF920F931F93CF93DF936C017B01AC
:100130008B01040F151FEB015E01AE18BF08C0173D
:10014000D10759F06991D601ED91FC910190F081B0
:10015000E02DC6010995892B79F7C501DF91CF9173
:100160001F910F91FF90EF90DF90CF90BF90AF90D5
:100170000895FC01538D448D252F30E0842F90E0AD
:10018000821B930B541710F0CF9608950197089592
:10019000FC01918D828D981761F0A28DAE0FBF2F5B
:1001A000B11D5D968C91928D9F5F9F73928F90E0B1
:1001B00008958FEF9FEF0895FC01918D828D981720
:1001C00031F0828DE80FF11D858D90E008958FEF5D
:1001D0009FEF0895FC01918D228D892F90E0805C26
:1001E0009F4F821B91098F739927089581EA91E0AF
:1001F0000E94EA0021E0892B09F420E0822F089573
:1002000080E090E0892B29F00E94F60081110C9487
:1002100000000895FC01A48DA80FB92FB11DA35AA9
:10022000BF4F2C91848D90E001968F739927848F16
:10023000A689B7892C93A089B1898C918370806439
:100240008C93938D848D981306C00288F389E02DDA
:1002500080818F7D80830895EF92FF920F931F938B
:10026000CF93DF93EC0181E0888F9B8D8C8D981369
:100270001AC0E889F989808185FF15C09FB7F89475
:10028000EE89FF896083E889F989808183708064C1
:1002900080839FBF81E090E0DF91CF911F910F910C
:1002A000FF90EF900895F62E0B8D10E00F5F1F4F1B
:1002B0000F731127E02E8C8D8E110CC00FB607FC2A
:1002C000FACFE889F989808185FFF5CFCE010E94B8
:1002D0000A01F1CFEB8DEC0FFD2FF11DE35AFF4F1B
:1002E000F0829FB7F8940B8FEA89FB898081806246
:1002F000CFCFCF93DF93EC01888D8823B9F0AA8903
:10030000BB89E889F9898C9185FD03C0808186FDD0
:100310000DC00FB607FCF7CF8C9185FFF2CF80811F
:1003200085FFEDCFCE010E940A01E9CFDF91CF9189
:100330000895833081F028F4813099F08230A9F05B
:1003400008958730A9F08830C9F08430B1F48091E5
:1003500080008F7D03C0809180008F778093800024
:10036000089584B58F7784BD089584B58F7DFBCFC4
:100370008091B0008F778093B00008958091B00095
:100380008F7DF9CF1F93CF93DF93E8EBF0E094914B
:10039000E4EAF0E0D491E0E9F0E0C491CC23B9F0D4
:1003A000182F992319F0892F0E949901EC2FF0E062
:1003B000EE0FFF1FE458FF4FA591B4918FB7F8944B
:1003C000EC91111108C0D095DE23DC938FBFDF9133
:1003D000CF911F910895DE2BF8CFCF93DF93282F75
:1003E00030E0F901E255FF4F8491F901E656FF4FE5
:1003F000D491F901EA57FF4FC491CC23A1F08111A8
:100400000E949901EC2FF0E0EE0FFF1FE859FF4F1B
:10041000A591B491EC91ED2381E090E009F480E0A6
:10042000DF91CF91089580E090E0FACFCF93DF93F2
:1004300090E0FC01E656FF4F24918A579F4FFC0144
:1004400084918823D1F090E0880F991FFC01EE5829
:10045000FF4FA591B491FC01E458FF4FC591D49191
:1004600061110EC09FB7F8948C91E22FE0958E2316
:100470008C932881E223E8839FBFDF91CF91089579
:100480008FB7F894EC91E22BEC938FBFF6CF3FB788
:10049000F8948091990190919A01A0919B01B0915B
:1004A0009C0126B5A89B05C02F3F19F00196A11D00
:1004B000B11D3FBFBA2FA92F982F8827BC01CD01AE
:1004C000620F711D811D911D42E0660F771F881F0D
:1004D000991F4A95D1F708958F929F92AF92BF923C
:1004E000CF92DF92EF92FF924B015C010E94470294
:1004F0006B017C010E9447026C197D098E099F09DE
:10050000683E734081059105A8F321E0821A9108A5
:10051000A108B10888EEC80E83E0D81EE11CF11CCA
:1005200081149104A104B10429F7FF90EF90DF90AA
:10053000CF90BF90AF909F908F9008958EBD000098
:100540000DB407FEFDCF8EB50895FC01019000208B
:10055000E9F73197AF01481B590BBC0181EA91E0E3
:100560000C948C008F929F92AF92BF920F931F9327
:10057000CF93DF93CDB7DEB7A1970FB6F894DEBF68
:100580000FBECDBF19A2423008F44AE08E010F5DC4
:100590001F4F842E912CB12CA12CA50194010E94F7
:1005A0003406E62FB901CA01EA30F4F4E05DD8015F
:1005B000EE938D01232B242B252B79F790E080E0FF
:1005C000109719F0CD010E94A502A1960FB6F894DC
:1005D000DEBF0FBECDBFDF91CF911F910F91BF90B6
:1005E000AF909F908F900895E95CE1CFCF93DF9318
:1005F0000E94A502EC0184E191E00E94A5028C0F0B
:100600009D1FDF91CF910895CF93DF93BC01990F88
:10061000880B990B40E10E94B202EC0184E191E069
:100620000E94A5028C0F9D1FDF91CF9108951F920C
:100630000F920FB60F9211242F933F934F935F9316
:100640006F937F938F939F93AF93BF93EF93FF939A
:1006500081EA91E00E940A01FF91EF91BF91AF9171
:100660009F918F917F916F915F914F913F912F91CA
:100670000F900FBE0F901F9018951F920F920FB6FC
:100680000F9211242F938F939F93EF93FF93E091F9
:10069000B101F091B2018081E091B701F091B80110
:1006A00082FD1BC090818091BA018F5F8F73209172
:1006B000BB01821741F0E091BA01F0E0EF55FE4F27
:1006C000958F8093BA01FF91EF919F918F912F9118
:1006D0000F900FBE0F901F9018958081F4CF1F923E
:1006E0000F920FB60F9211242F933F938F939F93E6
:1006F000AF93BF938091950190919601A09197013E
:10070000B09198013091940123E0230F2D3758F5D3
:100710000196A11DB11D20939401809395019093A2
:100720009601A0939701B0939801809199019091BF
:100730009A01A0919B01B0919C010196A11DB11D50
:100740008093990190939A01A0939B01B0939C018F
:10075000BF91AF919F918F913F912F910F900FBEBD
:100760000F901F90189526E8230F0296A11DB11D2A
:10077000D2CF789484B5826084BD84B5816084BD15
:1007800085B5826085BD85B5816085BD80916E002F
:10079000816080936E001092810080918100826060
:1007A000809381008091810081608093810080919D
:1007B00080008160809380008091B100846080938C
:1007C000B1008091B00081608093B00080917A0088
:1007D000846080937A0080917A00826080937A00AE
:1007E00080917A00816080937A0080917A0080689D
:1007F00080937A001092C10060E082E00E941602AD
:1008000060E083E00E941602E091B101F091B20134
:1008100082E08083E091AD01F091AE011082E09121
:10082000AF01F091B0018FEC80831092B901E0919B
:10083000B501F091B60186E08083E091B301F091BB
:10084000B401808180618083E091B301F091B401B3
:10085000808188608083E091B301F091B401808150
:1008600080688083E091B301F091B40180818F7D35
:10087000808381E00E94C201CFB7F89480919D01EE
:10088000811126C0E0E9F0E08491E4EAF0E094917F
:10089000E82FF0E0EE0FFF1FEE58FF4FA591B49147
:1008A000EC91E92319F481E00E94C20161E08AE041
:1008B0000E9416028CB580618CBD8CB580648CBDA5
:1008C00061E08DE00E94160261E08BE00E9416025A
:1008D00080919D018F5F80939D01CFBF80E58CBD8E
:1008E0001DBC80E00E94C20181E00E949E0280E067
:1008F0000E949E0281E00E94C20168EE73E080E0E7
:1009000090E00E946C0280E00E94C2018BEA0E948B
:100910009E0280E00E949E0280E00E949E0280E093
:100920000E949E0280E00E949E02C82F81E00E94E9
:10093000C20187E191E00E94A5026C2F70E090E077
:1009400080E040E10E94B20284E191E00E94A502B1
:1009500080E00E94C20189EB0E949E0280E00E941A
:100960009E0281E00E94C20168EE73E080E090E0A8
:100970000E946C02C0E180E0E82E80E0F82E80E06A
:100980000E94C20186E00E949E0281E00E94C20194
:100990006AE070E080E090E00E946C02D0919E01DD
:1009A000BB24B394BD0EB0929E0180E00E94C201B0
:1009B00082E00E949E0200919F011091A0016801B7
:1009C0000C2E02C0D594C7940A94E2F78C2D0E9495
:1009D0009E02812F0E949E02802F0E949E028B2DDC
:1009E0000E949E0282E08D0F0E949E0281E00E9482
:1009F000C201C6010E9404039091A001892F990FA2
:100A0000990B0E94040380919F019091A0010E9484
:100A100004036AE070E080E090E00E946C0280E0F5
:100A20000E94C20183E00E949E0200919F011091EA
:100A3000A001C8010C2E02C0959587950A94E2F793
:100A40000E949E02812F0E949E02802F0E949E0281
:100A500080E00E949E02082F80E00E949E02182FD4
:100A600081E00E94C20181E291E00E94A502602F14
:100A700070E090E080E040E10E94B20283E391E008
:100A80000E94A502612F70E090E080E040E10E94AA
:100A9000B20284E191E00E94A5026AE070E080E089
:100AA00090E00E946C0280919F019091A0010296BB
:100AB0009093A00180939F0182E00E94ED01892B19
:100AC00041F580E00E94C20187EC0E949E0281E015
:100AD0000E94C20160ED77E080E090E00E946C022D
:100AE00080E00E94C20182E60E949E0281E00E9494
:100AF000C20160ED77E080E090E00E946C0287E345
:100B000091E00E94F6021092A00110929F011092B3
:100B10009E0183E00E94ED01892B09F06CC087E4FF
:100B200091E00E94F60280E00E94C20186E00E94ED
:100B30009E0281E00E94C2016AE070E080E090E0E5
:100B40000E946C0280E00E94C20182E40E949E0228
:100B50000091000110910101C8010C2E02C0959571
:100B600087950A94E2F70E949E02812F0E949E02BE
:100B7000802F0E949E0281E00E94C2018AE591E0DE
:100B80000E94F60260ED77E080E090E00E946C0247
:100B9000109201011092000180E00E94C20186E0E3
:100BA0000E949E0281E00E94C2016AE070E080E043
:100BB00090E00E946C0280E00E94C20182E50E94E7
:100BC0009E0280E00E949E0280E00E949E0280E0E1
:100BD0000E949E0281E00E94C2018BE691E00E9489
:100BE000F60260ED77E080E090E00E946C028EE714
:100BF00091E00E94F602E114F10409F4C0CE0E94D3
:100C0000F600882309F4BBCE0E940000B8CEE1EACA
:100C1000F1E01382128288EE93E0A0E0B0E08483DA
:100C20009583A683B78386E091E09183808385ECEA
:100C300090E09587848784EC90E09787868780ECA6
:100C400090E0918B808B81EC90E0938B828B82EC97
:100C500090E0958B848B86EC90E0978B868B118E41
:100C6000128E138E148E0895A1E21A2EAA1BBB1B9E
:100C7000FD010DC0AA1FBB1FEE1FFF1FA217B30768
:100C8000E407F50720F0A21BB30BE40BF50B661F7E
:100C9000771F881F991F1A9469F760957095809542
:100CA00090959B01AC01BD01CF010895EE0FFF1F90
:0C0CB0000590F491E02D0994F894FFCF1A
:100CBC008000000000002C018C00B9007901EA00D2
:100CCC00C800DC000D0A00204944204E4F203A2079
:100CDC0000206F6B756E616E2064656765722020F5
:100CEC003A2000202C2000206275746F6E20626107
:100CFC0073696C646920007061676520657261734B
:100D0C0065206261736C6164690070616765206560
:100D1C007261736520626974746900736563746FC2
:100D2C007220657261736520626974746900207049
:100D3C0061676520657261736520796170696C64A7
:040D4C00692000001A
:00000001FF
