:1000000000308A00902A0000FF00030E8301A10047
:100010000A08A0008A010408A2007708A300780853
:10002000A4007908A5007A08A6007B08A70083131E
:1000300083128C308400801E1F288C1A32282208DC
:1000400084002308F7002408F8002508F900260892
:10005000FA002708FB0020088A00210E8300FF0E0B
:100060007F0E09008A110A12BA290A108A100A1191
:10007000820728340C34013406340A108A100A111D
:1000800082070A340D34593461347A346434693463
:10009000673469346E3469347A3420344D346534CD
:1000A000743469346E343E3420342034253473344F
:1000B0000A3400340A108A100A1182070A340D34F7
:1000C0004B346C346134763479346534643465345B
:1000D0006E34203462346934723420346D346534C3
:1000E000743469346E34203467346934723469345A
:1000F0006E3469347A34203476346534203465348F
:100100006E3474346534723420347434753473341A
:1001100075346E346134203462346134733469343C
:100120006E3469347A343E3400340A108A100A116D
:1001300082070D342A342A342A342A342A342A34C1
:100140002A342A342A342A342A342A342A342A34BF
:100150002A342A3420344D3465347234683461349E
:100160006234613420342A342A342A342A342A343A
:100170002A342A342A342A342A342A342A342A348F
:100180002A342A342A342A342A342A342A342A347F
:1001900000340A108A100A11D03E03188A0A82001D
:1001A0000A340D344B346C3461347634793465342C
:1001B000643465346E3420346734693472346434A2
:1001C0006934673469346E3469347A342034623483
:1001D00069346C34673469346C3465347234203477
:1001E0004C34433444342734643465342034673425
:1001F0006F34723475346E346534633465346B3403
:100200007434693472340A340A340034F03083169A
:100210008600831206150000061400000608060E6C
:100220000F390317A1000313061000000614000085
:100230000608060E0F390317A0000313061000303E
:100240008316860083120317210EF700F030F7059E
:1002500077082004F800031300340317210EF03947
:10026000F7000F300313060577048600000006141C
:100270003929061000348610062178080317A000DB
:10028000A01F442903133C291E1849290313861073
:1002900003171E1C4E2903138614031700000313B3
:1002A00006110000061003171F0EA0000F30A00556
:1002B0002008A10003132D2103171F080F39A000E8
:1002C000A10003132D2100341A3084008317000885
:1002D000031978290130F800F701F70B6D29F80BA5
:1002E0006C294A30F700F70B73297629800B6A29AD
:1002F0000034031719080C3A031303198629063A28
:1003000003199229023A0319AA29B12903179E0158
:1003100001309F0003133B21023003179A0003139F
:100320006421B929013003179A0002309B001B0B8E
:100330009A299D2940309C009E299C0101301A0277
:100340009C071C0880389D009E011D089F00031318
:100350003B21B92903179E0110309F0003133B2155
:10036000B929013003179E0019089F0003133B2190
:10037000B929003483168C128312A9122908831616
:10038000870083128716A030840083138403840AB5
:100390008C1EC8291A0880000D300002031DC729D1
:1003A000800103179701170803133D200317970ACD
:1003B000F70003130C1EDA299900153003171702F2
:1003C000031DD329A03084008313003000040319D7
:1003D000F129000803130C1EEB299900840A031766
:1003E000E5290A3003130C1EF32999000C3003177A
:1003F000990003137921A030840083130030000496
:100400000319162A03179801040897001810831B74
:1004100018140008990003137921031717088400A2
:10042000831318188317840A0313FE29A9122908B5
:100430008316870083128712031797011708031387
:100440005A200317970AF70003130C1E252A990058
:10045000363003171702031D1E2A03138C128A114C
:100460000A121F2800308316860083128610061198
:100470000610A8018B1BA8178B130F3003179A00C7
:1004800003136421A81B8B17013003179000100879
:10049000033C031C652A0313A8018B1BA8178B13AD
:1004A00003300317A10003132D21A81B8B17A801EC
:1004B0008B1BA8178B13053003179A0003136421B5
:1004C000A81B8B170317900A472A0313A8018B1B3D
:1004D000A8178B1302300317A10003132D21A81BAB
:1004E0008B17031790011008033C031C8C2A10087B
:1004F00003133520031791000313A8018B1BA817C2
:100500008B1303179E0111089F0003133B21A81BA7
:100510008B170317900A732A03138A110A12C72A2A
:10052000840183131F308305193083169900A63088
:10053000980090308312980083161F149F141F1583
:100540009F11FF308312A9008316091283129001B4
:100550000030F80092000030831692001F149F14A0
:100560001F159F1183121F10291529088316870054
:1005700083129701A91429088316870083129D010D
:10058000A91229088316870083128712322A0317BB
:1005900090011008031395200317900AF700031326
:1005A0000C1ED02A99002F3003171002031DC92AF0
:1005B000900110080313C9200317900AF7000313D2
:1005C0000C1EE02A9900353003171002031DD92AAA
:1005D0009001100803135A200317900AF700031321
:1005E0000C1EF02A9900363003171002031DE92A69
:0E05F000C03003138B0483168C16FC2A6300A4
:02400E00393F38
:00000001FF
;PIC16F877
;CRC=6392  CREATED="24-Mar-09 02:05"
