:1000000003308A00B82B0000FF00030E8301A1001B
:100010000A08A0008A010408A2007708A300780853
:10002000A4007908A5007A08A600831383128C30F7
:100030008400801E1D288C1A2E2822088400230884
:10004000F7002408F8002508F9002608FA0020081F
:100050008A00210E8300FF0E7F0E09008A110A120A
:1000600039280A108A100A11820728340C34013406
:10007000063483168C128312A9122908831687006E
:10008000831287168C1E42281A08A8002808523CA2
:10009000031952282808503C031D52280130A7029A
:1000A0005230A80083168C1683128C128A110A1201
:1000B0001D28CC21C42B52103116B116C112630079
:1000C000CC21C42943103116B0160000CC21C42B1A
:1000D00052103216B116A53100012029C520441056
:1000E00043242E104528D2274D00CC21C42B52107A
:1000F0003216B116C8225810252C00112022C52115
:10010000A0127500CC21C42B52103116B916A012C2
:100110006300CC2144274310B016A5310001CC2147
:10012000C42B52103116B116C42453282E10D724D4
:100130004C26A021CC27D3220001CC21442243000D
:10014000CC21C42B52103116B116C4245328A02739
:10015000D022CE224410201020100001CC214422B5
:100160004F00CC21C42B52103116B116C32A52179E
:10017000C824442245272000CC21C4214800CC219A
:10018000C42B52103116B116C32A52175527C42258
:1001900052102000CC21C4215500CC21C42B521078
:1001A0003116B116C32A5217C2275810201020004A
:1001B000CC21C4214200CC21C42B52103116B116DF
:1001C000C32A52105324492354104C1E3D00CC2105
:1001D000C4214C00CC21C4214C00CC21C4214C00B2
:1001E000CC21C42B52103116B116C32A52105324FD
:1001F00049235410D21E3E00CC21C4215200CC21F0
:10020000C4215200CC21C4215200CC21C42B521055
:100210003116B116C42453282E10532449235410E8
:10022000D21E3D1F0001CC21C4295200CC21C4297B
:100230005200CC21C42B52103116B116C4245328BD
:100240002E105324492354104C1EBD1E0001CC21F6
:10025000C4294C00CC21C4294C00CC21C42B521001
:100260003116B116C32AD2294F292024CF26451092
:10027000201020100001CC2144244F00CC21C42B9D
:1002800052103116B116C220C325CC244724541075
:100290004326CF2945100001CC2144214300CC2125
:1002A000C42B52103116B116C220C325CC244724CA
:1002B00054104F28452720100001CC2144214F0025
:1002C000CC21C42B52103116B116C220C325CC2428
:1002D00047245410A512311820102000CC214421AD
:1002E0004C103100CC21C42B52103116B116C22053
:1002F000C325CC2447245410A012A51C3010200084
:10030000CC2144214C103900CC21C42B5210311681
:10031000B116C220C325CC2447245410A012251A9C
:1003200030102000CC2144214C103400CC21C421B9
:100330004800CC21C42B52103116B116C5225029C9
:10034000CF262029C5214F29C424CE230001CC214A
:10035000C42B52103216B11620102010201020107D
:1003600020102010201020100001CC21C422571092
:10037000B0160001CC21C4225710B1160001CC21C7
:10038000C4225710B2160001CC21C4225710B31654
:100390000001CC21C4225710B4160001CC21C42284
:1003A0005710B5160001CC21C4225710B616000113
:1003B000CC21C4225710B7160001CC21C4225710FB
:1003C000B8160001CC21C4225710B9160001CC2167
:1003D000C422571031182D00CC21C4225710B11857
:1003E0002D00CC21C422571031192D00CC21C4225C
:1003F0005710B1192D00CC21C4225710311A2D00ED
:10040000CC21C4225710B11A2D00CC21C422571080
:10041000311B2D00CC21C4225710B11B2D00CC2143
:10042000C4225710311C2D00CC21C4225710B11CFE
:100430002D00CC21C422571032182D00CC21C4220B
:100440005710B2182D00CC21C422571032192D009C
:10045000CC21C4225710B2192D00CC2144224400D3
:10046000CC21C4214200CC21C4225200CC21442200
:100470004400CC21C4214200CC21C42B521031169F
:10048000B116D22241222010A021C820D220432A16
:1004900045290001CC21442943103116311A2D0081
:1004A000CC2144224400CC21442244002B3084003F
:1004B0008313000803196A2A0130F800F701F70BCB
:1004C0005F2AF80B5E2A4A30F700F70B652A682A84
:1004D000800B5C2A08002F0EF039F7000F3006055C
:1004E0007704860000000614752A06100800060826
:1004F000F700060E0F39F80008000F3083160605C6
:10050000860006108610061183128610061106104A
:100510000F30AB0056220130AA002A08033C031C0E
:10052000992A0330AF006B220530AB005622AA0A8D
:100530008D2A0230AF006B220530AB005622AA0193
:100540002A08033C031CEB2A2A083120AB00AC012B
:100550002B08AD0083160610861006118312861034
:100560000F3083160605F03886008312061500004A
:100570000614000077227808AF0006100000061469
:10058000000077227808AE0006100F3083160605AB
:10059000860083122F0EF700F030F70577082E043F
:1005A000F8007808AE00AE1BB02A2C1C86102C1860
:1005B000861400000611000006102D0EAE000F304C
:1005C000AE052E08AF006B222D080F39AE00AF002C
:1005D0006B22AA0AA02A8A110A12E52B0B08AA008C
:1005E0008B13831603178C170C1400000000831262
:1005F0000C087F390319372B0313AB0003170D08C1
:100600000313AC0003170F080313AD002B080C1ED7
:10061000072B99002C0803178D0003132D080317CF
:100620008F0083168C170C140000000083120C0D31
:100630000E0D7F390319372B0313AB0003170D0879
:100640000313AC0003170F080313AD002B080C1E97
:10065000272B99002C0803178D0003132D0803176F
:100660008F008D0A03198F0A0313F12A031703134E
:10067000AA1B8B1708000B08AB008B1383160317FC
:100680008C170C140000000003186E2B83120C084A
:100690007F390313AC0003170D080313AD000317D4
:1006A0000F080313AE002C080C1E542B99002D08C4
:1006B00003178D0003132E0803178F0083168C1762
:1006C0000C140000000083120313AA0B682B6B2B81
:1006D000831603176E2B8E2B8316031783120C0DB4
:1006E0000E0D7F390313AC0003170D080313AD0083
:1006F00003170F080313AE002C080C1E7D2B990066
:100700002D0803178D0003132E0803178F008D0A81
:1007100003198F0A03100313AA0B3E2BAB1B8B1775
:1007200008002D08F8012C020318992B2C08F7005B
:10073000A52BF7010830AE00AC0DF70D2D087702A0
:100740000318F700F80DAE0B9C2B08002808523C4C
:10075000031DAD2B0130A707A8012808503C031D3D
:10076000B52B0130A7025230A8008A110A120F2CB3
:10077000193083169900A6309800903083129800A3
:10078000A701A801FF30A90083161F149F141F158D
:100790009F1183131F3083050912831290010030CB
:1007A000F80092000030831692001F149F141F154A
:1007B0009F1183121F10F03097059D05A91229087B
:1007C00083168700831287127D2AA801C0308B040C
:1007D00083168C165330831203178D0002308F005E
:1007E0000313EE220230AA00FA30AB005622AA0B05
:1007F000F42B27084D3C031D002CA7015230A80004
:100800002808523C031D0F2C0430AA00FA30AB001C
:100810005622AA0B062C8A1500288A11A62BF92B22
:02082000630073
:10100000A708031D1B28593003178D0000308F00DF
:1010100003100B300313AA008A113B238A150030FA
:101020000C1E1028990049300C1E142899004B30D2
:101030000C1E18289900270B2628603003178D00F6
:1010400000308F008A110313EE228A152708023C14
:10105000031D4328663003178D0000308F000310F6
:101060000A300313AA008A113B238A1500300C1E94
:10107000372899006D3003178D0000308F008A11DA
:101080000313EE228A152708033C031DCF28753071
:1010900003178D0000308F0003100E300313AA00D9
:1010A0008A113B238A154130AA003730AB00AB1BB5
:1010B0006A280F30F7002A0EF7050A307702031866
:1010C00064283030F70766282B08F70777080C1ECE
:1010D000672899000F30AA050A302A0203187228DF
:1010E00030307428AB132B08AA072A080C1E762868
:1010F00099007E3003178D0000308F0003100530FB
:101100000313AA008A113B238A154130AA001B3021
:10111000AB002A08AC006430AD008A1191238A1517
:101120007708AA0078083030031D9D28AB1CA5283D
:10113000AB19A5282B1A2030A028AB112B122B1489
:10114000F80778080C1EA22899002A08AC000A307B
:10115000AD008A1191238A157708AA0078083030EB
:10116000031DB828AB19BD282B1CBD282B1A203015
:10117000F80778080C1EBA2899003030AA072A0808
:101180000C1EC028990028300C1EC428990041303C
:101190000C1EC828990029300C1ECC28990027085D
:1011A000043C031DE328823003178D0000308F00BC
:1011B00003100B300313AA008A113B238A15FF305A
:1011C0000C1EE02899002708053C031D13298930CF
:1011D00003178D0000308F00031008300313AA009E
:1011E0008A113B238A150E300C1EF4289900113009
:1011F0000C1EF828990010300C1EFC2899000E30A7
:101200000C1E0029990001300C1E0429990015308C
:101210000C1E082999000E300C1E0C299900043070
:101220000C1E102999002708063C031D20298F3029
:1012300003178D0000308F008A110313EE228A15E8
:101240002708073C031D2D299D3003178D00003012
:101250008F008A110313EE228A152708083C031D0C
:101260003A29A03003178D0000308F008A11031334
:10127000EE228A152708093C031D4729AE300317C3
:101280008D0000308F008A110313EE228A15270883
:101290000A3C031D5429B13003178D0000308F0024
:1012A0008A110313EE228A1527080B3C031D6129BE
:1012B000BC3003178D0000308F008A110313EE221B
:1012C0008A1527080C3C031D6E29BF3003178D00BB
:1012D00000308F008A110313EE228A1527080D3C77
:1012E000031D7B29CA3003178D0000308F008A113F
:1012F0000313EE228A1527080E3C031D8829CD30E2
:1013000003178D0000308F008A110313EE228A1517
:1013100027080F3C031D9529D83003178D00003096
:101320008F008A110313EE228A152708103C031D33
:10133000A229DB3003178D0000308F008A110313C0
:10134000EE228A152708113C031DAF29E730031749
:101350008D0000308F008A110313EE228A152708B2
:10136000123C031DBC29EA3003178D0000308F00AA
:101370008A110313EE228A152708133C031DC9297D
:10138000ED3003178D0000308F008A110313EE2219
:101390008A152708143C031DD629F03003178D0049
:1013A00000308F008A110313EE228A152708153C9E
:1013B000031DE329FC3003178D0000308F008A11D4
:1013C0000313EE228A152708163C031DF029FF306F
:1013D00003178D0000308F008A110313EE228A1547
:1013E0002708173C031DFD29023003178D0001302B
:1013F0008F008A110313EE228A152708183C031D5B
:101400000A2A053003178D0001308F008A1103135B
:10141000EE228A152708193C031D172A13300317DB
:101420008D0001308F008A110313EE228A152708E0
:101430001A3C031D242A163003178D0001308F003B
:101440008A110313EE228A1527081B3C031D312A3B
:10145000193003178D0001308F008A110313EE221B
:101460008A1527081C3C031D3E2A273003178D00D0
:1014700001308F008A110313EE228A1527081D3CC4
:10148000031D4B2A2A3003178D0001308F008A116B
:101490000313EE228A1527081E3C031D582A2D30FF
:1014A00003178D0001308F008A110313EE228A1575
:1014B00027081F3C031D652A3B3003178D000130B0
:1014C0008F008A110313EE228A152708203C031D82
:1014D000722A3E3003178D0001308F008A110313EA
:1014E000EE228A152708213C031D7F2A4C30031762
:1014F0008D0001308F008A110313EE228A15270810
:10150000223C031D8C2A4F3003178D0001308F00C1
:101510008A110313EE228A152708233C031D992AFA
:101520005D3003178D0001308F008A110313EE2206
:101530008A152708243C031DB92A603003178D0043
:1015400001308F00031014300313AA008A113B23CB
:101550008A1525300C1EAA2A99006B3003178D00BE
:1015600001308F00031005300313AA008A113B23BA
:101570008A152708253C031DC62A6E3003178D00E7
:1015800001308F008A110313EE228A152708263CAA
:10159000031DE62A723003178D0001308F000310FF
:1015A00015300313AA008A113B238A1525300C1E1F
:1015B000D72A99007D3003178D0001308F00031466
:1015C00004300313AA008A113B238A152708273CFD
:1015D000031DF32A803003178D0001308F008A111C
:1015E0000313EE228A152708283C031D132B843091
:1015F00003178D0001308F00031015300313AA006C
:101600008A113B238A1525300C1E042B99008F303C
:1016100003178D0001308F00031404300313AA0058
:101620008A113B238A152708293C031D202B923061
:1016300003178D0001308F008A110313EE228A15E3
:1016400027082A3C031D2D2B963003178D000130EF
:101650008F008A110313EE228A1527082B3C031DE5
:101660003A2B993003178D0001308F008A11031334
:10167000EE228A1527082C3C031D472BA7300317A1
:101680008D0001308F008A110313EE228A1527087E
:101690002D3C031D742BB53003178D0001308F00D6
:1016A0008A110313EE228A150E300C1E552B990059
:1016B00011300C1E592B990010300C1E5D2B990017
:1016C0000E300C1E612B990001300C1E652B990009
:1016D00015300C1E692B99000E300C1E6D2B9900D5
:1016E00004300C1E712B990027082E3C031DA12BE2
:1016F000BA3003178D0001308F008A110313EE22D8
:101700008A150E300C1E822B990011300C1E862B70
:10171000990010300C1E8A2B990010300C1E8E2B55
:10172000990011300C1E922B99000E300C1E962B36
:10173000990004300C1E9A2B990000300C1E9E2B31
:10174000990027082F3C031DCE2BBF3003178D00B7
:1017500001308F008A110313EE228A150A300C1E05
:10176000AF2B990011300C1EB32B990011300C1EB9
:10177000B72B990011300C1EBB2B990011300C1E99
:10178000BF2B990011300C1EC32B99000E300C1E7C
:10179000C72B990000300C1ECB2B99002708303C3A
:1017A000031DFB2BC43003178D0001308F008A11FD
:1017B0000313EE228A150A300C1EDC2B9900003030
:1017C0000C1EE02B99000E300C1EE42B99001130FA
:1017D0000C1EE82B990011300C1EEC2B99001130D7
:1017E0000C1EF02B99000E300C1EF42B99000030CB
:1017F0000C1EF82B99002708313C031D282CC930FA
:1018000003178D0001308F008A110313EE228A1511
:101810000E300C1E092C990000300C1E0D2C990066
:101820000F300C1E112C990010300C1E152C990035
:1018300013300C1E192C990011300C1E1D2C990010
:101840000F300C1E212C990000300C1E252C990005
:101850002708323C031D552CCE3003178D00013074
:101860008F008A110313EE228A1504300C1E362CC9
:10187000990000300C1E3A2C99000E300C1E3E2CA4
:10188000990004300C1E422C990004300C1E462C8A
:10189000990004300C1E4A2C99000E300C1E4E2C60
:1018A000990000300C1E522C99002708333C031D70
:1018B000822CD33003178D0001308F008A1103135F
:1018C000EE228A150C300C1E632C990012300C1E6F
:1018D000672C990012300C1E6B2C99000C300C1EDA
:1018E0006F2C990000300C1E732C990000300C1ED8
:1018F000772C990000300C1E7B2C990000300C1EB8
:101900007F2C99002708343C031DAF2CD8300317D7
:101910008D0001308F008A110313EE228A150430E6
:101920000C1E902C990004300C1E942C99001F3032
:101930000C1E982C990004300C1E9C2C990004302D
:101940000C1EA02C990000300C1EA42C99001F30F6
:101950000C1EA82C990000300C1EAC2C99002708F6
:10196000353C031DDC2CDD3003178D0001308F006A
:101970008A110313EE228A150E300C1EBD2C99001D
:1019800011300C1EC12C990010300C1EC52C990072
:101990000E300C1EC92C990001300C1ECD2C990064
:1019A00015300C1ED12C99000E300C1ED52C990030
:1019B00004300C1ED92C99002708363C031D092D34
:1019C000E23003178D0001308F008A110313EE22DD
:1019D0008A150E300C1EEA2C990011300C1EEE2CCC
:1019E000990010300C1EF22C990010300C1EF62CB1
:1019F000990011300C1EFA2C99000E300C1EFE2C92
:101A0000990004300C1E022D990000300C1E062D8A
:101A100099002708373C031D362DE73003178D004A
:101A200001308F008A110313EE228A150A300C1E32
:101A3000172D990011300C1E1B2D990011300C1E12
:101A40001F2D990011300C1E232D990011300C1EF2
:101A5000272D990011300C1E2B2D99000E300C1ED5
:101A60002F2D990000300C1E332D99002708383C8B
:101A7000031D632DEC3003178D0001308F008A1198
:101A80000313EE228A150A300C1E442D99000030F3
:101A90000C1E482D99000E300C1E4C2D9900113053
:101AA0000C1E502D990011300C1E542D9900113030
:101AB0000C1E582D99000E300C1E5C2D9900003024
:101AC0000C1E602D99002708393C031D902DF13024
:101AD00003178D0001308F008A110313EE228A153F
:101AE0000E300C1E712D990000300C1E752D9900C2
:101AF0000F300C1E792D990010300C1E7D2D990091
:101B000013300C1E812D990011300C1E852D99006B
:101B10000F300C1E892D990000300C1E8D2D990060
:101B200027083A3C031DBD2DF63003178D00013008
:101B30008F008A110313EE228A1504300C1E9E2D8D
:101B4000990000300C1EA22D99000E300C1EA62DFF
:101B5000990004300C1EAA2D990004300C1EAE2DE5
:101B6000990004300C1EB22D99000E300C1EB62DBB
:101B7000990000300C1EBA2D990027083B3C031D2C
:101B8000EA2DFB3003178D0001308F008A110313FB
:101B9000EE228A150C300C1ECB2D990012300C1E33
:101BA000CF2D990012300C1ED32D99000C300C1E35
:101BB000D72D990000300C1EDB2D990000300C1E33
:101BC000DF2D990000300C1EE32D990000300C1E13
:101BD000E72D990027083C3C031D172E0030031702
:101BE0008D0002308F008A110313EE228A15043013
:101BF0000C1EF82D990004300C1EFC2D99001F308E
:101C00000C1E002E990004300C1E042E9900043086
:101C10000C1E082E990000300C1E0C2E99001F304F
:101C20000C1E102E990000300C1E142E990027084F
:101C30003D3C031D442E053003178D0002308F00FC
:101C40008A110313EE228A150E300C1E252E9900E0
:101C500011300C1E292E990010300C1E2D2E9900CB
:101C60000E300C1E312E990001300C1E352E9900BD
:101C700015300C1E392E99000E300C1E3D2E990089
:101C800004300C1E412E990027083E3C031D712E86
:101C90000A3003178D0002308F008A110313EE22E1
:101CA0008A150E300C1E522E990011300C1E562E25
:101CB000990010300C1E5A2E990010300C1E5E2E0A
:101CC000990011300C1E622E99000E300C1E662EEB
:101CD000990004300C1E6A2E990000300C1E6E2EE6
:101CE000990027083F3C031D9E2E0F3003178D00DF
:101CF00002308F008A110313EE228A150A300C1E5F
:101D00007F2E990011300C1E832E990011300C1E6D
:101D1000872E990011300C1E8B2E990011300C1E4D
:101D20008F2E990011300C1E932E99000E300C1E30
:101D3000972E990000300C1E9B2E99002708403CDE
:101D4000031DCB2E143003178D0002308F008A1133
:101D50000313EE228A150A300C1EAC2E99000030B7
:101D60000C1EB02E99000E300C1EB42E99001130AE
:101D70000C1EB82E990011300C1EBC2E990011308B
:101D80000C1EC02E99000E300C1EC42E990000307F
:101D90000C1EC82E99002708413C031DF82E19304F
:101DA00003178D0002308F008A110313EE228A156B
:101DB0000E300C1ED92E990000300C1EDD2E99001D
:101DC0000F300C1EE12E990010300C1EE52E9900EC
:101DD00013300C1EE92E990011300C1EED2E9900C7
:101DE0000F300C1EF12E990000300C1EF52E9900BC
:101DF0002708423C031D252F1E3003178D0002309B
:101E00008F008A110313EE228A1504300C1E062F50
:101E1000990000300C1E0A2F99000E300C1E0E2F58
:101E2000990004300C1E122F990004300C1E162F3E
:101E3000990004300C1E1A2F99000E300C1E1E2F14
:101E4000990000300C1E222F99002708433C031DE7
:101E5000522F233003178D0002308F008A11031395
:101E6000EE228A150C300C1E332F990012300C1EF6
:101E7000372F990012300C1E3B2F99000C300C1E8E
:101E80003F2F990000300C1E432F990000300C1E8C
:101E9000472F990000300C1E4B2F990000300C1E6C
:101EA0004F2F99002708443C031D7F2F283003172C
:101EB0008D0002308F008A110313EE228A15043040
:101EC0000C1E602F990004300C1E642F99001F30E7
:101ED0000C1E682F990004300C1E6C2F99000430E2
:101EE0000C1E702F990000300C1E742F99001F30AB
:101EF0000C1E782F990000300C1E7C2F99002708AB
:101F0000453C031D8C2F2D3003178D0002308F00B0
:101F10008A110313EE228A152708463C031D992FC8
:101F2000303003178D0002308F008A110313EE2228
:101F30008A152708473C031DA62F333003178D0051
:101F400002308F008A110313EE228A152708483CBD
:101F5000031DB32F363003178D0002308F008A1116
:101F60000313EE228A152708493C031DC02F393080
:101F700003178D0002308F008A110313EE228A1599
:101F800027084A3C031DCD2F3C3003178D0002303B
:101F90008F008A110313EE228A1527084B3C031D7C
:101FA000DA2F4A3003178D0002308F008A11031395
:101FB000EE228A1527084C3C031DE72F50300317EB
:101FC0008D0002308F008A110313EE228A158A11C8
:041FD0000A120D2CB8
:02400E00393F38
:00000001FF
;PIC16F877
;CRC=A272  CREATED="26-Þub-17 14:11"
